{
  "_format": "hh-sol-artifact-1",
  "contractName": "MagicalDungeonCreatures",
  "sourceName": "contracts/MagicalDungeonCreatures.sol",
  "abi": [
    {
      "inputs": [
        {
          "internalType": "string",
          "name": "_metadataURI",
          "type": "string"
        }
      ],
      "stateMutability": "nonpayable",
      "type": "constructor"
    },
    {
      "anonymous": false,
      "inputs": [
        {
          "indexed": true,
          "internalType": "address",
          "name": "account",
          "type": "address"
        },
        {
          "indexed": true,
          "internalType": "address",
          "name": "operator",
          "type": "address"
        },
        {
          "indexed": false,
          "internalType": "bool",
          "name": "approved",
          "type": "bool"
        }
      ],
      "name": "ApprovalForAll",
      "type": "event"
    },
    {
      "anonymous": false,
      "inputs": [
        {
          "indexed": true,
          "internalType": "address",
          "name": "owner",
          "type": "address"
        },
        {
          "indexed": false,
          "internalType": "string",
          "name": "name",
          "type": "string"
        }
      ],
      "name": "NewPlayer",
      "type": "event"
    },
    {
      "anonymous": false,
      "inputs": [
        {
          "indexed": true,
          "internalType": "address",
          "name": "operator",
          "type": "address"
        },
        {
          "indexed": true,
          "internalType": "address",
          "name": "from",
          "type": "address"
        },
        {
          "indexed": true,
          "internalType": "address",
          "name": "to",
          "type": "address"
        },
        {
          "indexed": false,
          "internalType": "uint256[]",
          "name": "ids",
          "type": "uint256[]"
        },
        {
          "indexed": false,
          "internalType": "uint256[]",
          "name": "values",
          "type": "uint256[]"
        }
      ],
      "name": "TransferBatch",
      "type": "event"
    },
    {
      "anonymous": false,
      "inputs": [
        {
          "indexed": true,
          "internalType": "address",
          "name": "operator",
          "type": "address"
        },
        {
          "indexed": true,
          "internalType": "address",
          "name": "from",
          "type": "address"
        },
        {
          "indexed": true,
          "internalType": "address",
          "name": "to",
          "type": "address"
        },
        {
          "indexed": false,
          "internalType": "uint256",
          "name": "id",
          "type": "uint256"
        },
        {
          "indexed": false,
          "internalType": "uint256",
          "name": "value",
          "type": "uint256"
        }
      ],
      "name": "TransferSingle",
      "type": "event"
    },
    {
      "anonymous": false,
      "inputs": [
        {
          "indexed": false,
          "internalType": "string",
          "name": "value",
          "type": "string"
        },
        {
          "indexed": true,
          "internalType": "uint256",
          "name": "id",
          "type": "uint256"
        }
      ],
      "name": "URI",
      "type": "event"
    },
    {
      "inputs": [
        {
          "internalType": "address",
          "name": "account",
          "type": "address"
        },
        {
          "internalType": "uint256",
          "name": "id",
          "type": "uint256"
        }
      ],
      "name": "balanceOf",
      "outputs": [
        {
          "internalType": "uint256",
          "name": "",
          "type": "uint256"
        }
      ],
      "stateMutability": "view",
      "type": "function"
    },
    {
      "inputs": [
        {
          "internalType": "address[]",
          "name": "accounts",
          "type": "address[]"
        },
        {
          "internalType": "uint256[]",
          "name": "ids",
          "type": "uint256[]"
        }
      ],
      "name": "balanceOfBatch",
      "outputs": [
        {
          "internalType": "uint256[]",
          "name": "",
          "type": "uint256[]"
        }
      ],
      "stateMutability": "view",
      "type": "function"
    },
    {
      "inputs": [],
      "name": "baseURI",
      "outputs": [
        {
          "internalType": "string",
          "name": "",
          "type": "string"
        }
      ],
      "stateMutability": "view",
      "type": "function"
    },
    {
      "inputs": [
        {
          "internalType": "address",
          "name": "account",
          "type": "address"
        },
        {
          "internalType": "address",
          "name": "operator",
          "type": "address"
        }
      ],
      "name": "isApprovedForAll",
      "outputs": [
        {
          "internalType": "bool",
          "name": "",
          "type": "bool"
        }
      ],
      "stateMutability": "view",
      "type": "function"
    },
    {
      "inputs": [
        {
          "internalType": "address",
          "name": "addr",
          "type": "address"
        }
      ],
      "name": "isPlayer",
      "outputs": [
        {
          "internalType": "bool",
          "name": "",
          "type": "bool"
        }
      ],
      "stateMutability": "view",
      "type": "function"
    },
    {
      "inputs": [
        {
          "internalType": "address",
          "name": "",
          "type": "address"
        }
      ],
      "name": "playerInfo",
      "outputs": [
        {
          "internalType": "uint256",
          "name": "",
          "type": "uint256"
        }
      ],
      "stateMutability": "view",
      "type": "function"
    },
    {
      "inputs": [
        {
          "internalType": "uint256",
          "name": "",
          "type": "uint256"
        }
      ],
      "name": "players",
      "outputs": [
        {
          "internalType": "address",
          "name": "playerAddress",
          "type": "address"
        },
        {
          "internalType": "string",
          "name": "playerName",
          "type": "string"
        },
        {
          "internalType": "uint256",
          "name": "playerMana",
          "type": "uint256"
        },
        {
          "internalType": "uint256",
          "name": "playerHealth",
          "type": "uint256"
        },
        {
          "internalType": "bool",
          "name": "inBattle",
          "type": "bool"
        }
      ],
      "stateMutability": "view",
      "type": "function"
    },
    {
      "inputs": [
        {
          "internalType": "string",
          "name": "_name",
          "type": "string"
        }
      ],
      "name": "registerPlayer",
      "outputs": [],
      "stateMutability": "nonpayable",
      "type": "function"
    },
    {
      "inputs": [
        {
          "internalType": "address",
          "name": "from",
          "type": "address"
        },
        {
          "internalType": "address",
          "name": "to",
          "type": "address"
        },
        {
          "internalType": "uint256[]",
          "name": "ids",
          "type": "uint256[]"
        },
        {
          "internalType": "uint256[]",
          "name": "amounts",
          "type": "uint256[]"
        },
        {
          "internalType": "bytes",
          "name": "data",
          "type": "bytes"
        }
      ],
      "name": "safeBatchTransferFrom",
      "outputs": [],
      "stateMutability": "nonpayable",
      "type": "function"
    },
    {
      "inputs": [
        {
          "internalType": "address",
          "name": "from",
          "type": "address"
        },
        {
          "internalType": "address",
          "name": "to",
          "type": "address"
        },
        {
          "internalType": "uint256",
          "name": "id",
          "type": "uint256"
        },
        {
          "internalType": "uint256",
          "name": "amount",
          "type": "uint256"
        },
        {
          "internalType": "bytes",
          "name": "data",
          "type": "bytes"
        }
      ],
      "name": "safeTransferFrom",
      "outputs": [],
      "stateMutability": "nonpayable",
      "type": "function"
    },
    {
      "inputs": [
        {
          "internalType": "address",
          "name": "operator",
          "type": "address"
        },
        {
          "internalType": "bool",
          "name": "approved",
          "type": "bool"
        }
      ],
      "name": "setApprovalForAll",
      "outputs": [],
      "stateMutability": "nonpayable",
      "type": "function"
    },
    {
      "inputs": [
        {
          "internalType": "bytes4",
          "name": "interfaceId",
          "type": "bytes4"
        }
      ],
      "name": "supportsInterface",
      "outputs": [
        {
          "internalType": "bool",
          "name": "",
          "type": "bool"
        }
      ],
      "stateMutability": "view",
      "type": "function"
    },
    {
      "inputs": [
        {
          "internalType": "uint256",
          "name": "",
          "type": "uint256"
        }
      ],
      "name": "uri",
      "outputs": [
        {
          "internalType": "string",
          "name": "",
          "type": "string"
        }
      ],
      "stateMutability": "view",
      "type": "function"
    }
  ],
  "bytecode": "0x608060405234620003335762001923803803806200001d8162000338565b92833981016020918281830312620003335780516001600160401b039182821162000333570191601f81818501121562000333578351938385116200024257601f1994620000718382018716880162000338565b938185528782840101116200033357869160005b8281106200031f57505090600091840101528151918383116200024257600254926001938481811c9116801562000314575b888210146200022157838111620002c8575b508087848211600114620002645760009162000258575b50600019600383901b1c191690841b176002555b8051938411620002425760039586548481811c9116801562000237575b828210146200022157838111620001d6575b50809285116001146200016e57508394509083929160009462000162575b50501b9160001990841b1c19161790555b6040516115c490816200035f8239f35b01519250388062000141565b9294849081168760005284600020946000905b88838310620001bb5750505010620001a2575b505050811b01905562000152565b015160001983861b60f8161c1916905538808062000194565b85870151885590960195948501948793509081019062000181565b87600052816000208480880160051c82019284891062000217575b0160051c019085905b8281106200020a57505062000123565b60008155018590620001fa565b92508192620001f1565b634e487b7160e01b600052602260045260246000fd5b90607f169062000111565b634e487b7160e01b600052604160045260246000fd5b905082015138620000e0565b87869316906002600052896000209160005b8b828210620002b1575050831162000297575b5050811b01600255620000f4565b84015160001960f88460031b161c19169055388062000289565b838801518555899690940193928301920162000276565b6002600052876000208480840160051c8201928a85106200030a575b0160051c019085905b828110620002fd575050620000c9565b60008155018590620002ed565b92508192620002e4565b90607f1690620000b7565b818101840151868201850152830162000085565b600080fd5b6040519190601f01601f191682016001600160401b03811183821017620002425760405256fe6080604052600436101561001257600080fd5b60003560e01c8062fdd58e1461100957806301ffc9a714610f9b57806309c95e1014610f6e5780630e89341c14610ea95780632eb2c2d614610b765780634b11469114610b3c5780634e1273f41461099e5780636c0360eb146108b8578063a22cb465146107cb578063b3446f85146104dc578063e985e9c514610486578063f242432a146101ca5763f71d96cb146100aa57600080fd5b346101c5576020806003193601126101c5576004356004548110156101c5576100d290611222565b5060018060a01b03815416906001838183016040519283916000918154916100f9836111e8565b808652928281169081156101a25750600114610163575b50505061011f925003826110a4565b60028201549161014d60ff60046003840154930154169260a0604051978897885287015260a0860190611064565b9260408501526060840152151560808301520390f35b600090815285812095935091905b81831061018a57508894505082010161011f3880610110565b85548784018501529485019486945091830191610171565b9250505061011f94925060ff191682840152151560051b82010186923880610110565b600080fd5b346101c55760a03660031901126101c5576101e3611038565b6101eb61104e565b906064356044356084356001600160401b0381116101c557610211903690600401611196565b6001600160a01b0393841693338514801561045d575b61023090611315565b851661023d811515611378565b61024683611533565b5061025084611533565b50826000526020956000875260406000208660005287528460406000205461027a828210156113d2565b85600052600089526040600020886000528952036040600020558360005260008752604060002082600052875260406000206102b7868254611431565b90558186604051868152878a8201527fc3d58168c5ae7397731d063d5bbf3d657854427343f4c083240f7aacaa2d0f6260403392a43b6102f357005b61033793600087946040519687958694859363f23a6e6160e01b9b8c865233600487015260248601526044850152606484015260a0608484015260a4830190611064565b03925af16000918161042e575b506104045750506001906103566114a7565b6308c379a0146103cf575b50610369575b005b60405162461bcd60e51b815260206004820152603460248201527f455243313135353a207472616e7366657220746f206e6f6e2d455243313135356044820152732932b1b2b4bb32b91034b6b83632b6b2b73a32b960611b6064820152608490fd5b0390fd5b6103d76114c5565b90816103e35750610361565b6103cb60405192839262461bcd60e51b845260048401526024830190611064565b6001600160e01b0319161490506103675760405162461bcd60e51b8152806103cb6004820161145e565b61044f919250843d8611610456575b61044781836110a4565b81019061143e565b9084610344565b503d61043d565b5084600052600160205260406000203360005260205261023060ff604060002054169050610227565b346101c55760403660031901126101c55761049f611038565b6104a761104e565b9060018060a01b03809116600052600160205260406000209116600052602052602060ff604060002054166040519015158152f35b346101c55760203660031901126101c5576004356001600160401b038082116101c557366023830112156101c55761051f60249236908481600401359101611150565b9161052933611568565b61078b57600454916040519060a0820182811082821117610776576040523382526020820192858452600a60408401526019606084015260006080840152600160401b85101561074d576001850160045561058385611222565b94909461076157835185546001600160a01b0319166001600160a01b039190911617855551805192909190831161074d57506105c260018501546111e8565b601f8111610702575b50602090601f8311600114610689579282600493608093610632979660009261067e575b50508160011b916000199060031b1c19161760018501555b60408101516002850155606081015160038501550151151591019060ff801983541691151516179055565b3360005260056020526040600020557f81ef79d1cda814a60c0fc60792e648a06d9c6bae67176346d1cc8b63030bfccd604051602081528061067933946020830190611064565b0390a2005b0151905089806105ef565b906001850160005260206000209160005b601f19851681106106ea575083608093610632979693600193600497601f198116106106d1575b505050811b016001850155610607565b015160001960f88460031b161c191690558980806106c1565b9192602060018192868501518155019401920161069a565b600185016000526020600020601f840160051c81019160208510610743575b601f0160051c01905b81811061073757506105cb565b6000815560010161072a565b9091508190610721565b634e487b7160e01b60009081526041600452fd5b50634e487b7160e01b60005260006004526000fd5b83634e487b7160e01b60005260416004526000fd5b60649060196040519162461bcd60e51b83526020600484015282015278141b185e595c88185b1c9958591e481c9959da5cdd195c9959603a1b6044820152fd5b346101c55760403660031901126101c5576107e4611038565b60243590811515908183036101c5576001600160a01b031691338314610861576108339033600052600160205260406000208460005260205260406000209060ff801983541691151516179055565b6040519081527f17307eab39ab6107e8899845ad3d59bd9653f200f220920489ca2b5937696c3160203392a3005b60405162461bcd60e51b815260206004820152602960248201527f455243313135353a2073657474696e6720617070726f76616c20737461747573604482015268103337b91039b2b63360b91b6064820152608490fd5b346101c55760003660031901126101c5576040516000906003546108db816111e8565b808352600191808316908115610976575060011461091c575b61091883610904818703826110a4565b604051918291602083526020830190611064565b0390f35b6003600090815260209450917fc2575a0e9e593c00f959f8c92f12db2869c3395a3b0502d05e2516446f71f85b5b82841061096357505050810190910190610904816108f4565b805485850187015292850192810161094a565b610918955061090493506020915091849260ff191682840152151560051b82010193506108f4565b346101c55760403660031901126101c5576004356001600160401b038082116101c557366023830112156101c5578160040135906109db826110db565b926109e960405194856110a4565b82845260209260248486019160051b830101913683116101c557602401905b828210610b1d575050506024359081116101c557610a2a9036906004016110f2565b8251815103610ac657825192610a3f846110db565b93610a4d60405195866110a4565b808552610a5c601f19916110db565b01368486013760005b8151811015610aaf57610aaa90610a9a6001600160a01b03610a878386611301565b5116610a938387611301565b5190611257565b610aa48288611301565b526112dc565b610a65565b5050506109186040519282849384528301906111b4565b60405162461bcd60e51b815260048101839052602960248201527f455243313135353a206163636f756e747320616e6420696473206c656e677468604482015268040dad2e6dac2e8c6d60bb1b6064820152608490fd5b81356001600160a01b03811681036101c5578152908401908401610a08565b346101c55760203660031901126101c5576001600160a01b03610b5d611038565b1660005260056020526020604060002054604051908152f35b346101c55760031960a0368201126101c557610b90611038565b90610b9961104e565b906001600160401b03906044358281116101c557610bbb9036906004016110f2565b6064358381116101c557610bd39036906004016110f2565b926084359081116101c557610bec903690600401611196565b6001600160a01b03958616959092903387148015610e80575b610c0e90611315565b8251855103610e2a57851692610c25841515611378565b60005b8351811015610cbe5780610c3f610cb99286611301565b51610c4a8289611301565b5190806000526020906000825260406000208c600052825282604060002054610c75828210156113d2565b82600052600084528d604060002090600052845203604060002055600052600081526040600020908860005252610cb26040600020918254611431565b90556112dc565b610c28565b509094939291938287604051604081527f4a39dc06d4c0dbc64b70af90fd698a233a518aa5d07e595d983b8c0526c8f7fb610cfc604083018a6111b4565b91808303602082015280610d1133948b6111b4565b0390a43b610d1b57005b6000602094610d7c610d6d97610d5d94604051998a988997889663bc197c8160e01b9e8f89523360048a0152602489015260a0604489015260a48801906111b4565b90848783030160648801526111b4565b91848303016084850152611064565b03925af160009181610e0a575b50610de25750506001610d9a6114a7565b6308c379a014610dab575b61036957005b610db36114c5565b80610dbe5750610da5565b60405162461bcd60e51b8152602060048201529081906103cb906024830190611064565b6001600160e01b031916146103675760405162461bcd60e51b8152806103cb6004820161145e565b610e2391925060203d81116104565761044781836110a4565b9083610d89565b60405162461bcd60e51b815260206004820152602860248201527f455243313135353a2069647320616e6420616d6f756e7473206c656e677468206044820152670dad2e6dac2e8c6d60c31b6064820152608490fd5b50866000526001602052604060002033600052602052610c0e60ff604060002054169050610c05565b346101c5576020806003193601126101c5576040519060008260025491610ecf836111e8565b92838352600190858282169182600014610f4e575050600114610f0e575b50610efa925003836110a4565b610918604051928284938452830190611064565b849150600260005281600020906000915b858310610f36575050610efa935082010185610eed565b80548389018501528794508693909201918101610f1f565b60ff191685820152610efa95151560051b8501019250879150610eed9050565b346101c55760203660031901126101c5576020610f91610f8c611038565b611568565b6040519015158152f35b346101c55760203660031901126101c55760043563ffffffff60e01b81168091036101c557602090636cdb3d1360e11b8114908115610ff8575b8115610fe7575b506040519015158152f35b6301ffc9a760e01b14905082610fdc565b6303a24d0760e21b81149150610fd5565b346101c55760403660031901126101c5576020611030611027611038565b60243590611257565b604051908152f35b600435906001600160a01b03821682036101c557565b602435906001600160a01b03821682036101c557565b919082519283825260005b848110611090575050826000602080949584010152601f8019910116010190565b60208183018101518483018201520161106f565b90601f801991011681019081106001600160401b038211176110c557604052565b634e487b7160e01b600052604160045260246000fd5b6001600160401b0381116110c55760051b60200190565b81601f820112156101c557803591611109836110db565b9261111760405194856110a4565b808452602092838086019260051b8201019283116101c5578301905b828210611141575050505090565b81358152908301908301611133565b9291926001600160401b0382116110c55760405191611179601f8201601f1916602001846110a4565b8294818452818301116101c5578281602093846000960137010152565b9080601f830112156101c5578160206111b193359101611150565b90565b90815180825260208080930193019160005b8281106111d4575050505090565b8351855293810193928101926001016111c6565b90600182811c92168015611218575b602083101461120257565b634e487b7160e01b600052602260045260246000fd5b91607f16916111f7565b6004548110156112415760046000526005602060002091020190600090565b634e487b7160e01b600052603260045260246000fd5b6001600160a01b031690811561128457600052600060205260406000209060005260205260406000205490565b60405162461bcd60e51b815260206004820152602a60248201527f455243313135353a2061646472657373207a65726f206973206e6f742061207660448201526930b634b21037bbb732b960b11b6064820152608490fd5b60001981146112eb5760010190565b634e487b7160e01b600052601160045260246000fd5b80518210156112415760209160051b010190565b1561131c57565b60405162461bcd60e51b815260206004820152602e60248201527f455243313135353a2063616c6c6572206973206e6f7420746f6b656e206f776e60448201526d195c881bdc88185c1c1c9bdd995960921b6064820152608490fd5b1561137f57565b60405162461bcd60e51b815260206004820152602560248201527f455243313135353a207472616e7366657220746f20746865207a65726f206164604482015264647265737360d81b6064820152608490fd5b156113d957565b60405162461bcd60e51b815260206004820152602a60248201527f455243313135353a20696e73756666696369656e742062616c616e636520666f60448201526939103a3930b739b332b960b11b6064820152608490fd5b919082018092116112eb57565b908160209103126101c557516001600160e01b0319811681036101c55790565b60809060208152602860208201527f455243313135353a204552433131353552656365697665722072656a656374656040820152676420746f6b656e7360c01b60608201520190565b60009060033d116114b457565b905060046000803e60005160e01c90565b600060443d106111b157604051600319913d83016004833e81516001600160401b03918282113d6024840111176115225781840194855193841161152a573d8501016020848701011161152257506111b1929101602001906110a4565b949350505050565b50949350505050565b60405190604082018281106001600160401b038211176110c55760405260018252602082016020368237825115611241575290565b6001600160a01b031660009081526005602052604090205461158957600090565b60019056fea264697066735822122091f61bd65bf0493f95f20b8010d7662f551cc2b851dac342c1ce615ba82f9dbf64736f6c63430008110033",
  "linkReferences": {},
  "deployedLinkReferences": {}
}