{
  "_format": "hh-sol-artifact-1",
  "contractName": "MagicalDungeonCreatures",
  "sourceName": "contracts/MagicalDungeonCreatures.sol",
  "abi": [
    {
      "inputs": [
        {
          "internalType": "string",
          "name": "_metadataURI",
          "type": "string"
        }
      ],
      "stateMutability": "nonpayable",
      "type": "constructor"
    },
    {
      "anonymous": false,
      "inputs": [
        {
          "indexed": true,
          "internalType": "address",
          "name": "account",
          "type": "address"
        },
        {
          "indexed": true,
          "internalType": "address",
          "name": "operator",
          "type": "address"
        },
        {
          "indexed": false,
          "internalType": "bool",
          "name": "approved",
          "type": "bool"
        }
      ],
      "name": "ApprovalForAll",
      "type": "event"
    },
    {
      "anonymous": false,
      "inputs": [
        {
          "indexed": false,
          "internalType": "string",
          "name": "battleName",
          "type": "string"
        },
        {
          "indexed": true,
          "internalType": "address",
          "name": "player1",
          "type": "address"
        },
        {
          "indexed": true,
          "internalType": "address",
          "name": "player2",
          "type": "address"
        }
      ],
      "name": "NewBattle",
      "type": "event"
    },
    {
      "anonymous": false,
      "inputs": [
        {
          "indexed": true,
          "internalType": "address",
          "name": "owner",
          "type": "address"
        },
        {
          "indexed": false,
          "internalType": "uint256",
          "name": "id",
          "type": "uint256"
        },
        {
          "indexed": false,
          "internalType": "uint256",
          "name": "attackStrength",
          "type": "uint256"
        },
        {
          "indexed": false,
          "internalType": "uint256",
          "name": "defenseStrength",
          "type": "uint256"
        }
      ],
      "name": "NewGameToken",
      "type": "event"
    },
    {
      "anonymous": false,
      "inputs": [
        {
          "indexed": true,
          "internalType": "address",
          "name": "owner",
          "type": "address"
        },
        {
          "indexed": false,
          "internalType": "string",
          "name": "name",
          "type": "string"
        }
      ],
      "name": "NewPlayer",
      "type": "event"
    },
    {
      "anonymous": false,
      "inputs": [
        {
          "indexed": true,
          "internalType": "address",
          "name": "operator",
          "type": "address"
        },
        {
          "indexed": true,
          "internalType": "address",
          "name": "from",
          "type": "address"
        },
        {
          "indexed": true,
          "internalType": "address",
          "name": "to",
          "type": "address"
        },
        {
          "indexed": false,
          "internalType": "uint256[]",
          "name": "ids",
          "type": "uint256[]"
        },
        {
          "indexed": false,
          "internalType": "uint256[]",
          "name": "values",
          "type": "uint256[]"
        }
      ],
      "name": "TransferBatch",
      "type": "event"
    },
    {
      "anonymous": false,
      "inputs": [
        {
          "indexed": true,
          "internalType": "address",
          "name": "operator",
          "type": "address"
        },
        {
          "indexed": true,
          "internalType": "address",
          "name": "from",
          "type": "address"
        },
        {
          "indexed": true,
          "internalType": "address",
          "name": "to",
          "type": "address"
        },
        {
          "indexed": false,
          "internalType": "uint256",
          "name": "id",
          "type": "uint256"
        },
        {
          "indexed": false,
          "internalType": "uint256",
          "name": "value",
          "type": "uint256"
        }
      ],
      "name": "TransferSingle",
      "type": "event"
    },
    {
      "anonymous": false,
      "inputs": [
        {
          "indexed": false,
          "internalType": "string",
          "name": "value",
          "type": "string"
        },
        {
          "indexed": true,
          "internalType": "uint256",
          "name": "id",
          "type": "uint256"
        }
      ],
      "name": "URI",
      "type": "event"
    },
    {
      "inputs": [],
      "name": "MAX_ATTACK_DEFEND_STRENGTH",
      "outputs": [
        {
          "internalType": "uint256",
          "name": "",
          "type": "uint256"
        }
      ],
      "stateMutability": "view",
      "type": "function"
    },
    {
      "inputs": [
        {
          "internalType": "address",
          "name": "account",
          "type": "address"
        },
        {
          "internalType": "uint256",
          "name": "id",
          "type": "uint256"
        }
      ],
      "name": "balanceOf",
      "outputs": [
        {
          "internalType": "uint256",
          "name": "",
          "type": "uint256"
        }
      ],
      "stateMutability": "view",
      "type": "function"
    },
    {
      "inputs": [
        {
          "internalType": "address[]",
          "name": "accounts",
          "type": "address[]"
        },
        {
          "internalType": "uint256[]",
          "name": "ids",
          "type": "uint256[]"
        }
      ],
      "name": "balanceOfBatch",
      "outputs": [
        {
          "internalType": "uint256[]",
          "name": "",
          "type": "uint256[]"
        }
      ],
      "stateMutability": "view",
      "type": "function"
    },
    {
      "inputs": [],
      "name": "baseURI",
      "outputs": [
        {
          "internalType": "string",
          "name": "",
          "type": "string"
        }
      ],
      "stateMutability": "view",
      "type": "function"
    },
    {
      "inputs": [
        {
          "internalType": "string",
          "name": "",
          "type": "string"
        }
      ],
      "name": "battleInfo",
      "outputs": [
        {
          "internalType": "uint256",
          "name": "",
          "type": "uint256"
        }
      ],
      "stateMutability": "view",
      "type": "function"
    },
    {
      "inputs": [
        {
          "internalType": "uint256",
          "name": "",
          "type": "uint256"
        }
      ],
      "name": "battles",
      "outputs": [
        {
          "internalType": "enum MagicalDungeonCreatures.BattleStatus",
          "name": "battleStatus",
          "type": "uint8"
        },
        {
          "internalType": "bytes32",
          "name": "battleHash",
          "type": "bytes32"
        },
        {
          "internalType": "string",
          "name": "name",
          "type": "string"
        },
        {
          "internalType": "address",
          "name": "winner",
          "type": "address"
        }
      ],
      "stateMutability": "view",
      "type": "function"
    },
    {
      "inputs": [
        {
          "internalType": "string",
          "name": "_name",
          "type": "string"
        }
      ],
      "name": "createBattle",
      "outputs": [
        {
          "components": [
            {
              "internalType": "enum MagicalDungeonCreatures.BattleStatus",
              "name": "battleStatus",
              "type": "uint8"
            },
            {
              "internalType": "bytes32",
              "name": "battleHash",
              "type": "bytes32"
            },
            {
              "internalType": "string",
              "name": "name",
              "type": "string"
            },
            {
              "internalType": "address[2]",
              "name": "players",
              "type": "address[2]"
            },
            {
              "internalType": "uint8[2]",
              "name": "moves",
              "type": "uint8[2]"
            },
            {
              "internalType": "address",
              "name": "winner",
              "type": "address"
            }
          ],
          "internalType": "struct MagicalDungeonCreatures.Battle",
          "name": "",
          "type": "tuple"
        }
      ],
      "stateMutability": "nonpayable",
      "type": "function"
    },
    {
      "inputs": [
        {
          "internalType": "string",
          "name": "_name",
          "type": "string"
        }
      ],
      "name": "createRandomGameToken",
      "outputs": [],
      "stateMutability": "nonpayable",
      "type": "function"
    },
    {
      "inputs": [
        {
          "internalType": "uint256",
          "name": "",
          "type": "uint256"
        }
      ],
      "name": "gameTokens",
      "outputs": [
        {
          "internalType": "string",
          "name": "name",
          "type": "string"
        },
        {
          "internalType": "uint256",
          "name": "id",
          "type": "uint256"
        },
        {
          "internalType": "uint256",
          "name": "attackStrength",
          "type": "uint256"
        },
        {
          "internalType": "uint256",
          "name": "defenseStrength",
          "type": "uint256"
        }
      ],
      "stateMutability": "view",
      "type": "function"
    },
    {
      "inputs": [],
      "name": "getAllBattles",
      "outputs": [
        {
          "components": [
            {
              "internalType": "enum MagicalDungeonCreatures.BattleStatus",
              "name": "battleStatus",
              "type": "uint8"
            },
            {
              "internalType": "bytes32",
              "name": "battleHash",
              "type": "bytes32"
            },
            {
              "internalType": "string",
              "name": "name",
              "type": "string"
            },
            {
              "internalType": "address[2]",
              "name": "players",
              "type": "address[2]"
            },
            {
              "internalType": "uint8[2]",
              "name": "moves",
              "type": "uint8[2]"
            },
            {
              "internalType": "address",
              "name": "winner",
              "type": "address"
            }
          ],
          "internalType": "struct MagicalDungeonCreatures.Battle[]",
          "name": "",
          "type": "tuple[]"
        }
      ],
      "stateMutability": "view",
      "type": "function"
    },
    {
      "inputs": [],
      "name": "getAllPlayers",
      "outputs": [
        {
          "components": [
            {
              "internalType": "address",
              "name": "playerAddress",
              "type": "address"
            },
            {
              "internalType": "string",
              "name": "playerName",
              "type": "string"
            },
            {
              "internalType": "uint256",
              "name": "playerMana",
              "type": "uint256"
            },
            {
              "internalType": "uint256",
              "name": "playerHealth",
              "type": "uint256"
            },
            {
              "internalType": "bool",
              "name": "inBattle",
              "type": "bool"
            }
          ],
          "internalType": "struct MagicalDungeonCreatures.Player[]",
          "name": "",
          "type": "tuple[]"
        }
      ],
      "stateMutability": "view",
      "type": "function"
    },
    {
      "inputs": [
        {
          "internalType": "string",
          "name": "_name",
          "type": "string"
        }
      ],
      "name": "getBattle",
      "outputs": [
        {
          "components": [
            {
              "internalType": "enum MagicalDungeonCreatures.BattleStatus",
              "name": "battleStatus",
              "type": "uint8"
            },
            {
              "internalType": "bytes32",
              "name": "battleHash",
              "type": "bytes32"
            },
            {
              "internalType": "string",
              "name": "name",
              "type": "string"
            },
            {
              "internalType": "address[2]",
              "name": "players",
              "type": "address[2]"
            },
            {
              "internalType": "uint8[2]",
              "name": "moves",
              "type": "uint8[2]"
            },
            {
              "internalType": "address",
              "name": "winner",
              "type": "address"
            }
          ],
          "internalType": "struct MagicalDungeonCreatures.Battle",
          "name": "",
          "type": "tuple"
        }
      ],
      "stateMutability": "view",
      "type": "function"
    },
    {
      "inputs": [
        {
          "internalType": "address",
          "name": "addr",
          "type": "address"
        }
      ],
      "name": "getPlayer",
      "outputs": [
        {
          "components": [
            {
              "internalType": "address",
              "name": "playerAddress",
              "type": "address"
            },
            {
              "internalType": "string",
              "name": "playerName",
              "type": "string"
            },
            {
              "internalType": "uint256",
              "name": "playerMana",
              "type": "uint256"
            },
            {
              "internalType": "uint256",
              "name": "playerHealth",
              "type": "uint256"
            },
            {
              "internalType": "bool",
              "name": "inBattle",
              "type": "bool"
            }
          ],
          "internalType": "struct MagicalDungeonCreatures.Player",
          "name": "",
          "type": "tuple"
        }
      ],
      "stateMutability": "view",
      "type": "function"
    },
    {
      "inputs": [
        {
          "internalType": "address",
          "name": "account",
          "type": "address"
        },
        {
          "internalType": "address",
          "name": "operator",
          "type": "address"
        }
      ],
      "name": "isApprovedForAll",
      "outputs": [
        {
          "internalType": "bool",
          "name": "",
          "type": "bool"
        }
      ],
      "stateMutability": "view",
      "type": "function"
    },
    {
      "inputs": [
        {
          "internalType": "string",
          "name": "_name",
          "type": "string"
        }
      ],
      "name": "isBattle",
      "outputs": [
        {
          "internalType": "bool",
          "name": "",
          "type": "bool"
        }
      ],
      "stateMutability": "view",
      "type": "function"
    },
    {
      "inputs": [
        {
          "internalType": "address",
          "name": "addr",
          "type": "address"
        }
      ],
      "name": "isPlayer",
      "outputs": [
        {
          "internalType": "bool",
          "name": "",
          "type": "bool"
        }
      ],
      "stateMutability": "view",
      "type": "function"
    },
    {
      "inputs": [
        {
          "internalType": "address",
          "name": "addr",
          "type": "address"
        }
      ],
      "name": "isPlayerToken",
      "outputs": [
        {
          "internalType": "bool",
          "name": "",
          "type": "bool"
        }
      ],
      "stateMutability": "view",
      "type": "function"
    },
    {
      "inputs": [
        {
          "internalType": "string",
          "name": "_name",
          "type": "string"
        }
      ],
      "name": "joinBattle",
      "outputs": [
        {
          "components": [
            {
              "internalType": "enum MagicalDungeonCreatures.BattleStatus",
              "name": "battleStatus",
              "type": "uint8"
            },
            {
              "internalType": "bytes32",
              "name": "battleHash",
              "type": "bytes32"
            },
            {
              "internalType": "string",
              "name": "name",
              "type": "string"
            },
            {
              "internalType": "address[2]",
              "name": "players",
              "type": "address[2]"
            },
            {
              "internalType": "uint8[2]",
              "name": "moves",
              "type": "uint8[2]"
            },
            {
              "internalType": "address",
              "name": "winner",
              "type": "address"
            }
          ],
          "internalType": "struct MagicalDungeonCreatures.Battle",
          "name": "",
          "type": "tuple"
        }
      ],
      "stateMutability": "nonpayable",
      "type": "function"
    },
    {
      "inputs": [
        {
          "internalType": "address",
          "name": "",
          "type": "address"
        }
      ],
      "name": "playerInfo",
      "outputs": [
        {
          "internalType": "uint256",
          "name": "",
          "type": "uint256"
        }
      ],
      "stateMutability": "view",
      "type": "function"
    },
    {
      "inputs": [
        {
          "internalType": "address",
          "name": "",
          "type": "address"
        }
      ],
      "name": "playerTokenInfo",
      "outputs": [
        {
          "internalType": "uint256",
          "name": "",
          "type": "uint256"
        }
      ],
      "stateMutability": "view",
      "type": "function"
    },
    {
      "inputs": [
        {
          "internalType": "uint256",
          "name": "",
          "type": "uint256"
        }
      ],
      "name": "players",
      "outputs": [
        {
          "internalType": "address",
          "name": "playerAddress",
          "type": "address"
        },
        {
          "internalType": "string",
          "name": "playerName",
          "type": "string"
        },
        {
          "internalType": "uint256",
          "name": "playerMana",
          "type": "uint256"
        },
        {
          "internalType": "uint256",
          "name": "playerHealth",
          "type": "uint256"
        },
        {
          "internalType": "bool",
          "name": "inBattle",
          "type": "bool"
        }
      ],
      "stateMutability": "view",
      "type": "function"
    },
    {
      "inputs": [
        {
          "internalType": "string",
          "name": "_name",
          "type": "string"
        },
        {
          "internalType": "string",
          "name": "_gameTokenName",
          "type": "string"
        }
      ],
      "name": "registerPlayer",
      "outputs": [],
      "stateMutability": "nonpayable",
      "type": "function"
    },
    {
      "inputs": [
        {
          "internalType": "address",
          "name": "from",
          "type": "address"
        },
        {
          "internalType": "address",
          "name": "to",
          "type": "address"
        },
        {
          "internalType": "uint256[]",
          "name": "ids",
          "type": "uint256[]"
        },
        {
          "internalType": "uint256[]",
          "name": "amounts",
          "type": "uint256[]"
        },
        {
          "internalType": "bytes",
          "name": "data",
          "type": "bytes"
        }
      ],
      "name": "safeBatchTransferFrom",
      "outputs": [],
      "stateMutability": "nonpayable",
      "type": "function"
    },
    {
      "inputs": [
        {
          "internalType": "address",
          "name": "from",
          "type": "address"
        },
        {
          "internalType": "address",
          "name": "to",
          "type": "address"
        },
        {
          "internalType": "uint256",
          "name": "id",
          "type": "uint256"
        },
        {
          "internalType": "uint256",
          "name": "amount",
          "type": "uint256"
        },
        {
          "internalType": "bytes",
          "name": "data",
          "type": "bytes"
        }
      ],
      "name": "safeTransferFrom",
      "outputs": [],
      "stateMutability": "nonpayable",
      "type": "function"
    },
    {
      "inputs": [
        {
          "internalType": "address",
          "name": "operator",
          "type": "address"
        },
        {
          "internalType": "bool",
          "name": "approved",
          "type": "bool"
        }
      ],
      "name": "setApprovalForAll",
      "outputs": [],
      "stateMutability": "nonpayable",
      "type": "function"
    },
    {
      "inputs": [
        {
          "internalType": "bytes4",
          "name": "interfaceId",
          "type": "bytes4"
        }
      ],
      "name": "supportsInterface",
      "outputs": [
        {
          "internalType": "bool",
          "name": "",
          "type": "bool"
        }
      ],
      "stateMutability": "view",
      "type": "function"
    },
    {
      "inputs": [],
      "name": "totalSupply",
      "outputs": [
        {
          "internalType": "uint256",
          "name": "",
          "type": "uint256"
        }
      ],
      "stateMutability": "view",
      "type": "function"
    },
    {
      "inputs": [
        {
          "internalType": "uint256",
          "name": "",
          "type": "uint256"
        }
      ],
      "name": "uri",
      "outputs": [
        {
          "internalType": "string",
          "name": "",
          "type": "string"
        }
      ],
      "stateMutability": "view",
      "type": "function"
    }
  ],
  "bytecode": "0x60806040523462000a865762003a02803803806200001d8162000acb565b92833981019060208183031262000a86578051906001600160401b03821162000a86570181601f8201121562000a86578051906001600160401b038211620006f25762000074601f8301601f191660200162000acb565b928284526020838301011162000a865760005b82811062000a7057600083850160200152835184906001600160401b038111620006f257600254600181811c9116801562000a65575b6020821014620006d157601f811162000a23575b50806020601f8211600114620009ab576000916200099f575b508160011b916000199060031b1c1916176002555b80516001600160401b038111620006f257600354600181811c9116801562000994575b6020821014620006d157601f811162000941575b50602091601f8211600114620008d757918192600092620008cb575b50508160011b916000199060031b1c1916176003555b604051608081016001600160401b03811182821017620006f2576040526200018f62000aab565b600081528152602081019060008252604081016000815260608201906000825260065468010000000000000000811015620006f25760018101806006558110156200071e576006600052925180519460029490941b7ff652222313e28459528d920b65115c16c04f3efc82aaedc97be59f3f377c0d3f0193906001600160401b038611620006f2578454600181811c91168015620008c0575b6020821014620006d157601f81116200088a575b50602090601f87116001146200081b57958091600396976000926200080f575b50508160011b9160001990871b1c19161785555b5160018501555160028401555191015560405160a081016001600160401b03811182821017620006f25760405260008152620002ab62000aab565b6000815260208201526000604082015260006060820152600060808201526005549068010000000000000000821015620006f25760018201806005558210156200071e576005600081905281517f036b6384b5eca791c62761152d0c79bb0604c104a5fb6f4eb0703f3154bb3db0918402820180546001600160a01b039092166001600160a01b0319909216919091179055602082015180519093906001600160401b038111620006f25760016005830284010154600181811c9116801562000804575b6020821014620006d157601f8111620007c6575b506020601f821160011462000740579181600592600495946080979860009262000734575b50508160011b916000199060031b1c1916176001838302850101555b60408601516002838302850101556060860151600383830285010155020101910151151560ff80198354169116179055620003fe62000a8b565b60008152600060208201526200041362000a8b565b60008082526020820152604051916001600160401b0360c0840190811190841117620006f25760c0830160405260008352600060208401526200045562000aab565b60008152604084015260608301526080820152600060a08201526007549068010000000000000000821015620006f25760018201806007558210156200071e57600760005280517fa66cc928b5edb82af9bd49922954155ab7b0942694bea4ce44661d9a8736c6889060038110156200070857600784028201805460ff191660ff929092169190911781556020830151600182015560408301518051600290920191906001600160401b038211620006f257825490600182811c92168015620006e7575b6020831014620006d15781601f8493116200068f575b50602090601f8311600114620006245760009262000618575b50508160011b916000199060031b1c19161790555b606082015160005b60028110620005f2575050608082015192600093845b60028110620005ca576007830284016005810187905560a086015160069190910180546001600160a01b0319166001600160a01b0392909216919091179055604051612ed7908162000b0b8239f35b9094602060019160ff885116908460031b60ff811b9283911b1691191617960191016200057b565b81516001600160a01b031660036007870285018301015560209091019060010162000565565b01519050868062000548565b6000858152602081209350601f198516905b8181106200067657509084600195949392106200065c575b505050811b0190556200055d565b015160001960f88460031b161c191690558680806200064e565b9293602060018192878601518155019501930162000636565b620006bf90856000526020600020601f850160051c81019160208610620006c6575b601f0160051c019062000af1565b876200052f565b9091508190620006b1565b634e487b7160e01b600052602260045260246000fd5b91607f169162000519565b634e487b7160e01b600052604160045260246000fd5b634e487b7160e01b600052602160045260246000fd5b634e487b7160e01b600052603260045260246000fd5b015190508880620003a8565b60016005840285010160005260206000209560005b601f1984168110620007ad575082608096976004969593600193600596601f1981161062000793575b505050811b01600183830285010155620003c4565b015160001960f88460031b161c191690558880806200077e565b8282015188556001909701966020928301920162000755565b620007fd906001600585028601016000526020600020601f840160051c81019160208510620006c657601f0160051c019062000af1565b8562000383565b90607f16906200036f565b0151905087806200025c565b90601f198716918660005260206000209260005b8181106200087157509160019391896003999a941062000858575b505050811b01855562000270565b015160001983891b60f8161c191690558780806200084a565b929360206001819287860151815501950193016200082f565b620008b990866000526020600020601f890160051c81019160208a10620006c657601f0160051c019062000af1565b866200023c565b90607f169062000228565b01519050828062000152565b601f19821692600360005260206000209160005b85811062000928575083600195106200090e575b505050811b0160035562000168565b015160001960f88460031b161c19169055828080620008ff565b91926020600181928685015181550194019201620008eb565b60036000526200098d907fc2575a0e9e593c00f959f8c92f12db2869c3395a3b0502d05e2516446f71f85b601f840160051c81019160208510620006c657601f0160051c019062000af1565b8262000136565b90607f169062000122565b905082015183620000ea565b60026000908152600080516020620039e28339815191529250601f198416905b81811062000a0a57509083600194939210620009f0575b5050811b01600255620000ff565b84015160001960f88460031b161c191690558380620009e2565b91926020600181928689015181550194019201620009cb565b600260005262000a5e90600080516020620039e2833981519152601f840160051c81019160208510620006c657601f0160051c019062000af1565b82620000d1565b90607f1690620000bd565b8060208092840101518282870101520162000087565b600080fd5b60408051919082016001600160401b03811183821017620006f257604052565b60405190602082016001600160401b03811183821017620006f257604052565b6040519190601f01601f191682016001600160401b03811183821017620006f257604052565b81811062000afd575050565b6000815560010162000af156fe60806040526004361015610013575b600080fd5b60003560e01c8062fdd58e1461024257806301ffc9a71461023957806309c95e10146102305780630daea2cd146102275780630e89341c1461021e5780631107ae3d1461021557806316801d171461020c57806318160ddd146102035780632711162e146101fa5780632ca04522146101f15780632eb2c2d6146101e85780633835e2b5146101df5780634b114691146101d65780634e1273f4146101cd5780635c12cd4b146101c45780635c93fc3d146101bb578063606d2e96146101b25780636c0360eb146101a9578063845f433b146101a05780639ec40aa314610197578063a1b4f57c1461018e578063a22cb46514610185578063bf034b691461017c578063bf103a4d14610173578063e985e9c51461016a578063efa1c48214610161578063f242432a146101585763f71d96cb1461015057600080fd5b61000e6117a9565b5061000e6115f6565b5061000e611529565b5061000e6114cb565b5061000e6114a7565b5061000e611438565b5061000e611312565b5061000e61119a565b5061000e611183565b5061000e61106b565b5061000e610f9e565b5061000e610f05565b5061000e610cf9565b5061000e610cc0565b5061000e610bbe565b5061000e610b3e565b5061000e610b03565b5061000e61092d565b5061000e6107cc565b5061000e610791565b5061000e61075b565b5061000e61072d565b5061000e610617565b5061000e6103e3565b5061000e61036a565b5061000e61033c565b5061000e6102cd565b5061000e61028b565b600435906001600160a01b038216820361000e57565b602435906001600160a01b038216820361000e57565b35906001600160a01b038216820361000e57565b503461000e57604036600319011261000e5760206102b36102aa61024b565b60243590611830565b604051908152f35b6001600160e01b031981160361000e57565b503461000e57602036600319011261000e5760206004356102ed816102bb565b63ffffffff60e01b16636cdb3d1360e11b811490811561032b575b811561031a575b506040519015158152f35b6301ffc9a760e01b1490503861030f565b6303a24d0760e21b81149150610308565b503461000e57602036600319011261000e57602061036061035b61024b565b612029565b6040519015158152f35b503461000e57600036600319011261000e576020604051600a8152f35b60005b83811061039a5750506000910152565b818101518382015260200161038a565b906020916103c381518092818552858086019101610387565b601f01601f1916010190565b9060206103e09281815201906103aa565b90565b503461000e5760208060031936011261000e5760405160009160025461040881610e27565b808452906001908181169081156104825750600114610442575b61043e8461043281880382610532565b604051918291826103cf565b0390f35b919350600260005283600020916000925b82841061046f575050508161043e936104329282010193610422565b8054858501870152928501928101610453565b60ff1916858501525050151560051b82010191506104328161043e610422565b50634e487b7160e01b600052604160045260246000fd5b60c081019081106001600160401b038211176104d457604052565b6104dc6104a2565b604052565b60a081019081106001600160401b038211176104d457604052565b608081019081106001600160401b038211176104d457604052565b604081019081106001600160401b038211176104d457604052565b90601f801991011681019081106001600160401b038211176104d457604052565b60405190610560826104b9565b565b60405190610560826104e1565b60405190610560826104fc565b6040519061056082610517565b81601f8201121561000e578035906001600160401b0382116105e0575b604051926105be601f8401601f191660200185610532565b8284526020838301011161000e57816000926020809301838601378301015290565b6105e86104a2565b6105a6565b602060031982011261000e57600435906001600160401b03821161000e576103e091600401610589565b503461000e57602061036061062b366105ed565b6120f0565b6003111561063a57565b634e487b7160e01b600052602160045260246000fd5b90600382101561063a5752565b6000915b6002831061066e57505050565b60019060ff83511681526020809101920192019190610661565b90610694818351610650565b60209182810151838301526106b860408201516101008060408601528401906103aa565b92606082015190606084016000905b600282106106fd57505050509060e060a0836106ed60806103e09601518386019061065d565b01516001600160a01b0316910152565b83516001600160a01b03168152928201926001919091019082016106c7565b9060206103e0928181520190610688565b503461000e5761043e610747610742366105ed565b61222f565b604051918291602083526020830190610688565b503461000e57600036600319011261000e576020600454604051908152f35b9060018060a01b0316600052602052604060002090565b503461000e57602036600319011261000e576001600160a01b036107b361024b565b1660005260096020526020604060002054604051908152f35b503461000e5761043e6107de366105ed565b6107e66120f9565b506107f86107f333612029565b61266a565b61081061080b610807836120f0565b1590565b612b45565b60405160208101906108348161082685856103cf565b03601f198101835282610532565b5190209061084061057c565b3381526000602082015261085261057c565b906000825260006020830152610866610553565b9360008552602085015282604085015260608401526080830152600060a083015261089360075491610add565b5561089d81612c0a565b6040519182918261071c565b6020906001600160401b0381116108c2575b60051b0190565b6108ca6104a2565b6108bb565b81601f8201121561000e578035916108e6836108a9565b926108f46040519485610532565b808452602092838086019260051b82010192831161000e578301905b82821061091e575050505090565b81358152908301908301610910565b503461000e5760a036600319011261000e5761094761024b565b61094f610261565b906001600160401b039060443582811161000e576109719036906004016108cf565b9160643581811161000e5761098a9036906004016108cf565b9060843590811161000e576109a3903690600401610589565b6001600160a01b038381169491903386148015610aba575b6109c4906119fe565b6109d18351855114611b3d565b86166109de811515611a61565b60005b8351811015610a7457806109f8610a6f9286611921565b51610a68610a608b61077a610a0d868c611921565b51948c610a4f87610a2c8361077a866000526000602052604060002090565b54610a3982821015611abb565b039161077a846000526000602052604060002090565b556000526000602052604060002090565b918254611b30565b9055611905565b6109e1565b5093869194610ab8966040517f4a39dc06d4c0dbc64b70af90fd698a233a518aa5d07e595d983b8c0526c8f7fb339180610aaf8a8a83611b9a565b0390a433611f98565b005b50600086815260016020908152604080832033845290915290205460ff166109bb565b6020610af6918160405193828580945193849201610387565b8101600a81520301902090565b503461000e576020610b2b81610b18366105ed565b8160405193828580945193849201610387565b8101600a81520301902054604051908152f35b503461000e57602036600319011261000e576001600160a01b03610b6061024b565b1660005260086020526020604060002054604051908152f35b90815180825260208080930193019160005b828110610b99575050505090565b835185529381019392810192600101610b8b565b9060206103e0928181520190610b79565b503461000e57604036600319011261000e576004356001600160401b0380821161000e573660238301121561000e578160040135610bfb816108a9565b92610c096040519485610532565b81845260209160248386019160051b8301019136831161000e57602401905b828210610c61578560243586811161000e5761043e91610c4f610c559236906004016108cf565b90611943565b60405191829182610bad565b838091610c6d84610277565b815201910190610c28565b9060018060a01b038251168152608080610ca1602085015160a0602086015260a08501906103aa565b9360408101516040850152606081015160608501520151151591015290565b503461000e57602036600319011261000e5761043e610ce5610ce061024b565b6122ee565b604051918291602083526020830190610c78565b503461000e57600080600319360112610dc757600790815491610d1b836108a9565b91610d296040519384610532565b838352602093848401928381845286842084915b848310610da3575050505050604051928484019085855251809152604084019460408260051b8601019392955b828710610d775785850386f35b909192938280610d93600193603f198a82030186528851610688565b9601920196019592919092610d6a565b8389600192610db5859c9b999c612173565b81520192019201919097949697610d3d565b80fd5b50634e487b7160e01b600052603260045260246000fd5b600754811015610e1a575b6007600081815291027fa66cc928b5edb82af9bd49922954155ab7b0942694bea4ce44661d9a8736c6880191565b610e22610dca565b610dec565b90600182811c92168015610e57575b6020831014610e4157565b634e487b7160e01b600052602260045260246000fd5b91607f1691610e36565b9060405191826000825492610e7584610e27565b908184526001948581169081600014610ee25750600114610e9f575b505061056092500383610532565b9093915060005260209081600020936000915b818310610eca57505061056093508201013880610e91565b85548884018501529485019487945091830191610eb2565b91505061056094506020925060ff191682840152151560051b8201013880610e91565b503461000e57602036600319011261000e5760043560075481101561000e57610f30610f6791610de1565b5060ff81541690610f7d600182015491610f4c60028201610e61565b90600660018060a01b03910154169260405195868096610650565b60208501526080604085015260808401906103aa565b9060608301520390f35b50634e487b7160e01b600052600060045260246000fd5b503461000e57600080600319360112610dc75760405181600354610fc181610e27565b808452906001908181169081156110435750600114610fea5761043e8461043281880382610532565b60038352602094507fc2575a0e9e593c00f959f8c92f12db2869c3395a3b0502d05e2516446f71f85b5b828410611030575050508161043e936104329282010193610422565b8054858501870152928501928101611014565b61043e96506104329450602092508593915060ff191682840152151560051b82010193610422565b503461000e57604036600319011261000e576001600160401b0360043581811161000e5761109d903690600401610589565b9060243590811161000e576110b6903690600401610589565b6110bf33612029565b6111425761110d906005546110f86110d5610562565b338152856020820152600a604082015260196060820152600060808201526124dc565b336000908152600860205260409020556126b6565b7f81ef79d1cda814a60c0fc60792e648a06d9c6bae67176346d1cc8b63030bfccd6040518061113d3394826103cf565b0390a2005b60405162461bcd60e51b8152602060048201526019602482015278141b185e595c88185b1c9958591e481c9959da5cdd195c9959603a1b6044820152606490fd5b503461000e57610ab8611195366105ed565b6126b6565b503461000e5761043e6111ac366105ed565b6111b46120f9565b506111be8161222f565b906111dc82516111cd81610630565b6111d681610630565b15612cd1565b6060820180515190916112519184919061120a906001600160a01b03166001600160a01b0316331415612d17565b61122a611225610807608061121e336122ee565b0151151590565b612d6d565b6001825261124c3361123d865160200190565b6001600160a01b039091169052565b612dad565b80515161129c9060049061128d90611287906001600160a01b03165b6001600160a01b0316600090815260086020526040902090565b54611763565b5001805460ff19166001179055565b6112c2600461128d61128761126d6112b5865160200190565b516001600160a01b031690565b60408201519051516001600160a01b03167f024187b16c217a79f8d8e6252b542ec6e278fa91304acd9cfd866f2bbf00bd08604051806113033395826103cf565b0390a36040519182918261071c565b503461000e57604036600319011261000e5761132c61024b565b602435801515810361000e576001600160a01b038216913383146113b4573360009081526001602090815260408083206001600160a01b03909416835292905220611382908260ff801983541691151516179055565b604051901515815233907f17307eab39ab6107e8899845ad3d59bd9653f200f220920489ca2b5937696c3190602090a3005b60405162461bcd60e51b815260206004820152602960248201527f455243313135353a2073657474696e6720617070726f76616c20737461747573604482015268103337b91039b2b63360b91b6064820152608490fd5b60065481101561142b575b600660005260206000209060021b0190600090565b611433610dca565b611416565b503461000e57602036600319011261000e5760043560065481101561000e576114636114939161140b565b5061146d81610e61565b9060018101549060036002820154910154906040519485946080865260808601906103aa565b926020850152604084015260608301520390f35b503461000e57602036600319011261000e5760206103606114c661024b565b61238b565b503461000e57604036600319011261000e57602060ff61151d6114ec61024b565b6114f4610261565b6001600160a01b0391821660009081526001865260408082209290931681526020919091522090565b54166040519015158152f35b503461000e57600080600319360112610dc757600590815461154a816108a9565b916115586040519384610532565b81835260209283810192838684528584208785925b8484106115d0575050505050604051938085019181865251809252604082818701971b8601019392955b8287106115a45785850386f35b9091929382806115c0600193603f198a82030186528851610c78565b9601920196019592919092611597565b90886001926115e2859b98999b61229e565b81520192019201919088909795949761156d565b503461000e5760a036600319011261000e5761161061024b565b611618610261565b608435906064356044356001600160401b03841161000e5761164161173d943690600401610589565b6001600160a01b0386811696919491903388148015611740575b611664906119fe565b8216611671811515611a61565b61167a84612004565b5061168485612004565b506000848152602081815260408083206001600160a01b038616845290915281209098908690546116b782821015611abb565b868b528a602052036116de8460408c209060018060a01b0316600052602052604060002090565b556116f78461077a876000526000602052604060002090565b611702878254611b30565b9055604080518681526020810188905233917fc3d58168c5ae7397731d063d5bbf3d657854427343f4c083240f7aacaa2d0f6291a433611e72565b80f35b50600088815260016020908152604080832033845290915290205460ff1661165b565b60055481101561179c575b6005600081815291027f036b6384b5eca791c62761152d0c79bb0604c104a5fb6f4eb0703f3154bb3db00191565b6117a4610dca565b61176e565b503461000e57602036600319011261000e5760043560055481101561000e576117d190611763565b5080546001600160a01b03166117e960018301610e61565b9160028101549060ff60046003830154920154169061181a604051958695865260a0602087015260a08601906103aa565b9260408501526060840152151560808301520390f35b6001600160a01b03811615611864576000918252602082815260408084206001600160a01b03909316845291905290205490565b60405162461bcd60e51b815260206004820152602a60248201527f455243313135353a2061646472657373207a65726f206973206e6f742061207660448201526930b634b21037bbb732b960b11b6064820152608490fd5b906118c6826108a9565b6118d36040519182610532565b82815280926118e4601f19916108a9565b0190602036910137565b50634e487b7160e01b600052601160045260246000fd5b6001906000198114611915570190565b61191d6118ee565b0190565b6020918151811015611936575b60051b010190565b61193e610dca565b61192e565b91909180518351036119a75761195981516118bc565b9060005b81518110156119a0578061198b61197a6112b561199b9486611921565b6119848389611921565b5190611830565b6119958286611921565b52611905565b61195d565b5090925050565b60405162461bcd60e51b815260206004820152602960248201527f455243313135353a206163636f756e747320616e6420696473206c656e677468604482015268040dad2e6dac2e8c6d60bb1b6064820152608490fd5b15611a0557565b60405162461bcd60e51b815260206004820152602e60248201527f455243313135353a2063616c6c6572206973206e6f7420746f6b656e206f776e60448201526d195c881bdc88185c1c1c9bdd995960921b6064820152608490fd5b15611a6857565b60405162461bcd60e51b815260206004820152602560248201527f455243313135353a207472616e7366657220746f20746865207a65726f206164604482015264647265737360d81b6064820152608490fd5b15611ac257565b60405162461bcd60e51b815260206004820152602a60248201527f455243313135353a20696e73756666696369656e742062616c616e636520666f60448201526939103a3930b739b332b960b11b6064820152608490fd5b9060018201809211611b2857565b6105606118ee565b91908201809211611b2857565b15611b4457565b60405162461bcd60e51b815260206004820152602860248201527f455243313135353a2069647320616e6420616d6f756e7473206c656e677468206044820152670dad2e6dac2e8c6d60c31b6064820152608490fd5b9091611bb16103e093604084526040840190610b79565b916020818403910152610b79565b9081602091031261000e57516103e0816102bb565b6103e0939260a092600180851b031682526000602083015260408201526001606082015281608082015201906103aa565b91926103e095949160a094600180871b0380921685521660208401526040830152606082015281608082015201906103aa565b60809060208152602860208201527f455243313135353a204552433131353552656365697665722072656a656374656040820152676420746f6b656e7360c01b60608201520190565b60009060033d11611c8e57565b905060046000803e60005160e01c90565b600060443d106103e057604051600319913d83016004833e81516001600160401b03918282113d602484011117611cfc57818401948551938411611d04573d85010160208487010111611cfc57506103e092910160200190610532565b949350505050565b50949350505050565b92919091823b611d1e575b50505050565b611d4592602092600060405180968195829463f23a6e6160e01b9a8b855260048501611bd4565b03926001600160a01b03165af160009181611e42575b50611e1a5750506001611d6c611c81565b6308c379a014611deb575b611d85575b38808080611d18565b60405162461bcd60e51b815260206004820152603460248201527f455243313135353a207472616e7366657220746f206e6f6e2d455243313135356044820152732932b1b2b4bb32b91034b6b83632b6b2b73a32b960611b6064820152608490fd5b0390fd5b611df3611c9f565b80611dfe5750611d77565b60405162461bcd60e51b8152908190611de790600483016103cf565b6001600160e01b03191614611d7c5760405162461bcd60e51b815280611de760048201611c38565b611e6491925060203d8111611e6b575b611e5c8183610532565b810190611bbf565b9038611d5b565b503d611e52565b9493919092813b611e86575b505050505050565b6000602094611ead6040519788968795869463f23a6e6160e01b9c8d875260048701611c05565b03926001600160a01b03165af160009181611f2a575b50611f025750506001611ed4611c81565b6308c379a014611eef575b611d85575b388080808080611e7e565b611ef7611c9f565b80611dfe5750611edf565b6001600160e01b03191614611ee45760405162461bcd60e51b815280611de760048201611c38565b611f4391925060203d8111611e6b57611e5c8183610532565b9038611ec3565b93906103e09593611f7c91611f8a9460018060a01b03809216885216602087015260a0604087015260a0860190610b79565b908482036060860152610b79565b9160808184039101526103aa565b9493919092813b611fab57505050505050565b6000602094611ead6040519788968795869463bc197c8160e01b9c8d875260048701611f4a565b604051611fde81610517565b600181526001602082016020368237825115611ff8575290565b612000610dca565b5290565b6040519061201182610517565b60018252602082016020368237825115611ff8575290565b6001600160a01b0381166000818152600860205260408082205490516120e1949383926120b6901561205a84610517565b600d84526c6973506c617965722066756e6360981b602085015260405192839161209d602084019663324757b560e21b88526060602486015260848501906103aa565b916044840152606483015203601f198101835282610532565b51906a636f6e736f6c652e6c6f675afa506001600160a01b0316600090815260086020526040902090565b546120eb57600090565b600190565b6120e190610add565b604090600060a0835161210b816104b9565b8094838252836020830152606081830152805161212781610517565b81368237606083015280519061213c82610517565b36823760808201520152565b600382101561063a5752565b9060ff6040519254818116845260081c16602083015261056082610517565b90604051612180816104b9565b809261219060ff82541683612148565b600180820154906020918285015260026121ab818501610e61565b6040860152604051928390600386016000925b8484106122135750505050505061220560066105609493836121e160a095610517565b60608601526121f260058201612154565b608086015201546001600160a01b031690565b6001600160a01b0316910152565b81546001600160a01b03168152928501929085019082016121be565b6122376120f9565b50612241816120f0565b156122615761225b6122556103e092610add565b54610de1565b50612173565b60405162461bcd60e51b8152602060048201526015602482015274426174746c6520646f65736e27742065786973742160581b6044820152606490fd5b906040516122ab816104e1565b608060ff6004839560018060a01b0381541685526122cb60018201610e61565b602086015260028101546040860152600381015460608601520154161515910152565b600060806040516122fe816104e1565b82815260606020820152826040820152826060820152015261231f81612029565b1561234e576001600160a01b031660009081526008602052604090206103e09061234890611287565b5061229e565b60405162461bcd60e51b8152602060048201526015602482015274506c6179657220646f65736e27742065786973742160581b6044820152606490fd5b6001600160a01b03166000908152600960205260409020546120eb57600090565b90601f81116123ba57505050565b600091825260208220906020601f850160051c830194106123f6575b601f0160051c01915b8281106123eb57505050565b8181556001016123df565b90925082906123d6565b91909182516001600160401b0381116124cf575b612428816124228454610e27565b846123ac565b602080601f8311600114612464575081929394600092612459575b50508160011b916000199060031b1c1916179055565b015190503880612443565b90601f1983169561247a85600052602060002090565b926000905b8882106124b75750508360019596971061249e575b505050811b019055565b015160001960f88460031b161c19169055388080612494565b8060018596829496860151815501950193019061247f565b6124d76104a2565b612414565b60055490600160401b82101561265d575b6124fe600192838101600555611763565b919091612650575b805182546001600160a01b0319166001600160a01b0391909116178255828201602080830151948551916001600160401b038311612643575b6125538361254d8654610e27565b866123ac565b80601f84116001146125c55750928280608094600497946125a7976105609b6000946125ba575b50501b916000199060031b1c19161790555b60408101516002860155606081015160038601550151151590565b91019060ff801983541691151516179055565b01519250388061257a565b9193949596601f1984166125de87600052602060002090565b936000905b82821061262c57505093610560989793600497936125a797938360809810612613575b505050811b01905561258c565b015160001960f88460031b161c19169055388080612606565b8088869782949787015181550196019401906125e3565b61264b6104a2565b61253f565b612658610f87565b612506565b6126656104a2565b6124ed565b1561267157565b60405162461bcd60e51b815260206004820152601c60248201527f506c6561736520526567697374657220506c61796572204669727374000000006044820152606490fd5b60806126c1336122ee565b015161281f576126d36107f333612029565b6126db61285c565b506126e533612afe565b6126ee8161289f565b600660ff612738612732604051602081019061272881610826334286909160349282526001600160601b03199060601b1660208201520190565b5190206064900690565b60ff1690565b16069160ff8316156127ea575b6127b87fca8ab07e9ed17d119729fc652dd24df9d8430ca862dda4631925b5b4b99da362939461277361056f565b90815260ff861690816020820152836040820152846060820152612799600654916128bf565b336000908152600960205260409020556127b16129fd565b9033612a1c565b6127cb6127c6600454611905565b600455565b6040805160ff95909516855260208501919091528301523391606090a2565b6127b86128177fca8ab07e9ed17d119729fc652dd24df9d8430ca862dda4631925b5b4b99da362946128ad565b935050612745565b60405162461bcd60e51b8152602060048201526015602482015274506c6179657220697320696e206120626174746c6560581b6044820152606490fd5b60405190608082018281106001600160401b03821117612892575b60405260006060838181528260208201528260408201520152565b61289a6104a2565b612877565b600a0390600a8211611b2857565b60ff6001911660ff8114611915570190565b6006549190600160401b8310156129f0575b6128e260019384810160065561140b565b9190916129e3575b80519384516001600160401b0381116129d6575b61290c8161254d8654610e27565b60209081601f8211600114612965579080606095949392600397989960009261295a575b505060001982881b1c191690831b1786555b82015190850155604081015160028501550151910155565b015190503880612930565b601f1982169061297a87600052602060002090565b9160005b8181106129c15750918391600398999a8796956060999895106129a9575b505050811b018655612942565b0151600019838a1b60f8161c1916905538808061299c565b8a83015184559286019291850191850161297e565b6129de6104a2565b6128fe565b6129eb610f87565b6128ea565b6129f86104a2565b6128d1565b60405190612a0a82610517565b600382526203078360ec1b6020830152565b6001600160a01b0381169291908315612aaf5761056093612a3c83612004565b50612a45611fd2565b506000838152602081815260408083206001600160a01b03861684529091529020612a708154611b1a565b9055604080518481526001602082015260009133917fc3d58168c5ae7397731d063d5bbf3d657854427343f4c083240f7aacaa2d0f629190a433611d0d565b60405162461bcd60e51b815260206004820152602160248201527f455243313135353a206d696e7420746f20746865207a65726f206164647265736044820152607360f81b6064820152608490fd5b600a9060405160208101914483524260408301526001600160601b03199060601b16606082015260548152612b32816104fc565b519020068015612b3f5790565b50600590565b15612b4c57565b60405162461bcd60e51b8152602060048201526016602482015275426174746c6520616c7265616479206578697374732160501b6044820152606490fd5b90600381101561063a5760ff80198354169116179055565b9060005b60028110612bb357505050565b81516001600160a01b031681840155602090910190600101612ba6565b600091825b60028110612be257505055565b9092602060019160ff9081875116918560031b90811b9283911b169119161794019101612bd5565b600754600160401b811015612cc4575b6001810180600755811015612cb7575b6007600052600760206000209102018151600381101561063a5761056092612c5460069284612b8a565b60208101516001840155612c6f604082015160028501612400565b612c80606082015160038501612ba2565b612c91608082015160058501612bd0565b60a00151910180546001600160a01b0319166001600160a01b0392909216919091179055565b612cbf610dca565b612c2a565b612ccc6104a2565b612c1a565b15612cd857565b60405162461bcd60e51b8152602060048201526017602482015276426174746c6520616c726561647920737461727465642160481b6044820152606490fd5b15612d1e57565b60405162461bcd60e51b815260206004820152602160248201527f4f6e6c7920706c617965722074776f2063616e206a6f696e206120626174746c6044820152606560f81b6064820152608490fd5b15612d7457565b60405162461bcd60e51b8152602060048201526011602482015270416c726561647920696e20626174746c6560781b6044820152606490fd5b612db6816120f0565b15612e6557612255612dc791610add565b612e58575b8151600381101561063a57612e3760a061056094612dec60069486612b8a565b60208101516001860155612e07604082015160028701612400565b612e18606082015160038701612ba2565b612e29608082015160058701612bd0565b01516001600160a01b031690565b910180546001600160a01b0319166001600160a01b03909216919091179055565b612e60610f87565b612dcc565b60405162461bcd60e51b815260206004820152601460248201527310985d1d1b1948191bd95cdb89dd08195e1a5cdd60621b6044820152606490fdfea264697066735822122022acddd07750bfd9f993433fbd89c78ded5e36e98c46340f6c41049cbaedefbe64736f6c63430008110033405787fa12a823e0f2b7631cc41b3ba8828b3321ca811111fa75cd3aa3bb5ace",
  "linkReferences": {},
  "deployedLinkReferences": {}
}