{
  "_format": "hh-sol-artifact-1",
  "contractName": "MagicalDungeonCreatures",
  "sourceName": "contracts/MagicalDungeonCreatures.sol",
  "abi": [
    {
      "inputs": [
        {
          "internalType": "string",
          "name": "_metadataURI",
          "type": "string"
        }
      ],
      "stateMutability": "nonpayable",
      "type": "constructor"
    },
    {
      "anonymous": false,
      "inputs": [
        {
          "indexed": true,
          "internalType": "address",
          "name": "account",
          "type": "address"
        },
        {
          "indexed": true,
          "internalType": "address",
          "name": "operator",
          "type": "address"
        },
        {
          "indexed": false,
          "internalType": "bool",
          "name": "approved",
          "type": "bool"
        }
      ],
      "name": "ApprovalForAll",
      "type": "event"
    },
    {
      "anonymous": false,
      "inputs": [
        {
          "indexed": true,
          "internalType": "address",
          "name": "owner",
          "type": "address"
        },
        {
          "indexed": false,
          "internalType": "uint256",
          "name": "id",
          "type": "uint256"
        },
        {
          "indexed": false,
          "internalType": "uint256",
          "name": "attackStrength",
          "type": "uint256"
        },
        {
          "indexed": false,
          "internalType": "uint256",
          "name": "defenseStrength",
          "type": "uint256"
        }
      ],
      "name": "NewGameToken",
      "type": "event"
    },
    {
      "anonymous": false,
      "inputs": [
        {
          "indexed": true,
          "internalType": "address",
          "name": "owner",
          "type": "address"
        },
        {
          "indexed": false,
          "internalType": "string",
          "name": "name",
          "type": "string"
        }
      ],
      "name": "NewPlayer",
      "type": "event"
    },
    {
      "anonymous": false,
      "inputs": [
        {
          "indexed": true,
          "internalType": "address",
          "name": "operator",
          "type": "address"
        },
        {
          "indexed": true,
          "internalType": "address",
          "name": "from",
          "type": "address"
        },
        {
          "indexed": true,
          "internalType": "address",
          "name": "to",
          "type": "address"
        },
        {
          "indexed": false,
          "internalType": "uint256[]",
          "name": "ids",
          "type": "uint256[]"
        },
        {
          "indexed": false,
          "internalType": "uint256[]",
          "name": "values",
          "type": "uint256[]"
        }
      ],
      "name": "TransferBatch",
      "type": "event"
    },
    {
      "anonymous": false,
      "inputs": [
        {
          "indexed": true,
          "internalType": "address",
          "name": "operator",
          "type": "address"
        },
        {
          "indexed": true,
          "internalType": "address",
          "name": "from",
          "type": "address"
        },
        {
          "indexed": true,
          "internalType": "address",
          "name": "to",
          "type": "address"
        },
        {
          "indexed": false,
          "internalType": "uint256",
          "name": "id",
          "type": "uint256"
        },
        {
          "indexed": false,
          "internalType": "uint256",
          "name": "value",
          "type": "uint256"
        }
      ],
      "name": "TransferSingle",
      "type": "event"
    },
    {
      "anonymous": false,
      "inputs": [
        {
          "indexed": false,
          "internalType": "string",
          "name": "value",
          "type": "string"
        },
        {
          "indexed": true,
          "internalType": "uint256",
          "name": "id",
          "type": "uint256"
        }
      ],
      "name": "URI",
      "type": "event"
    },
    {
      "inputs": [],
      "name": "MAX_ATTACK_DEFEND_STRENGTH",
      "outputs": [
        {
          "internalType": "uint256",
          "name": "",
          "type": "uint256"
        }
      ],
      "stateMutability": "view",
      "type": "function"
    },
    {
      "inputs": [
        {
          "internalType": "address",
          "name": "account",
          "type": "address"
        },
        {
          "internalType": "uint256",
          "name": "id",
          "type": "uint256"
        }
      ],
      "name": "balanceOf",
      "outputs": [
        {
          "internalType": "uint256",
          "name": "",
          "type": "uint256"
        }
      ],
      "stateMutability": "view",
      "type": "function"
    },
    {
      "inputs": [
        {
          "internalType": "address[]",
          "name": "accounts",
          "type": "address[]"
        },
        {
          "internalType": "uint256[]",
          "name": "ids",
          "type": "uint256[]"
        }
      ],
      "name": "balanceOfBatch",
      "outputs": [
        {
          "internalType": "uint256[]",
          "name": "",
          "type": "uint256[]"
        }
      ],
      "stateMutability": "view",
      "type": "function"
    },
    {
      "inputs": [],
      "name": "baseURI",
      "outputs": [
        {
          "internalType": "string",
          "name": "",
          "type": "string"
        }
      ],
      "stateMutability": "view",
      "type": "function"
    },
    {
      "inputs": [
        {
          "internalType": "string",
          "name": "",
          "type": "string"
        }
      ],
      "name": "battleInfo",
      "outputs": [
        {
          "internalType": "uint256",
          "name": "",
          "type": "uint256"
        }
      ],
      "stateMutability": "view",
      "type": "function"
    },
    {
      "inputs": [
        {
          "internalType": "uint256",
          "name": "",
          "type": "uint256"
        }
      ],
      "name": "battles",
      "outputs": [
        {
          "internalType": "enum MagicalDungeonCreatures.BattleStatus",
          "name": "battleStatus",
          "type": "uint8"
        },
        {
          "internalType": "bytes32",
          "name": "battleHash",
          "type": "bytes32"
        },
        {
          "internalType": "string",
          "name": "name",
          "type": "string"
        },
        {
          "internalType": "address",
          "name": "winner",
          "type": "address"
        }
      ],
      "stateMutability": "view",
      "type": "function"
    },
    {
      "inputs": [
        {
          "internalType": "string",
          "name": "_name",
          "type": "string"
        }
      ],
      "name": "createBattle",
      "outputs": [
        {
          "components": [
            {
              "internalType": "enum MagicalDungeonCreatures.BattleStatus",
              "name": "battleStatus",
              "type": "uint8"
            },
            {
              "internalType": "bytes32",
              "name": "battleHash",
              "type": "bytes32"
            },
            {
              "internalType": "string",
              "name": "name",
              "type": "string"
            },
            {
              "internalType": "address[2]",
              "name": "players",
              "type": "address[2]"
            },
            {
              "internalType": "uint8[2]",
              "name": "moves",
              "type": "uint8[2]"
            },
            {
              "internalType": "address",
              "name": "winner",
              "type": "address"
            }
          ],
          "internalType": "struct MagicalDungeonCreatures.Battle",
          "name": "",
          "type": "tuple"
        }
      ],
      "stateMutability": "nonpayable",
      "type": "function"
    },
    {
      "inputs": [
        {
          "internalType": "string",
          "name": "_name",
          "type": "string"
        }
      ],
      "name": "createRandomGameToken",
      "outputs": [],
      "stateMutability": "nonpayable",
      "type": "function"
    },
    {
      "inputs": [
        {
          "internalType": "uint256",
          "name": "",
          "type": "uint256"
        }
      ],
      "name": "gameTokens",
      "outputs": [
        {
          "internalType": "string",
          "name": "name",
          "type": "string"
        },
        {
          "internalType": "uint256",
          "name": "id",
          "type": "uint256"
        },
        {
          "internalType": "uint256",
          "name": "attackStrength",
          "type": "uint256"
        },
        {
          "internalType": "uint256",
          "name": "defenseStrength",
          "type": "uint256"
        }
      ],
      "stateMutability": "view",
      "type": "function"
    },
    {
      "inputs": [],
      "name": "getAllBattles",
      "outputs": [
        {
          "components": [
            {
              "internalType": "enum MagicalDungeonCreatures.BattleStatus",
              "name": "battleStatus",
              "type": "uint8"
            },
            {
              "internalType": "bytes32",
              "name": "battleHash",
              "type": "bytes32"
            },
            {
              "internalType": "string",
              "name": "name",
              "type": "string"
            },
            {
              "internalType": "address[2]",
              "name": "players",
              "type": "address[2]"
            },
            {
              "internalType": "uint8[2]",
              "name": "moves",
              "type": "uint8[2]"
            },
            {
              "internalType": "address",
              "name": "winner",
              "type": "address"
            }
          ],
          "internalType": "struct MagicalDungeonCreatures.Battle[]",
          "name": "",
          "type": "tuple[]"
        }
      ],
      "stateMutability": "view",
      "type": "function"
    },
    {
      "inputs": [],
      "name": "getAllPlayers",
      "outputs": [
        {
          "components": [
            {
              "internalType": "address",
              "name": "playerAddress",
              "type": "address"
            },
            {
              "internalType": "string",
              "name": "playerName",
              "type": "string"
            },
            {
              "internalType": "uint256",
              "name": "playerMana",
              "type": "uint256"
            },
            {
              "internalType": "uint256",
              "name": "playerHealth",
              "type": "uint256"
            },
            {
              "internalType": "bool",
              "name": "inBattle",
              "type": "bool"
            }
          ],
          "internalType": "struct MagicalDungeonCreatures.Player[]",
          "name": "",
          "type": "tuple[]"
        }
      ],
      "stateMutability": "view",
      "type": "function"
    },
    {
      "inputs": [
        {
          "internalType": "address",
          "name": "addr",
          "type": "address"
        }
      ],
      "name": "getPlayer",
      "outputs": [
        {
          "components": [
            {
              "internalType": "address",
              "name": "playerAddress",
              "type": "address"
            },
            {
              "internalType": "string",
              "name": "playerName",
              "type": "string"
            },
            {
              "internalType": "uint256",
              "name": "playerMana",
              "type": "uint256"
            },
            {
              "internalType": "uint256",
              "name": "playerHealth",
              "type": "uint256"
            },
            {
              "internalType": "bool",
              "name": "inBattle",
              "type": "bool"
            }
          ],
          "internalType": "struct MagicalDungeonCreatures.Player",
          "name": "",
          "type": "tuple"
        }
      ],
      "stateMutability": "view",
      "type": "function"
    },
    {
      "inputs": [
        {
          "internalType": "address",
          "name": "account",
          "type": "address"
        },
        {
          "internalType": "address",
          "name": "operator",
          "type": "address"
        }
      ],
      "name": "isApprovedForAll",
      "outputs": [
        {
          "internalType": "bool",
          "name": "",
          "type": "bool"
        }
      ],
      "stateMutability": "view",
      "type": "function"
    },
    {
      "inputs": [
        {
          "internalType": "string",
          "name": "_name",
          "type": "string"
        }
      ],
      "name": "isBattle",
      "outputs": [
        {
          "internalType": "bool",
          "name": "",
          "type": "bool"
        }
      ],
      "stateMutability": "view",
      "type": "function"
    },
    {
      "inputs": [
        {
          "internalType": "address",
          "name": "addr",
          "type": "address"
        }
      ],
      "name": "isPlayer",
      "outputs": [
        {
          "internalType": "bool",
          "name": "",
          "type": "bool"
        }
      ],
      "stateMutability": "view",
      "type": "function"
    },
    {
      "inputs": [
        {
          "internalType": "address",
          "name": "addr",
          "type": "address"
        }
      ],
      "name": "isPlayerToken",
      "outputs": [
        {
          "internalType": "bool",
          "name": "",
          "type": "bool"
        }
      ],
      "stateMutability": "view",
      "type": "function"
    },
    {
      "inputs": [
        {
          "internalType": "address",
          "name": "",
          "type": "address"
        }
      ],
      "name": "playerInfo",
      "outputs": [
        {
          "internalType": "uint256",
          "name": "",
          "type": "uint256"
        }
      ],
      "stateMutability": "view",
      "type": "function"
    },
    {
      "inputs": [
        {
          "internalType": "address",
          "name": "",
          "type": "address"
        }
      ],
      "name": "playerTokenInfo",
      "outputs": [
        {
          "internalType": "uint256",
          "name": "",
          "type": "uint256"
        }
      ],
      "stateMutability": "view",
      "type": "function"
    },
    {
      "inputs": [
        {
          "internalType": "uint256",
          "name": "",
          "type": "uint256"
        }
      ],
      "name": "players",
      "outputs": [
        {
          "internalType": "address",
          "name": "playerAddress",
          "type": "address"
        },
        {
          "internalType": "string",
          "name": "playerName",
          "type": "string"
        },
        {
          "internalType": "uint256",
          "name": "playerMana",
          "type": "uint256"
        },
        {
          "internalType": "uint256",
          "name": "playerHealth",
          "type": "uint256"
        },
        {
          "internalType": "bool",
          "name": "inBattle",
          "type": "bool"
        }
      ],
      "stateMutability": "view",
      "type": "function"
    },
    {
      "inputs": [
        {
          "internalType": "string",
          "name": "_name",
          "type": "string"
        },
        {
          "internalType": "string",
          "name": "_gameTokenName",
          "type": "string"
        }
      ],
      "name": "registerPlayer",
      "outputs": [],
      "stateMutability": "nonpayable",
      "type": "function"
    },
    {
      "inputs": [
        {
          "internalType": "address",
          "name": "from",
          "type": "address"
        },
        {
          "internalType": "address",
          "name": "to",
          "type": "address"
        },
        {
          "internalType": "uint256[]",
          "name": "ids",
          "type": "uint256[]"
        },
        {
          "internalType": "uint256[]",
          "name": "amounts",
          "type": "uint256[]"
        },
        {
          "internalType": "bytes",
          "name": "data",
          "type": "bytes"
        }
      ],
      "name": "safeBatchTransferFrom",
      "outputs": [],
      "stateMutability": "nonpayable",
      "type": "function"
    },
    {
      "inputs": [
        {
          "internalType": "address",
          "name": "from",
          "type": "address"
        },
        {
          "internalType": "address",
          "name": "to",
          "type": "address"
        },
        {
          "internalType": "uint256",
          "name": "id",
          "type": "uint256"
        },
        {
          "internalType": "uint256",
          "name": "amount",
          "type": "uint256"
        },
        {
          "internalType": "bytes",
          "name": "data",
          "type": "bytes"
        }
      ],
      "name": "safeTransferFrom",
      "outputs": [],
      "stateMutability": "nonpayable",
      "type": "function"
    },
    {
      "inputs": [
        {
          "internalType": "address",
          "name": "operator",
          "type": "address"
        },
        {
          "internalType": "bool",
          "name": "approved",
          "type": "bool"
        }
      ],
      "name": "setApprovalForAll",
      "outputs": [],
      "stateMutability": "nonpayable",
      "type": "function"
    },
    {
      "inputs": [
        {
          "internalType": "bytes4",
          "name": "interfaceId",
          "type": "bytes4"
        }
      ],
      "name": "supportsInterface",
      "outputs": [
        {
          "internalType": "bool",
          "name": "",
          "type": "bool"
        }
      ],
      "stateMutability": "view",
      "type": "function"
    },
    {
      "inputs": [],
      "name": "totalSupply",
      "outputs": [
        {
          "internalType": "uint256",
          "name": "",
          "type": "uint256"
        }
      ],
      "stateMutability": "view",
      "type": "function"
    },
    {
      "inputs": [
        {
          "internalType": "uint256",
          "name": "",
          "type": "uint256"
        }
      ],
      "name": "uri",
      "outputs": [
        {
          "internalType": "string",
          "name": "",
          "type": "string"
        }
      ],
      "stateMutability": "view",
      "type": "function"
    }
  ],
  "bytecode": "0x60806040523462000a8657620035fc803803806200001d8162000acb565b92833981019060208183031262000a86578051906001600160401b03821162000a86570181601f8201121562000a86578051906001600160401b038211620006f25762000074601f8301601f191660200162000acb565b928284526020838301011162000a865760005b82811062000a7057600083850160200152835184906001600160401b038111620006f257600254600181811c9116801562000a65575b6020821014620006d157601f811162000a23575b50806020601f8211600114620009ab576000916200099f575b508160011b916000199060031b1c1916176002555b80516001600160401b038111620006f257600354600181811c9116801562000994575b6020821014620006d157601f811162000941575b50602091601f8211600114620008d757918192600092620008cb575b50508160011b916000199060031b1c1916176003555b604051608081016001600160401b03811182821017620006f2576040526200018f62000aab565b600081528152602081019060008252604081016000815260608201906000825260065468010000000000000000811015620006f25760018101806006558110156200071e576006600052925180519460029490941b7ff652222313e28459528d920b65115c16c04f3efc82aaedc97be59f3f377c0d3f0193906001600160401b038611620006f2578454600181811c91168015620008c0575b6020821014620006d157601f81116200088a575b50602090601f87116001146200081b57958091600396976000926200080f575b50508160011b9160001990871b1c19161785555b5160018501555160028401555191015560405160a081016001600160401b03811182821017620006f25760405260008152620002ab62000aab565b6000815260208201526000604082015260006060820152600060808201526005549068010000000000000000821015620006f25760018201806005558210156200071e576005600081905281517f036b6384b5eca791c62761152d0c79bb0604c104a5fb6f4eb0703f3154bb3db0918402820180546001600160a01b039092166001600160a01b0319909216919091179055602082015180519093906001600160401b038111620006f25760016005830284010154600181811c9116801562000804575b6020821014620006d157601f8111620007c6575b506020601f821160011462000740579181600592600495946080979860009262000734575b50508160011b916000199060031b1c1916176001838302850101555b60408601516002838302850101556060860151600383830285010155020101910151151560ff80198354169116179055620003fe62000a8b565b60008152600060208201526200041362000a8b565b60008082526020820152604051916001600160401b0360c0840190811190841117620006f25760c0830160405260008352600060208401526200045562000aab565b60008152604084015260608301526080820152600060a08201526007549068010000000000000000821015620006f25760018201806007558210156200071e57600760005280517fa66cc928b5edb82af9bd49922954155ab7b0942694bea4ce44661d9a8736c6889060038110156200070857600784028201805460ff191660ff929092169190911781556020830151600182015560408301518051600290920191906001600160401b038211620006f257825490600182811c92168015620006e7575b6020831014620006d15781601f8493116200068f575b50602090601f8311600114620006245760009262000618575b50508160011b916000199060031b1c19161790555b606082015160005b60028110620005f2575050608082015192600093845b60028110620005ca576007830284016005810187905560a086015160069190910180546001600160a01b0319166001600160a01b0392909216919091179055604051612ad1908162000b0b8239f35b9094602060019160ff885116908460031b60ff811b9283911b1691191617960191016200057b565b81516001600160a01b031660036007870285018301015560209091019060010162000565565b01519050868062000548565b6000858152602081209350601f198516905b8181106200067657509084600195949392106200065c575b505050811b0190556200055d565b015160001960f88460031b161c191690558680806200064e565b9293602060018192878601518155019501930162000636565b620006bf90856000526020600020601f850160051c81019160208610620006c6575b601f0160051c019062000af1565b876200052f565b9091508190620006b1565b634e487b7160e01b600052602260045260246000fd5b91607f169162000519565b634e487b7160e01b600052604160045260246000fd5b634e487b7160e01b600052602160045260246000fd5b634e487b7160e01b600052603260045260246000fd5b015190508880620003a8565b60016005840285010160005260206000209560005b601f1984168110620007ad575082608096976004969593600193600596601f1981161062000793575b505050811b01600183830285010155620003c4565b015160001960f88460031b161c191690558880806200077e565b8282015188556001909701966020928301920162000755565b620007fd906001600585028601016000526020600020601f840160051c81019160208510620006c657601f0160051c019062000af1565b8562000383565b90607f16906200036f565b0151905087806200025c565b90601f198716918660005260206000209260005b8181106200087157509160019391896003999a941062000858575b505050811b01855562000270565b015160001983891b60f8161c191690558780806200084a565b929360206001819287860151815501950193016200082f565b620008b990866000526020600020601f890160051c81019160208a10620006c657601f0160051c019062000af1565b866200023c565b90607f169062000228565b01519050828062000152565b601f19821692600360005260206000209160005b85811062000928575083600195106200090e575b505050811b0160035562000168565b015160001960f88460031b161c19169055828080620008ff565b91926020600181928685015181550194019201620008eb565b60036000526200098d907fc2575a0e9e593c00f959f8c92f12db2869c3395a3b0502d05e2516446f71f85b601f840160051c81019160208510620006c657601f0160051c019062000af1565b8262000136565b90607f169062000122565b905082015183620000ea565b60026000908152600080516020620035dc8339815191529250601f198416905b81811062000a0a57509083600194939210620009f0575b5050811b01600255620000ff565b84015160001960f88460031b161c191690558380620009e2565b91926020600181928689015181550194019201620009cb565b600260005262000a5e90600080516020620035dc833981519152601f840160051c81019160208510620006c657601f0160051c019062000af1565b82620000d1565b90607f1690620000bd565b8060208092840101518282870101520162000087565b600080fd5b60408051919082016001600160401b03811183821017620006f257604052565b60405190602082016001600160401b03811183821017620006f257604052565b6040519190601f01601f191682016001600160401b03811183821017620006f257604052565b81811062000afd575050565b6000815560010162000af156fe60806040526004361015610013575b600080fd5b60003560e01c8062fdd58e1461021a57806301ffc9a71461021157806309c95e10146102085780630daea2cd146101ff5780630e89341c146101f65780631107ae3d146101ed57806318160ddd146101e45780632711162e146101db5780632ca04522146101d25780632eb2c2d6146101c95780633835e2b5146101c05780634b114691146101b75780634e1273f4146101ae5780635c12cd4b146101a55780635c93fc3d1461019c578063606d2e96146101935780636c0360eb1461018a578063845f433b146101815780639ec40aa314610178578063a22cb4651461016f578063bf034b6914610166578063bf103a4d1461015d578063e985e9c514610154578063efa1c4821461014b578063f242432a146101425763f71d96cb1461013a57600080fd5b61000e61166c565b5061000e6114b9565b5061000e6113ec565b5061000e61138e565b5061000e61136a565b5061000e6112fb565b5061000e6111d5565b5061000e6111be565b5061000e6110a6565b5061000e610fd9565b5061000e610f40565b5061000e610cfb565b5061000e610c60565b5061000e610b5e565b5061000e610ade565b5061000e610aa3565b5061000e6108cd565b5061000e61076c565b5061000e61063e565b5061000e610608565b5061000e6105ef565b5061000e6103bb565b5061000e610342565b5061000e610314565b5061000e6102a5565b5061000e610263565b600435906001600160a01b038216820361000e57565b602435906001600160a01b038216820361000e57565b35906001600160a01b038216820361000e57565b503461000e57604036600319011261000e57602061028b610282610223565b602435906116f3565b604051908152f35b6001600160e01b031981160361000e57565b503461000e57602036600319011261000e5760206004356102c581610293565b63ffffffff60e01b16636cdb3d1360e11b8114908115610303575b81156102f2575b506040519015158152f35b6301ffc9a760e01b149050386102e7565b6303a24d0760e21b811491506102e0565b503461000e57602036600319011261000e576020610338610333610223565b611ef9565b6040519015158152f35b503461000e57600036600319011261000e576020604051600a8152f35b60005b8381106103725750506000910152565b8181015183820152602001610362565b9060209161039b8151809281855285808601910161035f565b601f01601f1916010190565b9060206103b8928181520190610382565b90565b503461000e5760208060031936011261000e576040516000916002546103e081610e62565b8084529060019081811690811561045a575060011461041a575b6104168461040a8188038261050a565b604051918291826103a7565b0390f35b919350600260005283600020916000925b82841061044757505050816104169361040a92820101936103fa565b805485850187015292850192810161042b565b60ff1916858501525050151560051b820101915061040a816104166103fa565b50634e487b7160e01b600052604160045260246000fd5b60c081019081106001600160401b038211176104ac57604052565b6104b461047a565b604052565b60a081019081106001600160401b038211176104ac57604052565b608081019081106001600160401b038211176104ac57604052565b604081019081106001600160401b038211176104ac57604052565b90601f801991011681019081106001600160401b038211176104ac57604052565b6040519061053882610491565b565b60405190610538826104b9565b60405190610538826104d4565b60405190610538826104ef565b81601f8201121561000e578035906001600160401b0382116105b8575b60405192610596601f8401601f19166020018561050a565b8284526020838301011161000e57816000926020809301838601378301015290565b6105c061047a565b61057e565b602060031982011261000e57600435906001600160401b03821161000e576103b891600401610561565b503461000e576020610338610603366105c5565b611fc0565b503461000e57600036600319011261000e576020600454604051908152f35b9060018060a01b0316600052602052604060002090565b503461000e57602036600319011261000e576001600160a01b03610660610223565b1660005260096020526020604060002054604051908152f35b9060038210156106865752565b634e487b7160e01b600052602160045260246000fd5b6000915b600283106106ad57505050565b60019060ff835116815260208091019201920191906106a0565b906106d3818351610679565b60209182810151838301526106f76040820151610100806040860152840190610382565b92606082015190606084016000905b6002821061073c57505050509060e060a08361072c60806103b89601518386019061069c565b01516001600160a01b0316910152565b83516001600160a01b0316815292820192600191909101908201610706565b9060206103b89281815201906106c7565b503461000e5761041661077e366105c5565b6107866128bc565b5061079861079333611ef9565b6123e1565b6107b06107ab6107a783611fc0565b1590565b61290b565b60405160208101906107d4816107c685856103a7565b03601f19810183528261050a565b519020906107e0610554565b338152600060208201526107f2610554565b90600082526000602083015261080661052b565b9360008552602085015282604085015260608401526080830152600060a083015261083360075491610a7d565b5561083d816129d0565b6040519182918261075b565b6020906001600160401b038111610862575b60051b0190565b61086a61047a565b61085b565b81601f8201121561000e5780359161088683610849565b92610894604051948561050a565b808452602092838086019260051b82010192831161000e578301905b8282106108be575050505090565b813581529083019083016108b0565b503461000e5760a036600319011261000e576108e7610223565b6108ef610239565b906001600160401b039060443582811161000e5761091190369060040161086f565b9160643581811161000e5761092a90369060040161086f565b9060843590811161000e57610943903690600401610561565b6001600160a01b038381169491903386148015610a5a575b610964906118ce565b6109718351855114611a0d565b861661097e811515611931565b60005b8351811015610a145780610998610a0f92866117e4565b51610a08610a008b6106276109ad868c6117e4565b51948c6109ef876109cc83610627866000526000602052604060002090565b546109d98282101561198b565b0391610627846000526000602052604060002090565b556000526000602052604060002090565b918254611a00565b90556117c8565b610981565b5093869194610a58966040517f4a39dc06d4c0dbc64b70af90fd698a233a518aa5d07e595d983b8c0526c8f7fb339180610a4f8a8a83611a6a565b0390a433611e68565b005b50600086815260016020908152604080832033845290915290205460ff1661095b565b6020610a9691816040519382858094519384920161035f565b8101600a81520301902090565b503461000e576020610acb81610ab8366105c5565b816040519382858094519384920161035f565b8101600a81520301902054604051908152f35b503461000e57602036600319011261000e576001600160a01b03610b00610223565b1660005260086020526020604060002054604051908152f35b90815180825260208080930193019160005b828110610b39575050505090565b835185529381019392810192600101610b2b565b9060206103b8928181520190610b19565b503461000e57604036600319011261000e576004356001600160401b0380821161000e573660238301121561000e578160040135610b9b81610849565b92610ba9604051948561050a565b81845260209160248386019160051b8301019136831161000e57602401905b828210610c01578560243586811161000e5761041691610bef610bf592369060040161086f565b90611806565b60405191829182610b4d565b838091610c0d8461024f565b815201910190610bc8565b9060018060a01b038251168152608080610c41602085015160a0602086015260a0850190610382565b9360408101516040850152606081015160608501520151151591015290565b503461000e57602036600319011261000e57610416610c85610c80610223565b612019565b604051918291602083526020830190610c18565b602080820190808352835180925260408301928160408460051b8301019501936000915b848310610ccd5750505050505090565b9091929394958480610ceb600193603f198682030187528a516106c7565b9801930193019194939290610cbd565b503461000e57600080600319360112610e025760078054610d1b81610849565b91604093610d2b8551948561050a565b8284528181526020808220828287015b868510610d4f578851806104168a82610c99565b85848a5192610d5d84610491565b610d6b60ff875416856120d7565b60019384870154838201526002948d610d85878a01610e9c565b908301528d51956003890188885b838210610de257505050505084610dab6001966104ef565b6060820152610dbc600588016120e3565b608082015260068701546001600160a01b031660a0820152815201930194019391610d3b565b82546001600160a01b031681528e98508c97928501929185019101610d93565b80fd5b50634e487b7160e01b600052603260045260246000fd5b600754811015610e55575b6007600081815291027fa66cc928b5edb82af9bd49922954155ab7b0942694bea4ce44661d9a8736c6880191565b610e5d610e05565b610e27565b90600182811c92168015610e92575b6020831014610e7c57565b634e487b7160e01b600052602260045260246000fd5b91607f1691610e71565b9060405191826000825492610eb084610e62565b908184526001948581169081600014610f1d5750600114610eda575b50506105389250038361050a565b9093915060005260209081600020936000915b818310610f0557505061053893508201013880610ecc565b85548884018501529485019487945091830191610eed565b91505061053894506020925060ff191682840152151560051b8201013880610ecc565b503461000e57602036600319011261000e5760043560075481101561000e57610f6b610fa291610e1c565b5060ff81541690610fb8600182015491610f8760028201610e9c565b90600660018060a01b03910154169260405195868096610679565b6020850152608060408501526080840190610382565b9060608301520390f35b50634e487b7160e01b600052600060045260246000fd5b503461000e57600080600319360112610e025760405181600354610ffc81610e62565b8084529060019081811690811561107e5750600114611025576104168461040a8188038261050a565b60038352602094507fc2575a0e9e593c00f959f8c92f12db2869c3395a3b0502d05e2516446f71f85b5b82841061106b57505050816104169361040a92820101936103fa565b805485850187015292850192810161104f565b610416965061040a9450602092508593915060ff191682840152151560051b820101936103fa565b503461000e57604036600319011261000e576001600160401b0360043581811161000e576110d8903690600401610561565b9060243590811161000e576110f1903690600401610561565b6110fa33611ef9565b61117d576111489060055461113361111061053a565b338152856020820152600a60408201526019606082015260006080820152612253565b3360009081526008602052604090205561242d565b7f81ef79d1cda814a60c0fc60792e648a06d9c6bae67176346d1cc8b63030bfccd604051806111783394826103a7565b0390a2005b60405162461bcd60e51b8152602060048201526019602482015278141b185e595c88185b1c9958591e481c9959da5cdd195c9959603a1b6044820152606490fd5b503461000e57610a586111d0366105c5565b61242d565b503461000e57604036600319011261000e576111ef610223565b602435801515810361000e576001600160a01b03821691338314611277573360009081526001602090815260408083206001600160a01b03909416835292905220611245908260ff801983541691151516179055565b604051901515815233907f17307eab39ab6107e8899845ad3d59bd9653f200f220920489ca2b5937696c3190602090a3005b60405162461bcd60e51b815260206004820152602960248201527f455243313135353a2073657474696e6720617070726f76616c20737461747573604482015268103337b91039b2b63360b91b6064820152608490fd5b6006548110156112ee575b600660005260206000209060021b0190600090565b6112f6610e05565b6112d9565b503461000e57602036600319011261000e5760043560065481101561000e57611326611356916112ce565b5061133081610e9c565b906001810154906003600282015491015490604051948594608086526080860190610382565b926020850152604084015260608301520390f35b503461000e57602036600319011261000e576020610338611389610223565b612102565b503461000e57604036600319011261000e57602060ff6113e06113af610223565b6113b7610239565b6001600160a01b0391821660009081526001865260408082209290931681526020919091522090565b54166040519015158152f35b503461000e57600080600319360112610e0257600590815461140d81610849565b9161141b604051938461050a565b81835260209283810192838684528584208785925b848410611493575050505050604051938085019181865251809252604082818701971b8601019392955b8287106114675785850386f35b909192938280611483600193603f198a82030186528851610c18565b960192019601959291909261145a565b90886001926114a5859b98999b611fc9565b815201920192019190889097959497611430565b503461000e5760a036600319011261000e576114d3610223565b6114db610239565b608435906064356044356001600160401b03841161000e57611504611600943690600401610561565b6001600160a01b0386811696919491903388148015611603575b611527906118ce565b8216611534811515611931565b61153d84611ed4565b5061154785611ed4565b506000848152602081815260408083206001600160a01b0386168452909152812090989086905461157a8282101561198b565b868b528a602052036115a18460408c209060018060a01b0316600052602052604060002090565b556115ba84610627876000526000602052604060002090565b6115c5878254611a00565b9055604080518681526020810188905233917fc3d58168c5ae7397731d063d5bbf3d657854427343f4c083240f7aacaa2d0f6291a433611d42565b80f35b50600088815260016020908152604080832033845290915290205460ff1661151e565b60055481101561165f575b6005600081815291027f036b6384b5eca791c62761152d0c79bb0604c104a5fb6f4eb0703f3154bb3db00191565b611667610e05565b611631565b503461000e57602036600319011261000e5760043560055481101561000e5761169490611626565b5080546001600160a01b03166116ac60018301610e9c565b9160028101549060ff6004600383015492015416906116dd604051958695865260a0602087015260a0860190610382565b9260408501526060840152151560808301520390f35b6001600160a01b03811615611727576000918252602082815260408084206001600160a01b03909316845291905290205490565b60405162461bcd60e51b815260206004820152602a60248201527f455243313135353a2061646472657373207a65726f206973206e6f742061207660448201526930b634b21037bbb732b960b11b6064820152608490fd5b9061178982610849565b611796604051918261050a565b82815280926117a7601f1991610849565b0190602036910137565b50634e487b7160e01b600052601160045260246000fd5b60019060001981146117d8570190565b6117e06117b1565b0190565b60209181518110156117f9575b60051b010190565b611801610e05565b6117f1565b91909180518351036118775761181c815161177f565b9060005b8151811015611870578061185b61184a61183d61186b94866117e4565b516001600160a01b031690565b61185483896117e4565b51906116f3565b61186582866117e4565b526117c8565b611820565b5090925050565b60405162461bcd60e51b815260206004820152602960248201527f455243313135353a206163636f756e747320616e6420696473206c656e677468604482015268040dad2e6dac2e8c6d60bb1b6064820152608490fd5b156118d557565b60405162461bcd60e51b815260206004820152602e60248201527f455243313135353a2063616c6c6572206973206e6f7420746f6b656e206f776e60448201526d195c881bdc88185c1c1c9bdd995960921b6064820152608490fd5b1561193857565b60405162461bcd60e51b815260206004820152602560248201527f455243313135353a207472616e7366657220746f20746865207a65726f206164604482015264647265737360d81b6064820152608490fd5b1561199257565b60405162461bcd60e51b815260206004820152602a60248201527f455243313135353a20696e73756666696369656e742062616c616e636520666f60448201526939103a3930b739b332b960b11b6064820152608490fd5b90600182018092116119f857565b6105386117b1565b919082018092116119f857565b15611a1457565b60405162461bcd60e51b815260206004820152602860248201527f455243313135353a2069647320616e6420616d6f756e7473206c656e677468206044820152670dad2e6dac2e8c6d60c31b6064820152608490fd5b9091611a816103b893604084526040840190610b19565b916020818403910152610b19565b9081602091031261000e57516103b881610293565b6103b8939260a092600180851b03168252600060208301526040820152600160608201528160808201520190610382565b91926103b895949160a094600180871b038092168552166020840152604083015260608201528160808201520190610382565b60809060208152602860208201527f455243313135353a204552433131353552656365697665722072656a656374656040820152676420746f6b656e7360c01b60608201520190565b60009060033d11611b5e57565b905060046000803e60005160e01c90565b600060443d106103b857604051600319913d83016004833e81516001600160401b03918282113d602484011117611bcc57818401948551938411611bd4573d85010160208487010111611bcc57506103b89291016020019061050a565b949350505050565b50949350505050565b92919091823b611bee575b50505050565b611c1592602092600060405180968195829463f23a6e6160e01b9a8b855260048501611aa4565b03926001600160a01b03165af160009181611d12575b50611cea5750506001611c3c611b51565b6308c379a014611cbb575b611c55575b38808080611be8565b60405162461bcd60e51b815260206004820152603460248201527f455243313135353a207472616e7366657220746f206e6f6e2d455243313135356044820152732932b1b2b4bb32b91034b6b83632b6b2b73a32b960611b6064820152608490fd5b0390fd5b611cc3611b6f565b80611cce5750611c47565b60405162461bcd60e51b8152908190611cb790600483016103a7565b6001600160e01b03191614611c4c5760405162461bcd60e51b815280611cb760048201611b08565b611d3491925060203d8111611d3b575b611d2c818361050a565b810190611a8f565b9038611c2b565b503d611d22565b9493919092813b611d56575b505050505050565b6000602094611d7d6040519788968795869463f23a6e6160e01b9c8d875260048701611ad5565b03926001600160a01b03165af160009181611dfa575b50611dd25750506001611da4611b51565b6308c379a014611dbf575b611c55575b388080808080611d4e565b611dc7611b6f565b80611cce5750611daf565b6001600160e01b03191614611db45760405162461bcd60e51b815280611cb760048201611b08565b611e1391925060203d8111611d3b57611d2c818361050a565b9038611d93565b93906103b89593611e4c91611e5a9460018060a01b03809216885216602087015260a0604087015260a0860190610b19565b908482036060860152610b19565b916080818403910152610382565b9493919092813b611e7b57505050505050565b6000602094611d7d6040519788968795869463bc197c8160e01b9c8d875260048701611e1a565b604051611eae816104ef565b600181526001602082016020368237825115611ec8575290565b611ed0610e05565b5290565b60405190611ee1826104ef565b60018252602082016020368237825115611ec8575290565b6001600160a01b038116600081815260086020526040808220549051611fb194938392611f869015611f2a846104ef565b600d84526c6973506c617965722066756e6360981b6020850152604051928391611f6d602084019663324757b560e21b8852606060248601526084850190610382565b916044840152606483015203601f19810183528261050a565b51906a636f6e736f6c652e6c6f675afa506001600160a01b0316600090815260086020526040902090565b54611fbb57600090565b600190565b611fb190610a7d565b90604051611fd6816104b9565b608060ff6004839560018060a01b038154168552611ff660018201610e9c565b602086015260028101546040860152600381015460608601520154161515910152565b6080604051612027816104b9565b600091818380935260606020820152826040820152826060820152015261204d82611ef9565b1561209a57600560206120756103b89460018060a01b03166000526008602052604060002090565b5492825484101561208d575b82815220910201611fc9565b612095610e05565b612081565b60405162461bcd60e51b8152602060048201526015602482015274506c6179657220646f65736e27742065786973742160581b6044820152606490fd5b60038210156106865752565b9060ff6040519254818116845260081c166020830152610538826104ef565b6001600160a01b0316600090815260096020526040902054611fbb57600090565b90601f811161213157505050565b600091825260208220906020601f850160051c8301941061216d575b601f0160051c01915b82811061216257505050565b818155600101612156565b909250829061214d565b91909182516001600160401b038111612246575b61219f816121998454610e62565b84612123565b602080601f83116001146121db5750819293946000926121d0575b50508160011b916000199060031b1c1916179055565b0151905038806121ba565b90601f198316956121f185600052602060002090565b926000905b88821061222e57505083600195969710612215575b505050811b019055565b015160001960f88460031b161c1916905538808061220b565b806001859682949686015181550195019301906121f6565b61224e61047a565b61218b565b60055490600160401b8210156123d4575b612275600192838101600555611626565b9190916123c7575b805182546001600160a01b0319166001600160a01b0391909116178255828201602080830151948551916001600160401b0383116123ba575b6122ca836122c48654610e62565b86612123565b80601f841160011461233c57509282806080946004979461231e976105389b600094612331575b50501b916000199060031b1c19161790555b60408101516002860155606081015160038601550151151590565b91019060ff801983541691151516179055565b0151925038806122f1565b9193949596601f19841661235587600052602060002090565b936000905b8282106123a3575050936105389897936004979361231e9793836080981061238a575b505050811b019055612303565b015160001960f88460031b161c1916905538808061237d565b80888697829497870151815501960194019061235a565b6123c261047a565b6122b6565b6123cf610fc2565b61227d565b6123dc61047a565b612264565b156123e857565b60405162461bcd60e51b815260206004820152601c60248201527f506c6561736520526567697374657220506c61796572204669727374000000006044820152606490fd5b608061243833612019565b01516125965761244a61079333611ef9565b6124526125d3565b5061245c33612875565b61246581612616565b600660ff6124af6124a9604051602081019061249f816107c6334286909160349282526001600160601b03199060601b1660208201520190565b5190206064900690565b60ff1690565b16069160ff831615612561575b61252f7fca8ab07e9ed17d119729fc652dd24df9d8430ca862dda4631925b5b4b99da36293946124ea610547565b90815260ff86169081602082015283604082015284606082015261251060065491612636565b33600090815260096020526040902055612528612774565b9033612793565b61254261253d6004546117c8565b600455565b6040805160ff95909516855260208501919091528301523391606090a2565b61252f61258e7fca8ab07e9ed17d119729fc652dd24df9d8430ca862dda4631925b5b4b99da36294612624565b9350506124bc565b60405162461bcd60e51b8152602060048201526015602482015274506c6179657220697320696e206120626174746c6560581b6044820152606490fd5b60405190608082018281106001600160401b03821117612609575b60405260006060838181528260208201528260408201520152565b61261161047a565b6125ee565b600a0390600a82116119f857565b60ff6001911660ff81146117d8570190565b6006549190600160401b831015612767575b6126596001938481016006556112ce565b91909161275a575b80519384516001600160401b03811161274d575b612683816122c48654610e62565b60209081601f82116001146126dc57908060609594939260039798996000926126d1575b505060001982881b1c191690831b1786555b82015190850155604081015160028501550151910155565b0151905038806126a7565b601f198216906126f187600052602060002090565b9160005b8181106127385750918391600398999a879695606099989510612720575b505050811b0186556126b9565b0151600019838a1b60f8161c19169055388080612713565b8a8301518455928601929185019185016126f5565b61275561047a565b612675565b612762610fc2565b612661565b61276f61047a565b612648565b60405190612781826104ef565b600382526203078360ec1b6020830152565b6001600160a01b038116929190831561282657610538936127b383611ed4565b506127bc611ea2565b506000838152602081815260408083206001600160a01b038616845290915290206127e781546119ea565b9055604080518481526001602082015260009133917fc3d58168c5ae7397731d063d5bbf3d657854427343f4c083240f7aacaa2d0f629190a433611bdd565b60405162461bcd60e51b815260206004820152602160248201527f455243313135353a206d696e7420746f20746865207a65726f206164647265736044820152607360f81b6064820152608490fd5b600a9060405160208101914483524260408301526001600160601b03199060601b166060820152605481526128a9816104d4565b5190200680156128b65790565b50600590565b604090600060a083516128ce81610491565b809483825283602083015260608183015280516128ea816104ef565b8136823760608301528051906128ff826104ef565b36823760808201520152565b1561291257565b60405162461bcd60e51b8152602060048201526016602482015275426174746c6520616c7265616479206578697374732160501b6044820152606490fd5b9060038110156106865760ff80198354169116179055565b9060005b6002811061297957505050565b81516001600160a01b03168184015560209091019060010161296c565b600091825b600281106129a857505055565b9092602060019160ff9081875116918560031b90811b9283911b16911916179401910161299b565b6007546129f090600160401b811015612a8e575b60018101600755610e1c565b612a81575b8151600381101561068657612a6060a061053894612a1560069486612950565b60208101516001860155612a30604082015160028701612177565b612a41606082015160038701612968565b612a52608082015160058701612996565b01516001600160a01b031690565b910180546001600160a01b0319166001600160a01b03909216919091179055565b612a89610fc2565b6129f5565b612a9661047a565b6129e456fea26469706673582212201f116080028a4077b3e09230ae362d8bbab5b411c2dfb949cf8da950e8fc925564736f6c63430008110033405787fa12a823e0f2b7631cc41b3ba8828b3321ca811111fa75cd3aa3bb5ace",
  "linkReferences": {},
  "deployedLinkReferences": {}
}