{
  "_format": "hh-sol-artifact-1",
  "contractName": "MagicalDungeonCreatures",
  "sourceName": "contracts/MagicalDungeonCreatures.sol",
  "abi": [
    {
      "inputs": [
        {
          "internalType": "string",
          "name": "_metadataURI",
          "type": "string"
        }
      ],
      "stateMutability": "nonpayable",
      "type": "constructor"
    },
    {
      "anonymous": false,
      "inputs": [
        {
          "indexed": true,
          "internalType": "address",
          "name": "account",
          "type": "address"
        },
        {
          "indexed": true,
          "internalType": "address",
          "name": "operator",
          "type": "address"
        },
        {
          "indexed": false,
          "internalType": "bool",
          "name": "approved",
          "type": "bool"
        }
      ],
      "name": "ApprovalForAll",
      "type": "event"
    },
    {
      "anonymous": false,
      "inputs": [
        {
          "indexed": true,
          "internalType": "address",
          "name": "owner",
          "type": "address"
        },
        {
          "indexed": false,
          "internalType": "uint256",
          "name": "id",
          "type": "uint256"
        },
        {
          "indexed": false,
          "internalType": "uint256",
          "name": "attackStrength",
          "type": "uint256"
        },
        {
          "indexed": false,
          "internalType": "uint256",
          "name": "defenseStrength",
          "type": "uint256"
        }
      ],
      "name": "NewGameToken",
      "type": "event"
    },
    {
      "anonymous": false,
      "inputs": [
        {
          "indexed": true,
          "internalType": "address",
          "name": "owner",
          "type": "address"
        },
        {
          "indexed": false,
          "internalType": "string",
          "name": "name",
          "type": "string"
        }
      ],
      "name": "NewPlayer",
      "type": "event"
    },
    {
      "anonymous": false,
      "inputs": [
        {
          "indexed": true,
          "internalType": "address",
          "name": "operator",
          "type": "address"
        },
        {
          "indexed": true,
          "internalType": "address",
          "name": "from",
          "type": "address"
        },
        {
          "indexed": true,
          "internalType": "address",
          "name": "to",
          "type": "address"
        },
        {
          "indexed": false,
          "internalType": "uint256[]",
          "name": "ids",
          "type": "uint256[]"
        },
        {
          "indexed": false,
          "internalType": "uint256[]",
          "name": "values",
          "type": "uint256[]"
        }
      ],
      "name": "TransferBatch",
      "type": "event"
    },
    {
      "anonymous": false,
      "inputs": [
        {
          "indexed": true,
          "internalType": "address",
          "name": "operator",
          "type": "address"
        },
        {
          "indexed": true,
          "internalType": "address",
          "name": "from",
          "type": "address"
        },
        {
          "indexed": true,
          "internalType": "address",
          "name": "to",
          "type": "address"
        },
        {
          "indexed": false,
          "internalType": "uint256",
          "name": "id",
          "type": "uint256"
        },
        {
          "indexed": false,
          "internalType": "uint256",
          "name": "value",
          "type": "uint256"
        }
      ],
      "name": "TransferSingle",
      "type": "event"
    },
    {
      "anonymous": false,
      "inputs": [
        {
          "indexed": false,
          "internalType": "string",
          "name": "value",
          "type": "string"
        },
        {
          "indexed": true,
          "internalType": "uint256",
          "name": "id",
          "type": "uint256"
        }
      ],
      "name": "URI",
      "type": "event"
    },
    {
      "inputs": [],
      "name": "MAX_ATTACK_DEFEND_STRENGTH",
      "outputs": [
        {
          "internalType": "uint256",
          "name": "",
          "type": "uint256"
        }
      ],
      "stateMutability": "view",
      "type": "function"
    },
    {
      "inputs": [
        {
          "internalType": "address",
          "name": "account",
          "type": "address"
        },
        {
          "internalType": "uint256",
          "name": "id",
          "type": "uint256"
        }
      ],
      "name": "balanceOf",
      "outputs": [
        {
          "internalType": "uint256",
          "name": "",
          "type": "uint256"
        }
      ],
      "stateMutability": "view",
      "type": "function"
    },
    {
      "inputs": [
        {
          "internalType": "address[]",
          "name": "accounts",
          "type": "address[]"
        },
        {
          "internalType": "uint256[]",
          "name": "ids",
          "type": "uint256[]"
        }
      ],
      "name": "balanceOfBatch",
      "outputs": [
        {
          "internalType": "uint256[]",
          "name": "",
          "type": "uint256[]"
        }
      ],
      "stateMutability": "view",
      "type": "function"
    },
    {
      "inputs": [],
      "name": "baseURI",
      "outputs": [
        {
          "internalType": "string",
          "name": "",
          "type": "string"
        }
      ],
      "stateMutability": "view",
      "type": "function"
    },
    {
      "inputs": [
        {
          "internalType": "string",
          "name": "_name",
          "type": "string"
        }
      ],
      "name": "createRandomGameToken",
      "outputs": [],
      "stateMutability": "nonpayable",
      "type": "function"
    },
    {
      "inputs": [
        {
          "internalType": "uint256",
          "name": "",
          "type": "uint256"
        }
      ],
      "name": "gameTokens",
      "outputs": [
        {
          "internalType": "string",
          "name": "name",
          "type": "string"
        },
        {
          "internalType": "uint256",
          "name": "id",
          "type": "uint256"
        },
        {
          "internalType": "uint256",
          "name": "attackStrength",
          "type": "uint256"
        },
        {
          "internalType": "uint256",
          "name": "defenseStrength",
          "type": "uint256"
        }
      ],
      "stateMutability": "view",
      "type": "function"
    },
    {
      "inputs": [
        {
          "internalType": "address",
          "name": "addr",
          "type": "address"
        }
      ],
      "name": "getPlayer",
      "outputs": [
        {
          "components": [
            {
              "internalType": "address",
              "name": "playerAddress",
              "type": "address"
            },
            {
              "internalType": "string",
              "name": "playerName",
              "type": "string"
            },
            {
              "internalType": "uint256",
              "name": "playerMana",
              "type": "uint256"
            },
            {
              "internalType": "uint256",
              "name": "playerHealth",
              "type": "uint256"
            },
            {
              "internalType": "bool",
              "name": "inBattle",
              "type": "bool"
            }
          ],
          "internalType": "struct MagicalDungeonCreatures.Player",
          "name": "",
          "type": "tuple"
        }
      ],
      "stateMutability": "view",
      "type": "function"
    },
    {
      "inputs": [
        {
          "internalType": "address",
          "name": "account",
          "type": "address"
        },
        {
          "internalType": "address",
          "name": "operator",
          "type": "address"
        }
      ],
      "name": "isApprovedForAll",
      "outputs": [
        {
          "internalType": "bool",
          "name": "",
          "type": "bool"
        }
      ],
      "stateMutability": "view",
      "type": "function"
    },
    {
      "inputs": [
        {
          "internalType": "address",
          "name": "addr",
          "type": "address"
        }
      ],
      "name": "isPlayer",
      "outputs": [
        {
          "internalType": "bool",
          "name": "",
          "type": "bool"
        }
      ],
      "stateMutability": "view",
      "type": "function"
    },
    {
      "inputs": [
        {
          "internalType": "address",
          "name": "",
          "type": "address"
        }
      ],
      "name": "playerInfo",
      "outputs": [
        {
          "internalType": "uint256",
          "name": "",
          "type": "uint256"
        }
      ],
      "stateMutability": "view",
      "type": "function"
    },
    {
      "inputs": [
        {
          "internalType": "address",
          "name": "",
          "type": "address"
        }
      ],
      "name": "playerTokenInfo",
      "outputs": [
        {
          "internalType": "uint256",
          "name": "",
          "type": "uint256"
        }
      ],
      "stateMutability": "view",
      "type": "function"
    },
    {
      "inputs": [
        {
          "internalType": "uint256",
          "name": "",
          "type": "uint256"
        }
      ],
      "name": "players",
      "outputs": [
        {
          "internalType": "address",
          "name": "playerAddress",
          "type": "address"
        },
        {
          "internalType": "string",
          "name": "playerName",
          "type": "string"
        },
        {
          "internalType": "uint256",
          "name": "playerMana",
          "type": "uint256"
        },
        {
          "internalType": "uint256",
          "name": "playerHealth",
          "type": "uint256"
        },
        {
          "internalType": "bool",
          "name": "inBattle",
          "type": "bool"
        }
      ],
      "stateMutability": "view",
      "type": "function"
    },
    {
      "inputs": [
        {
          "internalType": "string",
          "name": "_name",
          "type": "string"
        },
        {
          "internalType": "string",
          "name": "_gameTokenName",
          "type": "string"
        }
      ],
      "name": "registerPlayer",
      "outputs": [],
      "stateMutability": "nonpayable",
      "type": "function"
    },
    {
      "inputs": [
        {
          "internalType": "address",
          "name": "from",
          "type": "address"
        },
        {
          "internalType": "address",
          "name": "to",
          "type": "address"
        },
        {
          "internalType": "uint256[]",
          "name": "ids",
          "type": "uint256[]"
        },
        {
          "internalType": "uint256[]",
          "name": "amounts",
          "type": "uint256[]"
        },
        {
          "internalType": "bytes",
          "name": "data",
          "type": "bytes"
        }
      ],
      "name": "safeBatchTransferFrom",
      "outputs": [],
      "stateMutability": "nonpayable",
      "type": "function"
    },
    {
      "inputs": [
        {
          "internalType": "address",
          "name": "from",
          "type": "address"
        },
        {
          "internalType": "address",
          "name": "to",
          "type": "address"
        },
        {
          "internalType": "uint256",
          "name": "id",
          "type": "uint256"
        },
        {
          "internalType": "uint256",
          "name": "amount",
          "type": "uint256"
        },
        {
          "internalType": "bytes",
          "name": "data",
          "type": "bytes"
        }
      ],
      "name": "safeTransferFrom",
      "outputs": [],
      "stateMutability": "nonpayable",
      "type": "function"
    },
    {
      "inputs": [
        {
          "internalType": "address",
          "name": "operator",
          "type": "address"
        },
        {
          "internalType": "bool",
          "name": "approved",
          "type": "bool"
        }
      ],
      "name": "setApprovalForAll",
      "outputs": [],
      "stateMutability": "nonpayable",
      "type": "function"
    },
    {
      "inputs": [
        {
          "internalType": "bytes4",
          "name": "interfaceId",
          "type": "bytes4"
        }
      ],
      "name": "supportsInterface",
      "outputs": [
        {
          "internalType": "bool",
          "name": "",
          "type": "bool"
        }
      ],
      "stateMutability": "view",
      "type": "function"
    },
    {
      "inputs": [],
      "name": "totalSupply",
      "outputs": [
        {
          "internalType": "uint256",
          "name": "",
          "type": "uint256"
        }
      ],
      "stateMutability": "view",
      "type": "function"
    },
    {
      "inputs": [
        {
          "internalType": "uint256",
          "name": "",
          "type": "uint256"
        }
      ],
      "name": "uri",
      "outputs": [
        {
          "internalType": "string",
          "name": "",
          "type": "string"
        }
      ],
      "stateMutability": "view",
      "type": "function"
    }
  ],
  "bytecode": "0x608060405234620003335762002180803803806200001d8162000338565b92833981016020918281830312620003335780516001600160401b039182821162000333570191601f81818501121562000333578351938385116200024257601f1994620000718382018716880162000338565b938185528782840101116200033357869160005b8281106200031f57505090600091840101528151918383116200024257600254926001938481811c9116801562000314575b888210146200022157838111620002c8575b508087848211600114620002645760009162000258575b50600019600383901b1c191690841b176002555b8051938411620002425760039586548481811c9116801562000237575b828210146200022157838111620001d6575b50809285116001146200016e57508394509083929160009462000162575b50501b9160001990841b1c19161790555b604051611e2190816200035f8239f35b01519250388062000141565b9294849081168760005284600020946000905b88838310620001bb5750505010620001a2575b505050811b01905562000152565b015160001983861b60f8161c1916905538808062000194565b85870151885590960195948501948793509081019062000181565b87600052816000208480880160051c82019284891062000217575b0160051c019085905b8281106200020a57505062000123565b60008155018590620001fa565b92508192620001f1565b634e487b7160e01b600052602260045260246000fd5b90607f169062000111565b634e487b7160e01b600052604160045260246000fd5b905082015138620000e0565b87869316906002600052896000209160005b8b828210620002b1575050831162000297575b5050811b01600255620000f4565b84015160001960f88460031b161c19169055388062000289565b838801518555899690940193928301920162000276565b6002600052876000208480840160051c8201928a85106200030a575b0160051c019085905b828110620002fd575050620000c9565b60008155018590620002ed565b92508192620002e4565b90607f1690620000b7565b818101840151868201850152830162000085565b600080fd5b6040519190601f01601f191682016001600160401b03811183821017620002425760405256fe6080604052600436101561001257600080fd5b60003560e01c8062fdd58e1461115757806301ffc9a7146110e957806309c95e10146110bc5780630daea2cd146110a05780630e89341c14610fdb57806318160ddd14610fbd5780632711162e14610f835780632eb2c2d614610c505780634b11469114610c165780634e1273f414610a785780635c12cd4b14610a035780636c0360eb1461091d578063845f433b146106415780639ec40aa314610609578063a22cb4651461051c578063bf034b691461048d578063e985e9c514610437578063f242432a1461017b5763f71d96cb146100ec57600080fd5b34610176576020366003190112610176576004356005548110156101765760056000526005602060002091020160018060a01b0381541661012f6001830161139d565b9160028101549060ff600460038301549201541690610160604051958695865260a0602087015260a08601906111b2565b9260408501526060840152151560808301520390f35b600080fd5b346101765760a036600319011261017657610194611186565b61019c61119c565b906064356044356084356001600160401b038111610176576101c29036906004016112d9565b6001600160a01b0393841693338514801561040e575b6101e19061155c565b85166101ee8115156115bf565b6101f78361177d565b506102018461177d565b50826000526020956000875260406000208660005287528460406000205461022b82821015611619565b8560005260008952604060002088600052895203604060002055836000526000875260406000208260005287526040600020610268868254611678565b90558186604051868152878a8201527fc3d58168c5ae7397731d063d5bbf3d657854427343f4c083240f7aacaa2d0f6260403392a43b6102a457005b6102e893600087946040519687958694859363f23a6e6160e01b9b8c865233600487015260248601526044850152606484015260a0608484015260a48301906111b2565b03925af1600091816103df575b506103b55750506001906103076116ee565b6308c379a014610380575b5061031a575b005b60405162461bcd60e51b815260206004820152603460248201527f455243313135353a207472616e7366657220746f206e6f6e2d455243313135356044820152732932b1b2b4bb32b91034b6b83632b6b2b73a32b960611b6064820152608490fd5b0390fd5b61038861170c565b90816103945750610312565b61037c60405192839262461bcd60e51b8452600484015260248301906111b2565b6001600160e01b0319161490506103185760405162461bcd60e51b81528061037c600482016116a5565b610400919250843d8611610407575b6103f88183611243565b810190611685565b90846102f5565b503d6103ee565b508460005260016020526040600020336000526020526101e160ff6040600020541690506101d8565b3461017657604036600319011261017657610450611186565b61045861119c565b9060018060a01b03809116600052600160205260406000209116600052602052602060ff604060002054166040519015158152f35b34610176576020366003190112610176576004356006548110156101765760066000526105089060021b7ff652222313e28459528d920b65115c16c04f3efc82aaedc97be59f3f377c0d3f016104e28161139d565b9060018101549060036002820154910154906040519485946080865260808601906111b2565b926020850152604084015260608301520390f35b3461017657604036600319011261017657610535611186565b6024359081151590818303610176576001600160a01b0316913383146105b2576105849033600052600160205260406000208460005260205260406000209060ff801983541691151516179055565b6040519081527f17307eab39ab6107e8899845ad3d59bd9653f200f220920489ca2b5937696c3160203392a3005b60405162461bcd60e51b815260206004820152602960248201527f455243313135353a2073657474696e6720617070726f76616c20737461747573604482015268103337b91039b2b63360b91b6064820152608490fd5b34610176576020366003190112610176576004356001600160401b0381116101765761063c6103189136906004016112d9565b6118a6565b34610176576040366003190112610176576001600160401b03600435818111610176576106729036906004016112d9565b6024358281116101765761068a9036906004016112d9565b610693336117a2565b6108dc576005546040516106a6816111f2565b33815260208101848152600a6040830152601960608301526000608083015290600160401b8310156108b057600183016005556106e283611443565b9290926108c657815183546001600160a01b0319166001600160a01b0391909116178355518051909681116108b05761071e6001840154611363565b601f8111610869575b506020601f82116001146107ed576107919392826004936080936107a59a9b6000926107e2575b50508160011b916000199060031b1c19161760018501555b60408101516002850155606081015160038501550151151591019060ff801983541691151516179055565b3360005260076020526040600020556118a6565b7f81ef79d1cda814a60c0fc60792e648a06d9c6bae67176346d1cc8b63030bfccd60405160208152806107dd339460208301906111b2565b0390a2005b015190508b8061074e565b6001840160005260206000209760005b601f19841681106108515750926001836107a5999a6080946107919897600497601f19811610610838575b505050811b016001850155610766565b015160001960f88460031b161c191690558b8080610828565b828201518a55600190990198602092830192016107fd565b600184016000526020600020601f830160051c8101602084106108a9575b601f830160051c8201811061089d575050610727565b60008155600101610887565b5080610887565b634e487b7160e01b600052604160045260246000fd5b634e487b7160e01b600052600060045260246000fd5b60405162461bcd60e51b8152602060048201526019602482015278141b185e595c88185b1c9958591e481c9959da5cdd195c9959603a1b6044820152606490fd5b346101765760003660031901126101765760405160009060035461094081611363565b8083526001918083169081156109db5750600114610981575b61097d8361096981870382611243565b6040519182916020835260208301906111b2565b0390f35b6003600090815260209450917fc2575a0e9e593c00f959f8c92f12db2869c3395a3b0502d05e2516446f71f85b5b8284106109c85750505081019091019061096981610959565b80548585018701529285019281016109af565b61097d955061096993506020915091849260ff191682840152151560051b8201019350610959565b3461017657602036600319011261017657610a24610a1f611186565b6117c8565b60405180916020825260018060a01b0381511660208301526080610a57602083015160a0604086015260c08501906111b2565b91604081015160608501526060810151828501520151151560a08301520390f35b34610176576040366003190112610176576004356001600160401b03808211610176573660238301121561017657816004013590610ab582611264565b92610ac36040519485611243565b82845260209260248486019160051b8301019136831161017657602401905b828210610bf75750505060243590811161017657610b0490369060040161127b565b8251815103610ba057825192610b1984611264565b93610b276040519586611243565b808552610b36601f1991611264565b01368486013760005b8151811015610b8957610b8490610b746001600160a01b03610b618386611548565b5116610b6d8387611548565b5190611491565b610b7e8288611548565b52611516565b610b3f565b50505061097d60405192828493845283019061132f565b60405162461bcd60e51b815260048101839052602960248201527f455243313135353a206163636f756e747320616e6420696473206c656e677468604482015268040dad2e6dac2e8c6d60bb1b6064820152608490fd5b81356001600160a01b0381168103610176578152908401908401610ae2565b34610176576020366003190112610176576001600160a01b03610c37611186565b1660005260076020526020604060002054604051908152f35b346101765760031960a03682011261017657610c6a611186565b90610c7361119c565b906001600160401b039060443582811161017657610c9590369060040161127b565b60643583811161017657610cad90369060040161127b565b9260843590811161017657610cc69036906004016112d9565b6001600160a01b03958616959092903387148015610f5a575b610ce89061155c565b8251855103610f0457851692610cff8415156115bf565b60005b8351811015610d985780610d19610d939286611548565b51610d248289611548565b5190806000526020906000825260406000208c600052825282604060002054610d4f82821015611619565b82600052600084528d604060002090600052845203604060002055600052600081526040600020908860005252610d8c6040600020918254611678565b9055611516565b610d02565b509094939291938287604051604081527f4a39dc06d4c0dbc64b70af90fd698a233a518aa5d07e595d983b8c0526c8f7fb610dd6604083018a61132f565b91808303602082015280610deb33948b61132f565b0390a43b610df557005b6000602094610e56610e4797610e3794604051998a988997889663bc197c8160e01b9e8f89523360048a0152602489015260a0604489015260a488019061132f565b908487830301606488015261132f565b918483030160848501526111b2565b03925af160009181610ee4575b50610ebc5750506001610e746116ee565b6308c379a014610e85575b61031a57005b610e8d61170c565b80610e985750610e7f565b60405162461bcd60e51b81526020600482015290819061037c9060248301906111b2565b6001600160e01b031916146103185760405162461bcd60e51b81528061037c600482016116a5565b610efd91925060203d8111610407576103f88183611243565b9083610e63565b60405162461bcd60e51b815260206004820152602860248201527f455243313135353a2069647320616e6420616d6f756e7473206c656e677468206044820152670dad2e6dac2e8c6d60c31b6064820152608490fd5b50866000526001602052604060002033600052602052610ce860ff604060002054169050610cdf565b34610176576020366003190112610176576001600160a01b03610fa4611186565b1660005260086020526020604060002054604051908152f35b34610176576000366003190112610176576020600454604051908152f35b346101765760208060031936011261017657604051906000826002549161100183611363565b92838352600190858282169182600014611080575050600114611040575b5061102c92500383611243565b61097d6040519282849384528301906111b2565b849150600260005281600020906000915b85831061106857505061102c93508201018561101f565b80548389018501528794508693909201918101611051565b60ff19168582015261102c95151560051b850101925087915061101f9050565b34610176576000366003190112610176576020604051600a8152f35b346101765760203660031901126101765760206110df6110da611186565b6117a2565b6040519015158152f35b346101765760203660031901126101765760043563ffffffff60e01b811680910361017657602090636cdb3d1360e11b8114908115611146575b8115611135575b506040519015158152f35b6301ffc9a760e01b1490508261112a565b6303a24d0760e21b81149150611123565b3461017657604036600319011261017657602061117e611175611186565b60243590611491565b604051908152f35b600435906001600160a01b038216820361017657565b602435906001600160a01b038216820361017657565b919082519283825260005b8481106111de575050826000602080949584010152601f8019910116010190565b6020818301810151848301820152016111bd565b60a081019081106001600160401b038211176108b057604052565b608081019081106001600160401b038211176108b057604052565b604081019081106001600160401b038211176108b057604052565b90601f801991011681019081106001600160401b038211176108b057604052565b6001600160401b0381116108b05760051b60200190565b81601f820112156101765780359161129283611264565b926112a06040519485611243565b808452602092838086019260051b820101928311610176578301905b8282106112ca575050505090565b813581529083019083016112bc565b81601f82011215610176578035906001600160401b0382116108b0576040519261130d601f8401601f191660200185611243565b8284526020838301011161017657816000926020809301838601378301015290565b90815180825260208080930193019160005b82811061134f575050505090565b835185529381019392810192600101611341565b90600182811c92168015611393575b602083101461137d57565b634e487b7160e01b600052602260045260246000fd5b91607f1691611372565b90604051918260008254926113b184611363565b90818452600194858116908160001461142057506001146113dd575b50506113db92500383611243565b565b9093915060005260209081600020936000915b8183106114085750506113db935082010138806113cd565b855488840185015294850194879450918301916113f0565b9150506113db94506020925060ff191682840152151560051b82010138806113cd565b60055481101561147b576005600081815291027f036b6384b5eca791c62761152d0c79bb0604c104a5fb6f4eb0703f3154bb3db00191565b634e487b7160e01b600052603260045260246000fd5b6001600160a01b03169081156114be57600052600060205260406000209060005260205260406000205490565b60405162461bcd60e51b815260206004820152602a60248201527f455243313135353a2061646472657373207a65726f206973206e6f742061207660448201526930b634b21037bbb732b960b11b6064820152608490fd5b60001981146115255760010190565b634e487b7160e01b600052601160045260246000fd5b80511561147b5760200190565b805182101561147b5760209160051b010190565b1561156357565b60405162461bcd60e51b815260206004820152602e60248201527f455243313135353a2063616c6c6572206973206e6f7420746f6b656e206f776e60448201526d195c881bdc88185c1c1c9bdd995960921b6064820152608490fd5b156115c657565b60405162461bcd60e51b815260206004820152602560248201527f455243313135353a207472616e7366657220746f20746865207a65726f206164604482015264647265737360d81b6064820152608490fd5b1561162057565b60405162461bcd60e51b815260206004820152602a60248201527f455243313135353a20696e73756666696369656e742062616c616e636520666f60448201526939103a3930b739b332b960b11b6064820152608490fd5b9190820180921161152557565b9081602091031261017657516001600160e01b0319811681036101765790565b60809060208152602860208201527f455243313135353a204552433131353552656365697665722072656a656374656040820152676420746f6b656e7360c01b60608201520190565b60009060033d116116fb57565b905060046000803e60005160e01c90565b600060443d1061176957604051600319913d83016004833e81516001600160401b03918282113d60248401111761176c57818401948551938411611774573d8501016020848701011161176c575061176992910160200190611243565b90565b949350505050565b50949350505050565b6040519061178a82611228565b600182526020368184013761179e8261153b565b5290565b6001600160a01b03166000908152600760205260409020546117c357600090565b600190565b6040608081516117d7816111f2565b600091818380935260606020820152828582015282606082015201526117fc836117a2565b1561186a576001600160a01b03928316815260076020528190205460ff9160049161182690611443565b5090805194611834866111f2565b82541685526118456001830161139d565b6020860152600282015490850152600381015460608501520154161515608082015290565b815162461bcd60e51b8152602060048201526015602482015274506c6179657220646f65736e27742065786973742160581b6044820152606490fd5b60806118b1336117c8565b0151611dae576118c0336117a2565b15611d6957600060606040516118d58161120d565b8181528260208201528260408201520152604051600a602082014481524260408401523360601b92836060820152605481526119108161120d565b51902006908115611d60575b600a8281031161152557604051602081019142835260408201526034815260608101906001600160401b0392818310848411176108b05760ff606460069285604052845190200616069460ff86168015611d4b575b5061197b8361120d565b825260ff851660808201528360a082015283600a0360c082015260065492600160401b8410156108b057600184018060065584101561147b5760066000526020600020925180519182116108b0576119d88560021b850154611363565b601f8111611d02575b50602090601f8311600114611c8c5791806003949260c094600092611c81575b50508160011b9160001990861b1c1916178560021b8501555b608081015160018660021b8601015560a0810151600286811b860101550151918360021b010155336000526008602052604060002055604051611a5c81611228565b600381526203078360ec1b60208201523315611c3257611a7e60ff841661177d565b506001611a9f604051611a9081611228565b8281526020368183013761153b565b5260ff83166000526000602052604060002033600052602052604060002080549060018201809211611525575560405160ff8416815260016020820152600033917fc3d58168c5ae7397731d063d5bbf3d657854427343f4c083240f7aacaa2d0f6260403392a4333b611b5b575b50611b19600454611516565b60045560ff60405192168252806020830152600a0360408201527fca8ab07e9ed17d119729fc652dd24df9d8430ca862dda4631925b5b4b99da36260603392a2565b60405160208180611b9f63f23a6e6160e01b958683523360048401526000602484015260ff891660448401526001606484015260a0608484015260a48301906111b2565b03816000335af160009181611c11575b50611be95750506001611bc06116ee565b6308c379a014611bd6575b61031a575b38611b0d565b611bde61170c565b80610e985750611bcb565b6001600160e01b03191614611bd05760405162461bcd60e51b81528061037c600482016116a5565b611c2b91925060203d602011610407576103f88183611243565b9038611baf565b60405162461bcd60e51b815260206004820152602160248201527f455243313135353a206d696e7420746f20746865207a65726f206164647265736044820152607360f81b6064820152608490fd5b015190503880611a01565b90601f198316918660021b860160005260206000209260005b818110611cea575092600192859260c0966003989610611cd2575b505050811b018560021b850155611a1a565b015160001983881b60f8161c19169055388080611cc0565b92936020600181928786015181550195019301611ca5565b8560021b85016000526020600020601f840160051c810160208510611d44575b601f830160051c82018110611d385750506119e1565b60008155600101611d22565b5080611d22565b90955060ff8114611525576001019438611971565b6005915061191c565b60405162461bcd60e51b815260206004820152601c60248201527f506c6561736520526567697374657220506c61796572204669727374000000006044820152606490fd5b60405162461bcd60e51b8152602060048201526015602482015274506c6179657220697320696e206120626174746c6560581b6044820152606490fdfea2646970667358221220c76470b80f2c700335de7081797f5011ffefd389f5a35a468aa75f4558fc9f6e64736f6c63430008110033",
  "linkReferences": {},
  "deployedLinkReferences": {}
}