{
  "_format": "hh-sol-artifact-1",
  "contractName": "MagicalDungeonCreatures",
  "sourceName": "contracts/MagicalDungeonCreatures.sol",
  "abi": [
    {
      "inputs": [
        {
          "internalType": "string",
          "name": "_metadataURI",
          "type": "string"
        }
      ],
      "stateMutability": "nonpayable",
      "type": "constructor"
    },
    {
      "anonymous": false,
      "inputs": [
        {
          "indexed": true,
          "internalType": "address",
          "name": "account",
          "type": "address"
        },
        {
          "indexed": true,
          "internalType": "address",
          "name": "operator",
          "type": "address"
        },
        {
          "indexed": false,
          "internalType": "bool",
          "name": "approved",
          "type": "bool"
        }
      ],
      "name": "ApprovalForAll",
      "type": "event"
    },
    {
      "anonymous": false,
      "inputs": [
        {
          "indexed": true,
          "internalType": "address",
          "name": "owner",
          "type": "address"
        },
        {
          "indexed": false,
          "internalType": "uint256",
          "name": "id",
          "type": "uint256"
        },
        {
          "indexed": false,
          "internalType": "uint256",
          "name": "attackStrength",
          "type": "uint256"
        },
        {
          "indexed": false,
          "internalType": "uint256",
          "name": "defenseStrength",
          "type": "uint256"
        }
      ],
      "name": "NewGameToken",
      "type": "event"
    },
    {
      "anonymous": false,
      "inputs": [
        {
          "indexed": true,
          "internalType": "address",
          "name": "owner",
          "type": "address"
        },
        {
          "indexed": false,
          "internalType": "string",
          "name": "name",
          "type": "string"
        }
      ],
      "name": "NewPlayer",
      "type": "event"
    },
    {
      "anonymous": false,
      "inputs": [
        {
          "indexed": true,
          "internalType": "address",
          "name": "operator",
          "type": "address"
        },
        {
          "indexed": true,
          "internalType": "address",
          "name": "from",
          "type": "address"
        },
        {
          "indexed": true,
          "internalType": "address",
          "name": "to",
          "type": "address"
        },
        {
          "indexed": false,
          "internalType": "uint256[]",
          "name": "ids",
          "type": "uint256[]"
        },
        {
          "indexed": false,
          "internalType": "uint256[]",
          "name": "values",
          "type": "uint256[]"
        }
      ],
      "name": "TransferBatch",
      "type": "event"
    },
    {
      "anonymous": false,
      "inputs": [
        {
          "indexed": true,
          "internalType": "address",
          "name": "operator",
          "type": "address"
        },
        {
          "indexed": true,
          "internalType": "address",
          "name": "from",
          "type": "address"
        },
        {
          "indexed": true,
          "internalType": "address",
          "name": "to",
          "type": "address"
        },
        {
          "indexed": false,
          "internalType": "uint256",
          "name": "id",
          "type": "uint256"
        },
        {
          "indexed": false,
          "internalType": "uint256",
          "name": "value",
          "type": "uint256"
        }
      ],
      "name": "TransferSingle",
      "type": "event"
    },
    {
      "anonymous": false,
      "inputs": [
        {
          "indexed": false,
          "internalType": "string",
          "name": "value",
          "type": "string"
        },
        {
          "indexed": true,
          "internalType": "uint256",
          "name": "id",
          "type": "uint256"
        }
      ],
      "name": "URI",
      "type": "event"
    },
    {
      "inputs": [],
      "name": "MAX_ATTACK_DEFEND_STRENGTH",
      "outputs": [
        {
          "internalType": "uint256",
          "name": "",
          "type": "uint256"
        }
      ],
      "stateMutability": "view",
      "type": "function"
    },
    {
      "inputs": [
        {
          "internalType": "address",
          "name": "account",
          "type": "address"
        },
        {
          "internalType": "uint256",
          "name": "id",
          "type": "uint256"
        }
      ],
      "name": "balanceOf",
      "outputs": [
        {
          "internalType": "uint256",
          "name": "",
          "type": "uint256"
        }
      ],
      "stateMutability": "view",
      "type": "function"
    },
    {
      "inputs": [
        {
          "internalType": "address[]",
          "name": "accounts",
          "type": "address[]"
        },
        {
          "internalType": "uint256[]",
          "name": "ids",
          "type": "uint256[]"
        }
      ],
      "name": "balanceOfBatch",
      "outputs": [
        {
          "internalType": "uint256[]",
          "name": "",
          "type": "uint256[]"
        }
      ],
      "stateMutability": "view",
      "type": "function"
    },
    {
      "inputs": [],
      "name": "baseURI",
      "outputs": [
        {
          "internalType": "string",
          "name": "",
          "type": "string"
        }
      ],
      "stateMutability": "view",
      "type": "function"
    },
    {
      "inputs": [
        {
          "internalType": "string",
          "name": "_name",
          "type": "string"
        }
      ],
      "name": "createRandomGameToken",
      "outputs": [],
      "stateMutability": "nonpayable",
      "type": "function"
    },
    {
      "inputs": [
        {
          "internalType": "uint256",
          "name": "",
          "type": "uint256"
        }
      ],
      "name": "gameTokens",
      "outputs": [
        {
          "internalType": "string",
          "name": "name",
          "type": "string"
        },
        {
          "internalType": "uint256",
          "name": "id",
          "type": "uint256"
        },
        {
          "internalType": "uint256",
          "name": "attackStrength",
          "type": "uint256"
        },
        {
          "internalType": "uint256",
          "name": "defenseStrength",
          "type": "uint256"
        }
      ],
      "stateMutability": "view",
      "type": "function"
    },
    {
      "inputs": [],
      "name": "getAllPlayers",
      "outputs": [
        {
          "components": [
            {
              "internalType": "address",
              "name": "playerAddress",
              "type": "address"
            },
            {
              "internalType": "string",
              "name": "playerName",
              "type": "string"
            },
            {
              "internalType": "uint256",
              "name": "playerMana",
              "type": "uint256"
            },
            {
              "internalType": "uint256",
              "name": "playerHealth",
              "type": "uint256"
            },
            {
              "internalType": "bool",
              "name": "inBattle",
              "type": "bool"
            }
          ],
          "internalType": "struct MagicalDungeonCreatures.Player[]",
          "name": "",
          "type": "tuple[]"
        }
      ],
      "stateMutability": "view",
      "type": "function"
    },
    {
      "inputs": [
        {
          "internalType": "address",
          "name": "addr",
          "type": "address"
        }
      ],
      "name": "getPlayer",
      "outputs": [
        {
          "components": [
            {
              "internalType": "address",
              "name": "playerAddress",
              "type": "address"
            },
            {
              "internalType": "string",
              "name": "playerName",
              "type": "string"
            },
            {
              "internalType": "uint256",
              "name": "playerMana",
              "type": "uint256"
            },
            {
              "internalType": "uint256",
              "name": "playerHealth",
              "type": "uint256"
            },
            {
              "internalType": "bool",
              "name": "inBattle",
              "type": "bool"
            }
          ],
          "internalType": "struct MagicalDungeonCreatures.Player",
          "name": "",
          "type": "tuple"
        }
      ],
      "stateMutability": "view",
      "type": "function"
    },
    {
      "inputs": [
        {
          "internalType": "address",
          "name": "account",
          "type": "address"
        },
        {
          "internalType": "address",
          "name": "operator",
          "type": "address"
        }
      ],
      "name": "isApprovedForAll",
      "outputs": [
        {
          "internalType": "bool",
          "name": "",
          "type": "bool"
        }
      ],
      "stateMutability": "view",
      "type": "function"
    },
    {
      "inputs": [
        {
          "internalType": "address",
          "name": "addr",
          "type": "address"
        }
      ],
      "name": "isPlayer",
      "outputs": [
        {
          "internalType": "bool",
          "name": "",
          "type": "bool"
        }
      ],
      "stateMutability": "view",
      "type": "function"
    },
    {
      "inputs": [
        {
          "internalType": "address",
          "name": "addr",
          "type": "address"
        }
      ],
      "name": "isPlayerToken",
      "outputs": [
        {
          "internalType": "bool",
          "name": "",
          "type": "bool"
        }
      ],
      "stateMutability": "view",
      "type": "function"
    },
    {
      "inputs": [
        {
          "internalType": "address",
          "name": "",
          "type": "address"
        }
      ],
      "name": "playerInfo",
      "outputs": [
        {
          "internalType": "uint256",
          "name": "",
          "type": "uint256"
        }
      ],
      "stateMutability": "view",
      "type": "function"
    },
    {
      "inputs": [
        {
          "internalType": "address",
          "name": "",
          "type": "address"
        }
      ],
      "name": "playerTokenInfo",
      "outputs": [
        {
          "internalType": "uint256",
          "name": "",
          "type": "uint256"
        }
      ],
      "stateMutability": "view",
      "type": "function"
    },
    {
      "inputs": [
        {
          "internalType": "uint256",
          "name": "",
          "type": "uint256"
        }
      ],
      "name": "players",
      "outputs": [
        {
          "internalType": "address",
          "name": "playerAddress",
          "type": "address"
        },
        {
          "internalType": "string",
          "name": "playerName",
          "type": "string"
        },
        {
          "internalType": "uint256",
          "name": "playerMana",
          "type": "uint256"
        },
        {
          "internalType": "uint256",
          "name": "playerHealth",
          "type": "uint256"
        },
        {
          "internalType": "bool",
          "name": "inBattle",
          "type": "bool"
        }
      ],
      "stateMutability": "view",
      "type": "function"
    },
    {
      "inputs": [
        {
          "internalType": "string",
          "name": "_name",
          "type": "string"
        },
        {
          "internalType": "string",
          "name": "_gameTokenName",
          "type": "string"
        }
      ],
      "name": "registerPlayer",
      "outputs": [],
      "stateMutability": "nonpayable",
      "type": "function"
    },
    {
      "inputs": [
        {
          "internalType": "address",
          "name": "from",
          "type": "address"
        },
        {
          "internalType": "address",
          "name": "to",
          "type": "address"
        },
        {
          "internalType": "uint256[]",
          "name": "ids",
          "type": "uint256[]"
        },
        {
          "internalType": "uint256[]",
          "name": "amounts",
          "type": "uint256[]"
        },
        {
          "internalType": "bytes",
          "name": "data",
          "type": "bytes"
        }
      ],
      "name": "safeBatchTransferFrom",
      "outputs": [],
      "stateMutability": "nonpayable",
      "type": "function"
    },
    {
      "inputs": [
        {
          "internalType": "address",
          "name": "from",
          "type": "address"
        },
        {
          "internalType": "address",
          "name": "to",
          "type": "address"
        },
        {
          "internalType": "uint256",
          "name": "id",
          "type": "uint256"
        },
        {
          "internalType": "uint256",
          "name": "amount",
          "type": "uint256"
        },
        {
          "internalType": "bytes",
          "name": "data",
          "type": "bytes"
        }
      ],
      "name": "safeTransferFrom",
      "outputs": [],
      "stateMutability": "nonpayable",
      "type": "function"
    },
    {
      "inputs": [
        {
          "internalType": "address",
          "name": "operator",
          "type": "address"
        },
        {
          "internalType": "bool",
          "name": "approved",
          "type": "bool"
        }
      ],
      "name": "setApprovalForAll",
      "outputs": [],
      "stateMutability": "nonpayable",
      "type": "function"
    },
    {
      "inputs": [
        {
          "internalType": "bytes4",
          "name": "interfaceId",
          "type": "bytes4"
        }
      ],
      "name": "supportsInterface",
      "outputs": [
        {
          "internalType": "bool",
          "name": "",
          "type": "bool"
        }
      ],
      "stateMutability": "view",
      "type": "function"
    },
    {
      "inputs": [],
      "name": "totalSupply",
      "outputs": [
        {
          "internalType": "uint256",
          "name": "",
          "type": "uint256"
        }
      ],
      "stateMutability": "view",
      "type": "function"
    },
    {
      "inputs": [
        {
          "internalType": "uint256",
          "name": "",
          "type": "uint256"
        }
      ],
      "name": "uri",
      "outputs": [
        {
          "internalType": "string",
          "name": "",
          "type": "string"
        }
      ],
      "stateMutability": "view",
      "type": "function"
    }
  ],
  "bytecode": "0x608060405234620007eb5762002b27803803806200001d8162000810565b928339810190602081830312620007eb5780516001600160401b0391828211620007eb570182601f82011215620007eb57805190828211620004ee576200006e601f8301601f191660200162000810565b9382855260208383010111620007eb5760005b828110620007d55750506020600091840101528151818111620004ee57600254600181811c91168015620007ca575b6020821014620004cd57601f811162000771575b50806020601f8211600114620006f957600091620006ed575b508160011b916000199060031b1c1916176002555b8151818111620004ee57600354600181811c91168015620006e2575b6020821014620004cd57601f811162000678575b50602092601f82116001146200060d579281929360009262000601575b50508160011b916000199060031b1c1916176003555b6040516080810181811083821117620004ee5760405262000175620007f0565b6000815281526000602082015260006040820152600060608201526006549068010000000000000000821015620004ee57600182018060065582101562000504576006600052805180517ff652222313e28459528d920b65115c16c04f3efc82aaedc97be59f3f377c0d3f9291858211620004ee578460021b840154600181811c91168015620005f6575b6020821014620004cd57601f8111620005a4575b50602090601f83116001146200052657918060039594926060946000926200051a575b50508160011b9160001990871b1c1916178560021b8401555b602081015160018660021b850101556040810151600286811b8501015501519260021b01015560405160a0810181811083821117620004ee57604052600081526200029a620007f0565b600081526020820190815260006040830152600060608301526000608083015260055468010000000000000000811015620004ee57600181018060055581101562000504576005600081905283517f036b6384b5eca791c62761152d0c79bb0604c104a5fb6f4eb0703f3154bb3db0918302820180546001600160a01b039092166001600160a01b03199092169190911790559151805190948111620004ee5760016005830284010154600181811c91168015620004e3575b6020821014620004cd57601f811162000478575b506020601f8211600114620003f45791816005926004959460809798600092620003e8575b50508160011b916000199060031b1c1916176001838302850101555b60408601516002838302850101556060860151600383830285010155020101910151151560ff801983541691161790556040516122d09081620008378239f35b0151905038806200038c565b601f1982169560016005850286010160005260206000209660005b8181106200045f575092608096976004969593600193836005971062000445575b505050811b01600183830285010155620003a8565b015160001960f88460031b161c1916905538808062000430565b838301518955600190980197602093840193016200040f565b6001600584028501016000526020600020601f830160051c81019160208410620004c2575b601f0160051c01905b818110620004b5575062000367565b60008155600101620004a6565b90915081906200049d565b634e487b7160e01b600052602260045260246000fd5b90607f169062000353565b634e487b7160e01b600052604160045260246000fd5b634e487b7160e01b600052603260045260246000fd5b01519050388062000237565b908560021b850160005260206000209160005b601f19851681106200058b575092600395949260019260609583601f1981161062000572575b505050811b018560021b84015562000250565b015160001983891b60f8161c191690553880806200055f565b9192602060018192868501518155019401920162000539565b8560021b85016000526020600020601f840160051c81019160208510620005eb575b601f0160051c01905b818110620005de575062000214565b60008155600101620005cf565b9091508190620005c6565b90607f169062000200565b0151905038806200013f565b601f19821693600360005260206000209160005b8681106200065f575083600195961062000645575b505050811b0160035562000155565b015160001960f88460031b161c1916905538808062000636565b9192602060018192868501518155019401920162000621565b60036000527fc2575a0e9e593c00f959f8c92f12db2869c3395a3b0502d05e2516446f71f85b601f830160051c81019160208410620006d7575b601f0160051c01905b818110620006ca575062000122565b60008155600101620006bb565b9091508190620006b2565b90607f16906200010e565b905083015138620000dd565b6002600090815260008051602062002b078339815191529250601f198416905b81811062000758575090836001949392106200073e575b5050811b01600255620000f2565b85015160001960f88460031b161c19169055388062000730565b9192602060018192868a01518155019401920162000719565b600260005260008051602062002b07833981519152601f830160051c81019160208410620007bf575b601f0160051c01905b818110620007b25750620000c4565b60008155600101620007a3565b90915081906200079a565b90607f1690620000b0565b8060208092840101518282880101520162000081565b600080fd5b60405190602082016001600160401b03811183821017620004ee57604052565b6040519190601f01601f191682016001600160401b03811183821017620004ee5760405256fe60806040526004361015610013575b600080fd5b60003560e01c8062fdd58e146101b657806301ffc9a7146101ad57806309c95e10146101a45780630daea2cd1461019b5780630e89341c1461019257806318160ddd146101895780632711162e146101805780632eb2c2d6146101775780634b1146911461016e5780634e1273f4146101655780635c12cd4b1461015c5780636c0360eb14610153578063845f433b1461014a5780639ec40aa314610141578063a22cb46514610138578063bf034b691461012f578063bf103a4d14610126578063e985e9c51461011d578063efa1c48214610114578063f242432a1461010b5763f71d96cb1461010357600080fd5b61000e611148565b5061000e610f95565b5061000e610ec8565b5061000e610e6a565b5061000e610e46565b5061000e610dd7565b5061000e610c9a565b5061000e610c61565b5061000e610b49565b5061000e610a79565b5061000e61094b565b5061000e610849565b5061000e6107c9565b5061000e610619565b5061000e610444565b5061000e61040e565b5061000e61034f565b5061000e6102de565b5061000e6102b0565b5061000e610241565b5061000e6101ff565b600435906001600160a01b038216820361000e57565b602435906001600160a01b038216820361000e57565b35906001600160a01b038216820361000e57565b503461000e57604036600319011261000e57602061022761021e6101bf565b602435906111cf565b604051908152f35b6001600160e01b031981160361000e57565b503461000e57602036600319011261000e5760206004356102618161022f565b63ffffffff60e01b16636cdb3d1360e11b811490811561029f575b811561028e575b506040519015158152f35b6301ffc9a760e01b14905038610283565b6303a24d0760e21b8114915061027c565b503461000e57602036600319011261000e5760206102d46102cf6101bf565b6119d5565b6040519015158152f35b503461000e57600036600319011261000e576020604051600a8152f35b919082519283825260005b848110610327575050826000602080949584010152601f8019910116010190565b602081830181015184830182015201610306565b90602061034c9281815201906102fb565b90565b503461000e5760208060031936011261000e576040516000916002546103748161099b565b808452906001908181169081156103ee57506001146103ae575b6103aa8461039e818803826104f4565b6040519182918261033b565b0390f35b919350600260005283600020916000925b8284106103db57505050816103aa9361039e928201019361038e565b80548585018701529285019281016103bf565b60ff1916858501525050151560051b820101915061039e816103aa61038e565b503461000e57600036600319011261000e576020600454604051908152f35b9060018060a01b0316600052602052604060002090565b503461000e57602036600319011261000e576001600160a01b036104666101bf565b1660005260086020526020604060002054604051908152f35b50634e487b7160e01b600052604160045260246000fd5b60a081019081106001600160401b038211176104b157604052565b6104b961047f565b604052565b608081019081106001600160401b038211176104b157604052565b604081019081106001600160401b038211176104b157604052565b90601f801991011681019081106001600160401b038211176104b157604052565b6040519061052282610496565b565b60405190610522826104be565b6020906001600160401b03811161054a575b60051b0190565b61055261047f565b610543565b81601f8201121561000e5780359161056e83610531565b9261057c60405194856104f4565b808452602092838086019260051b82010192831161000e578301905b8282106105a6575050505090565b81358152908301908301610598565b81601f8201121561000e578035906001600160401b03821161060c575b604051926105ea601f8401601f1916602001856104f4565b8284526020838301011161000e57816000926020809301838601378301015290565b61061461047f565b6105d2565b503461000e5760a036600319011261000e576106336101bf565b61063b6101d5565b906001600160401b039060443582811161000e5761065d903690600401610557565b9160643581811161000e57610676903690600401610557565b9060843590811161000e5761068f9036906004016105b5565b6001600160a01b0383811694919033861480156107a6575b6106b0906113aa565b6106bd83518551146114e9565b86166106ca81151561140d565b60005b835181101561076057806106e461075b92866112c0565b5161075461074c8b61042d6106f9868c6112c0565b51948c61073b876107188361042d866000526000602052604060002090565b5461072582821015611467565b039161042d846000526000602052604060002090565b556000526000602052604060002090565b9182546114dc565b90556112a4565b6106cd565b50938691946107a4966040517f4a39dc06d4c0dbc64b70af90fd698a233a518aa5d07e595d983b8c0526c8f7fb33918061079b8a8a83611546565b0390a433611944565b005b50600086815260016020908152604080832033845290915290205460ff166106a7565b503461000e57602036600319011261000e576001600160a01b036107eb6101bf565b1660005260076020526020604060002054604051908152f35b90815180825260208080930193019160005b828110610824575050505090565b835185529381019392810192600101610816565b90602061034c928181520190610804565b503461000e57604036600319011261000e576004356001600160401b0380821161000e573660238301121561000e57816004013561088681610531565b9261089460405194856104f4565b81845260209160248386019160051b8301019136831161000e57602401905b8282106108ec578560243586811161000e576103aa916108da6108e0923690600401610557565b906112e2565b60405191829182610838565b8380916108f8846101eb565b8152019101906108b3565b9060018060a01b03825116815260808061092c602085015160a0602086015260a08501906102fb565b9360408101516040850152606081015160608501520151151591015290565b503461000e57602036600319011261000e576103aa61097061096b6101bf565b611aec565b604051918291602083526020830190610903565b50634e487b7160e01b600052600060045260246000fd5b90600182811c921680156109cb575b60208310146109b557565b634e487b7160e01b600052602260045260246000fd5b91607f16916109aa565b90604051918260008254926109e98461099b565b908184526001948581169081600014610a565750600114610a13575b5050610522925003836104f4565b9093915060005260209081600020936000915b818310610a3e57505061052293508201013880610a05565b85548884018501529485019487945091830191610a26565b91505061052294506020925060ff191682840152151560051b8201013880610a05565b503461000e57600080600319360112610b465760405181600354610a9c8161099b565b80845290600190818116908115610b1e5750600114610ac5576103aa8461039e818803826104f4565b60038352602094507fc2575a0e9e593c00f959f8c92f12db2869c3395a3b0502d05e2516446f71f85b5b828410610b0b57505050816103aa9361039e928201019361038e565b8054858501870152928501928101610aef565b6103aa965061039e9450602092508593915060ff191682840152151560051b8201019361038e565b80fd5b503461000e57604036600319011261000e576001600160401b0360043581811161000e57610b7b9036906004016105b5565b9060243590811161000e57610b949036906004016105b5565b610b9d336119d5565b610c2057610beb90600554610bd6610bb3610515565b338152856020820152600a60408201526019606082015260006080820152611c1f565b33600090815260076020526040902055611dae565b7f81ef79d1cda814a60c0fc60792e648a06d9c6bae67176346d1cc8b63030bfccd60405180610c1b33948261033b565b0390a2005b60405162461bcd60e51b8152602060048201526019602482015278141b185e595c88185b1c9958591e481c9959da5cdd195c9959603a1b6044820152606490fd5b503461000e57602036600319011261000e576004356001600160401b03811161000e57610c956107a49136906004016105b5565b611dae565b503461000e57604036600319011261000e57610cb46101bf565b602435801515810361000e576001600160a01b03821691338314610d3c573360009081526001602090815260408083206001600160a01b03909416835292905220610d0a908260ff801983541691151516179055565b604051901515815233907f17307eab39ab6107e8899845ad3d59bd9653f200f220920489ca2b5937696c3190602090a3005b60405162461bcd60e51b815260206004820152602960248201527f455243313135353a2073657474696e6720617070726f76616c20737461747573604482015268103337b91039b2b63360b91b6064820152608490fd5b50634e487b7160e01b600052603260045260246000fd5b600654811015610dca575b600660005260206000209060021b0190600090565b610dd2610d93565b610db5565b503461000e57602036600319011261000e5760043560065481101561000e57610e02610e3291610daa565b50610e0c816109d5565b9060018101549060036002820154910154906040519485946080865260808601906102fb565b926020850152604084015260608301520390f35b503461000e57602036600319011261000e5760206102d4610e656101bf565b611baa565b503461000e57604036600319011261000e57602060ff610ebc610e8b6101bf565b610e936101d5565b6001600160a01b0391821660009081526001865260408082209290931681526020919091522090565b54166040519015158152f35b503461000e57600080600319360112610b46576005908154610ee981610531565b91610ef760405193846104f4565b81835260209283810192838684528584208785925b848410610f6f575050505050604051938085019181865251809252604082818701971b8601019392955b828710610f435785850386f35b909192938280610f5f600193603f198a82030186528851610903565b9601920196019592919092610f36565b9088600192610f81859b98999b611a9c565b815201920192019190889097959497610f0c565b503461000e5760a036600319011261000e57610faf6101bf565b610fb76101d5565b608435906064356044356001600160401b03841161000e57610fe06110dc9436906004016105b5565b6001600160a01b03868116969194919033881480156110df575b611003906113aa565b821661101081151561140d565b611019846119b0565b50611023856119b0565b506000848152602081815260408083206001600160a01b0386168452909152812090989086905461105682821015611467565b868b528a6020520361107d8460408c209060018060a01b0316600052602052604060002090565b556110968461042d876000526000602052604060002090565b6110a18782546114dc565b9055604080518681526020810188905233917fc3d58168c5ae7397731d063d5bbf3d657854427343f4c083240f7aacaa2d0f6291a43361181e565b80f35b50600088815260016020908152604080832033845290915290205460ff16610ffa565b60055481101561113b575b6005600081815291027f036b6384b5eca791c62761152d0c79bb0604c104a5fb6f4eb0703f3154bb3db00191565b611143610d93565b61110d565b503461000e57602036600319011261000e5760043560055481101561000e5761117090611102565b5080546001600160a01b0316611188600183016109d5565b9160028101549060ff6004600383015492015416906111b9604051958695865260a0602087015260a08601906102fb565b9260408501526060840152151560808301520390f35b6001600160a01b03811615611203576000918252602082815260408084206001600160a01b03909316845291905290205490565b60405162461bcd60e51b815260206004820152602a60248201527f455243313135353a2061646472657373207a65726f206973206e6f742061207660448201526930b634b21037bbb732b960b11b6064820152608490fd5b9061126582610531565b61127260405191826104f4565b8281528092611283601f1991610531565b0190602036910137565b50634e487b7160e01b600052601160045260246000fd5b60019060001981146112b4570190565b6112bc61128d565b0190565b60209181518110156112d5575b60051b010190565b6112dd610d93565b6112cd565b9190918051835103611353576112f8815161125b565b9060005b815181101561134c578061133761132661131961134794866112c0565b516001600160a01b031690565b61133083896112c0565b51906111cf565b61134182866112c0565b526112a4565b6112fc565b5090925050565b60405162461bcd60e51b815260206004820152602960248201527f455243313135353a206163636f756e747320616e6420696473206c656e677468604482015268040dad2e6dac2e8c6d60bb1b6064820152608490fd5b156113b157565b60405162461bcd60e51b815260206004820152602e60248201527f455243313135353a2063616c6c6572206973206e6f7420746f6b656e206f776e60448201526d195c881bdc88185c1c1c9bdd995960921b6064820152608490fd5b1561141457565b60405162461bcd60e51b815260206004820152602560248201527f455243313135353a207472616e7366657220746f20746865207a65726f206164604482015264647265737360d81b6064820152608490fd5b1561146e57565b60405162461bcd60e51b815260206004820152602a60248201527f455243313135353a20696e73756666696369656e742062616c616e636520666f60448201526939103a3930b739b332b960b11b6064820152608490fd5b90600182018092116114d457565b61052261128d565b919082018092116114d457565b156114f057565b60405162461bcd60e51b815260206004820152602860248201527f455243313135353a2069647320616e6420616d6f756e7473206c656e677468206044820152670dad2e6dac2e8c6d60c31b6064820152608490fd5b909161155d61034c93604084526040840190610804565b916020818403910152610804565b9081602091031261000e575161034c8161022f565b61034c939260a092600180851b031682526000602083015260408201526001606082015281608082015201906102fb565b919261034c95949160a094600180871b0380921685521660208401526040830152606082015281608082015201906102fb565b60809060208152602860208201527f455243313135353a204552433131353552656365697665722072656a656374656040820152676420746f6b656e7360c01b60608201520190565b60009060033d1161163a57565b905060046000803e60005160e01c90565b600060443d1061034c57604051600319913d83016004833e81516001600160401b03918282113d6024840111176116a8578184019485519384116116b0573d850101602084870101116116a8575061034c929101602001906104f4565b949350505050565b50949350505050565b92919091823b6116ca575b50505050565b6116f192602092600060405180968195829463f23a6e6160e01b9a8b855260048501611580565b03926001600160a01b03165af1600091816117ee575b506117c6575050600161171861162d565b6308c379a014611797575b611731575b388080806116c4565b60405162461bcd60e51b815260206004820152603460248201527f455243313135353a207472616e7366657220746f206e6f6e2d455243313135356044820152732932b1b2b4bb32b91034b6b83632b6b2b73a32b960611b6064820152608490fd5b0390fd5b61179f61164b565b806117aa5750611723565b60405162461bcd60e51b8152908190611793906004830161033b565b6001600160e01b031916146117285760405162461bcd60e51b815280611793600482016115e4565b61181091925060203d8111611817575b61180881836104f4565b81019061156b565b9038611707565b503d6117fe565b9493919092813b611832575b505050505050565b60006020946118596040519788968795869463f23a6e6160e01b9c8d8752600487016115b1565b03926001600160a01b03165af1600091816118d6575b506118ae575050600161188061162d565b6308c379a01461189b575b611731575b38808080808061182a565b6118a361164b565b806117aa575061188b565b6001600160e01b031916146118905760405162461bcd60e51b815280611793600482016115e4565b6118ef91925060203d81116118175761180881836104f4565b903861186f565b939061034c9593611928916119369460018060a01b03809216885216602087015260a0604087015260a0860190610804565b908482036060860152610804565b9160808184039101526102fb565b9493919092813b61195757505050505050565b60006020946118596040519788968795869463bc197c8160e01b9c8d8752600487016118f6565b60405161198a816104d9565b6001815260016020820160203682378251156119a4575290565b6119ac610d93565b5290565b604051906119bd826104d9565b600182526020820160203682378251156119a4575290565b6001600160a01b038116600081815260076020526040808220549051611a8d94938392611a629015611a06846104d9565b600d84526c6973506c617965722066756e6360981b6020850152604051928391611a49602084019663324757b560e21b88526060602486015260848501906102fb565b916044840152606483015203601f1981018352826104f4565b51906a636f6e736f6c652e6c6f675afa506001600160a01b0316600090815260076020526040902090565b54611a9757600090565b600190565b90604051611aa981610496565b608060ff6004839560018060a01b038154168552611ac9600182016109d5565b602086015260028101546040860152600381015460608601520154161515910152565b6080604051611afa81610496565b6000918183809352606060208201528260408201528260608201520152611b20826119d5565b15611b6d5760056020611b4861034c9460018060a01b03166000526007602052604060002090565b54928254841015611b60575b82815220910201611a9c565b611b68610d93565b611b54565b60405162461bcd60e51b8152602060048201526015602482015274506c6179657220646f65736e27742065786973742160581b6044820152606490fd5b6001600160a01b0316600090815260086020526040902054611a9757600090565b90601f8111611bd957505050565b600091825260208220906020601f850160051c83019410611c15575b601f0160051c01915b828110611c0a57505050565b818155600101611bfe565b9092508290611bf5565b60055490600160401b821015611da1575b611c41600192838101600555611102565b919091611d94575b805182546001600160a01b0319166001600160a01b039190911617825560208082015180519094808501926001600160401b038311611d87575b611c9783611c91865461099b565b86611bcb565b80601f8411600114611d09575092828060809460049794611ceb976105229b600094611cfe575b50501b916000199060031b1c19161790555b60408101516002860155606081015160038601550151151590565b91019060ff801983541691151516179055565b015192503880611cbe565b9193949596601f198416611d2287600052602060002090565b936000905b828210611d705750509361052298979360049793611ceb97938360809810611d57575b505050811b019055611cd0565b015160001960f88460031b161c19169055388080611d4a565b808886978294978701518155019601940190611d27565b611d8f61047f565b611c83565b611d9c610984565b611c49565b611da961047f565b611c30565b6080611db933611aec565b0151611e1e57611dc8336119d5565b15611dd957611dd69061201b565b50565b60405162461bcd60e51b815260206004820152601c60248201527f506c6561736520526567697374657220506c61796572204669727374000000006044820152606490fd5b60405162461bcd60e51b8152602060048201526015602482015274506c6179657220697320696e206120626174746c6560581b6044820152606490fd5b60405190608082018281106001600160401b03821117611e91575b60405260006060838181528260208201528260408201520152565b611e9961047f565b611e76565b600a0390600a82116114d457565b60ff6001911660ff81146112b4570190565b6006549190600160401b831015611fef575b611ee1600193848101600655610daa565b919091611fe2575b80519384516001600160401b038111611fd5575b611f0b81611c91865461099b565b60209081601f8211600114611f645790806060959493926003979899600092611f59575b505060001982881b1c191690831b1786555b82015190850155604081015160028501550151910155565b015190503880611f2f565b601f19821690611f7987600052602060002090565b9160005b818110611fc05750918391600398999a879695606099989510611fa8575b505050811b018655611f41565b0151600019838a1b60f8161c19169055388080611f9b565b8a830151845592860192918501918501611f7d565b611fdd61047f565b611efd565b611fea610984565b611ee9565b611ff761047f565b611ed0565b60405190612009826104d9565b600382526203078360ec1b6020830152565b612023611e5b565b5061202d33612253565b61203681611e9e565b600660ff61208e612088604051602081019061207e81612070334286909160349282526001600160601b03199060601b1660208201520190565b03601f1981018352826104f4565b5190206064900690565b60ff1690565b16069060ff821615612140575b7fca8ab07e9ed17d119729fc652dd24df9d8430ca862dda4631925b5b4b99da36291926120c6610524565b94855261210d60ff85168060208801528260408801528360608801526006546120ee88611ebe565b33600090815260086020526040902055612106611ffc565b9033612171565b61212061211b6004546112a4565b600455565b6040805160ff95909516855260208501919091528301523391606090a290565b61216a7fca8ab07e9ed17d119729fc652dd24df9d8430ca862dda4631925b5b4b99da36292611eac565b915061209b565b6001600160a01b03811692919083156122045761052293612191836119b0565b5061219a61197e565b506000838152602081815260408083206001600160a01b038616845290915290206121c581546114c6565b9055604080518481526001602082015260009133917fc3d58168c5ae7397731d063d5bbf3d657854427343f4c083240f7aacaa2d0f629190a4336116b9565b60405162461bcd60e51b815260206004820152602160248201527f455243313135353a206d696e7420746f20746865207a65726f206164647265736044820152607360f81b6064820152608490fd5b600a9060405160208101914483524260408301526001600160601b03199060601b16606082015260548152612287816104be565b5190200680156122945790565b5060059056fea2646970667358221220768046d1d56fd53ee291fadce4a9d56346a73d58e11267a77e09e56e8920b0d164736f6c63430008110033405787fa12a823e0f2b7631cc41b3ba8828b3321ca811111fa75cd3aa3bb5ace",
  "linkReferences": {},
  "deployedLinkReferences": {}
}