{
  "_format": "hh-sol-artifact-1",
  "contractName": "MagicalDungeonCreatures",
  "sourceName": "contracts/MagicalDungeonCreatures.sol",
  "abi": [
    {
      "inputs": [
        {
          "internalType": "string",
          "name": "_metadataURI",
          "type": "string"
        }
      ],
      "stateMutability": "nonpayable",
      "type": "constructor"
    },
    {
      "anonymous": false,
      "inputs": [
        {
          "indexed": true,
          "internalType": "address",
          "name": "account",
          "type": "address"
        },
        {
          "indexed": true,
          "internalType": "address",
          "name": "operator",
          "type": "address"
        },
        {
          "indexed": false,
          "internalType": "bool",
          "name": "approved",
          "type": "bool"
        }
      ],
      "name": "ApprovalForAll",
      "type": "event"
    },
    {
      "anonymous": false,
      "inputs": [
        {
          "indexed": true,
          "internalType": "address",
          "name": "operator",
          "type": "address"
        },
        {
          "indexed": true,
          "internalType": "address",
          "name": "from",
          "type": "address"
        },
        {
          "indexed": true,
          "internalType": "address",
          "name": "to",
          "type": "address"
        },
        {
          "indexed": false,
          "internalType": "uint256[]",
          "name": "ids",
          "type": "uint256[]"
        },
        {
          "indexed": false,
          "internalType": "uint256[]",
          "name": "values",
          "type": "uint256[]"
        }
      ],
      "name": "TransferBatch",
      "type": "event"
    },
    {
      "anonymous": false,
      "inputs": [
        {
          "indexed": true,
          "internalType": "address",
          "name": "operator",
          "type": "address"
        },
        {
          "indexed": true,
          "internalType": "address",
          "name": "from",
          "type": "address"
        },
        {
          "indexed": true,
          "internalType": "address",
          "name": "to",
          "type": "address"
        },
        {
          "indexed": false,
          "internalType": "uint256",
          "name": "id",
          "type": "uint256"
        },
        {
          "indexed": false,
          "internalType": "uint256",
          "name": "value",
          "type": "uint256"
        }
      ],
      "name": "TransferSingle",
      "type": "event"
    },
    {
      "anonymous": false,
      "inputs": [
        {
          "indexed": false,
          "internalType": "string",
          "name": "value",
          "type": "string"
        },
        {
          "indexed": true,
          "internalType": "uint256",
          "name": "id",
          "type": "uint256"
        }
      ],
      "name": "URI",
      "type": "event"
    },
    {
      "inputs": [
        {
          "internalType": "address",
          "name": "account",
          "type": "address"
        },
        {
          "internalType": "uint256",
          "name": "id",
          "type": "uint256"
        }
      ],
      "name": "balanceOf",
      "outputs": [
        {
          "internalType": "uint256",
          "name": "",
          "type": "uint256"
        }
      ],
      "stateMutability": "view",
      "type": "function"
    },
    {
      "inputs": [
        {
          "internalType": "address[]",
          "name": "accounts",
          "type": "address[]"
        },
        {
          "internalType": "uint256[]",
          "name": "ids",
          "type": "uint256[]"
        }
      ],
      "name": "balanceOfBatch",
      "outputs": [
        {
          "internalType": "uint256[]",
          "name": "",
          "type": "uint256[]"
        }
      ],
      "stateMutability": "view",
      "type": "function"
    },
    {
      "inputs": [],
      "name": "baseURI",
      "outputs": [
        {
          "internalType": "string",
          "name": "",
          "type": "string"
        }
      ],
      "stateMutability": "view",
      "type": "function"
    },
    {
      "inputs": [
        {
          "internalType": "address",
          "name": "account",
          "type": "address"
        },
        {
          "internalType": "address",
          "name": "operator",
          "type": "address"
        }
      ],
      "name": "isApprovedForAll",
      "outputs": [
        {
          "internalType": "bool",
          "name": "",
          "type": "bool"
        }
      ],
      "stateMutability": "view",
      "type": "function"
    },
    {
      "inputs": [
        {
          "internalType": "address",
          "name": "from",
          "type": "address"
        },
        {
          "internalType": "address",
          "name": "to",
          "type": "address"
        },
        {
          "internalType": "uint256[]",
          "name": "ids",
          "type": "uint256[]"
        },
        {
          "internalType": "uint256[]",
          "name": "amounts",
          "type": "uint256[]"
        },
        {
          "internalType": "bytes",
          "name": "data",
          "type": "bytes"
        }
      ],
      "name": "safeBatchTransferFrom",
      "outputs": [],
      "stateMutability": "nonpayable",
      "type": "function"
    },
    {
      "inputs": [
        {
          "internalType": "address",
          "name": "from",
          "type": "address"
        },
        {
          "internalType": "address",
          "name": "to",
          "type": "address"
        },
        {
          "internalType": "uint256",
          "name": "id",
          "type": "uint256"
        },
        {
          "internalType": "uint256",
          "name": "amount",
          "type": "uint256"
        },
        {
          "internalType": "bytes",
          "name": "data",
          "type": "bytes"
        }
      ],
      "name": "safeTransferFrom",
      "outputs": [],
      "stateMutability": "nonpayable",
      "type": "function"
    },
    {
      "inputs": [
        {
          "internalType": "address",
          "name": "operator",
          "type": "address"
        },
        {
          "internalType": "bool",
          "name": "approved",
          "type": "bool"
        }
      ],
      "name": "setApprovalForAll",
      "outputs": [],
      "stateMutability": "nonpayable",
      "type": "function"
    },
    {
      "inputs": [
        {
          "internalType": "bytes4",
          "name": "interfaceId",
          "type": "bytes4"
        }
      ],
      "name": "supportsInterface",
      "outputs": [
        {
          "internalType": "bool",
          "name": "",
          "type": "bool"
        }
      ],
      "stateMutability": "view",
      "type": "function"
    },
    {
      "inputs": [
        {
          "internalType": "uint256",
          "name": "",
          "type": "uint256"
        }
      ],
      "name": "uri",
      "outputs": [
        {
          "internalType": "string",
          "name": "",
          "type": "string"
        }
      ],
      "stateMutability": "view",
      "type": "function"
    }
  ],
  "bytecode": "0x6080604052346200033357620013cc803803806200001d8162000338565b92833981016020918281830312620003335780516001600160401b039182821162000333570191601f81818501121562000333578351938385116200024257601f1994620000718382018716880162000338565b938185528782840101116200033357869160005b8281106200031f57505090600091840101528151918383116200024257600254926001938481811c9116801562000314575b888210146200022157838111620002c8575b508087848211600114620002645760009162000258575b50600019600383901b1c191690841b176002555b8051938411620002425760039586548481811c9116801562000237575b828210146200022157838111620001d6575b50809285116001146200016e57508394509083929160009462000162575b50501b9160001990841b1c19161790555b60405161106d90816200035f8239f35b01519250388062000141565b9294849081168760005284600020946000905b88838310620001bb5750505010620001a2575b505050811b01905562000152565b015160001983861b60f8161c1916905538808062000194565b85870151885590960195948501948793509081019062000181565b87600052816000208480880160051c82019284891062000217575b0160051c019085905b8281106200020a57505062000123565b60008155018590620001fa565b92508192620001f1565b634e487b7160e01b600052602260045260246000fd5b90607f169062000111565b634e487b7160e01b600052604160045260246000fd5b905082015138620000e0565b87869316906002600052896000209160005b8b828210620002b1575050831162000297575b5050811b01600255620000f4565b84015160001960f88460031b161c19169055388062000289565b838801518555899690940193928301920162000276565b6002600052876000208480840160051c8201928a85106200030a575b0160051c019085905b828110620002fd575050620000c9565b60008155018590620002ed565b92508192620002e4565b90607f1690620000b7565b818101840151868201850152830162000085565b600080fd5b6040519190601f01601f191682016001600160401b03811183821017620002425760405256fe60406080815260048036101561001457600080fd5b600091823560e01c8062fdd58e14610b7f57806301ffc9a714610b115780630e89341c14610a615780632eb2c2d61461074e5780634e1273f4146105b15780636c0360eb146104b1578063a22cb465146103d5578063e985e9c5146103835763f242432a1461008257600080fd5b3461037f5760a036600319011261037f5761009b610baf565b836100a4610bca565b91604435906064356084356001600160401b03811161037b576100ca9036908901610ccc565b926001600160a01b0392831692338414801561035c575b6100ea90610e2a565b8616906100f8821515610e8d565b61010181611002565b5061010b83611002565b508086526020968688528887208588528852838988205461012e82821015610ee7565b838952888a528a8920878a528a520389882055818752868852888720838852885288872061015d858254610f46565b905582858a51848152868b8201527fc3d58168c5ae7397731d063d5bbf3d657854427343f4c083240f7aacaa2d0f628c3392a43b610199578580f35b889587946101da8a519788968795869463f23a6e6160e01b9c8d8752339087015260248601526044850152606484015260a0608484015260a4830190610be0565b03925af186918161032d575b506102b85750506001906101f8610f73565b6308c379a014610285575b506102185750505b3880808381808080808580f35b5162461bcd60e51b81529150819061028190820160809060208152603460208201527f455243313135353a207472616e7366657220746f206e6f6e2d455243313135356040820152732932b1b2b4bb32b91034b6b83632b6b2b73a32b960611b60608201520190565b0390fd5b61028d610f91565b806102985750610203565b6102818591855193849362461bcd60e51b85528401526024830190610be0565b6001600160e01b0319160390506102d057505061020b565b5162461bcd60e51b81529150819061028190820160809060208152602860208201527f455243313135353a204552433131353552656365697665722072656a656374656040820152676420746f6b656e7360c01b60608201520190565b61034e919250843d8611610355575b6103468183610c20565b810190610f53565b90386101e6565b503d61033c565b508386526001602090815288872033885290528786205460ff166100e1565b8480fd5b8280fd5b8382346103d157806003193601126103d15760ff816020936103a3610baf565b6103ab610bca565b6001600160a01b0391821683526001875283832091168252855220549151911615158152f35b5080fd5b503461037f578060031936011261037f576103ee610baf565b906024359182151580930361037b576001600160a01b03169233841461045d5750338452600160205280842083855260205280842060ff1981541660ff8416179055519081527f17307eab39ab6107e8899845ad3d59bd9653f200f220920489ca2b5937696c3160203392a380f35b6020608492519162461bcd60e51b8352820152602960248201527f455243313135353a2073657474696e6720617070726f76616c20737461747573604482015268103337b91039b2b63360b91b6064820152fd5b5082346105ae57806003193601126105ae578151918160035492600184811c918186169586156105a4575b6020968785108114610591578899509688969785829a52918260001461056a57505060011461052c575b5050506105289291610519910385610c20565b51928284938452830190610be0565b0390f35b9190869350600383528383205b8284106105525750505082010181610519610528610506565b8054848a018601528895508794909301928101610539565b60ff19168782015293151560051b8601909301935084925061051991506105289050610506565b634e487b7160e01b835260228a52602483fd5b92607f16926104dc565b80fd5b50903461037f578160031936011261037f5780356001600160401b0380821161037b573660238301121561037b5781830135906105ed82610c57565b926105fa86519485610c20565b82845260209260248486019160051b8301019136831161074a57602401905b828210610727575050506024359081116107235761063a9036908501610c6e565b9282518451036106d0575081519461065186610c57565b9561065e86519788610c20565b80875261066d601f1991610c57565b0136838801375b82518110156106be576106b9906106a96001600160a01b036106968387610e00565b51166106a28388610e00565b5190610d56565b6106b38289610e00565b52610ddb565b610674565b84518281528061052881850189610d22565b60849185519162461bcd60e51b8352820152602960248201527f455243313135353a206163636f756e747320616e6420696473206c656e677468604482015268040dad2e6dac2e8c6d60bb1b6064820152fd5b8580fd5b81356001600160a01b0381168103610746578152908401908401610619565b8980fd5b8880fd5b50903461037f576003199160a036840112610a5d5761076b610baf565b92610774610bca565b936001600160401b0393604435858111610a59576107959036908301610c6e565b9060643586811161074a576107ad9036908301610c6e565b9560843590811161074a576107c59036908301610ccc565b936001600160a01b03938416933385148015610a3a575b6107e590610e2a565b83518851036109e6578816946107fc861515610e8d565b895b8a85518210156108825790896108768a61087d9461082785610820818d610e00565b5195610e00565b51938082526020908282528383208d84528252858d858520549061084d83831015610ee7565b838652858552868620908652845203848420558252818152828220908d83525220918254610f46565b9055610ddb565b6107fe565b50509094939596929197848789518a81527f4a39dc06d4c0dbc64b70af90fd698a233a518aa5d07e595d983b8c0526c8f7fb6108c08c830188610d22565b918083036020820152806108d533948b610d22565b0390a43b6108e1578880f35b8651948593849363bc197c8160e01b98898652338c87015260248601526044850160a0905260a4850161091391610d22565b8285820301606486015261092691610d22565b9083820301608484015261093991610be0565b0381885a94602095f18591816109c6575b506109b0575050600161095b610f73565b6308c379a014610979575b6102185750505b38808080808080808880f35b610981610f91565b8061098c5750610966565b905061028191602094505193849362461bcd60e51b85528401526024830190610be0565b6001600160e01b031916036102d057505061096d565b6109df91925060203d8111610355576103468183610c20565b903861094a565b865162461bcd60e51b8152602081850152602860248201527f455243313135353a2069647320616e6420616d6f756e7473206c656e677468206044820152670dad2e6dac2e8c6d60c31b6064820152608490fd5b50848a5260016020908152878b20338c529052868a205460ff166107dc565b8780fd5b8380fd5b508290346103d1576020908160031936011261037f57805192806002549060019082821c928281168015610b07575b8785108114610591578899509688969785829a52918260001461056a575050600114610ac9575050506105289291610519910385610c20565b9190869350600283528383205b828410610aef5750505082010181610519610528610506565b8054848a018601528895508794909301928101610ad6565b93607f1693610a90565b50903461037f57602036600319011261037f57359063ffffffff60e01b821680920361037f5760209250636cdb3d1360e11b8214918215610b6e575b8215610b5d575b50519015158152f35b6301ffc9a760e01b14915038610b54565b6303a24d0760e21b81149250610b4d565b8382346103d157806003193601126103d157602090610ba8610b9f610baf565b60243590610d56565b9051908152f35b600435906001600160a01b0382168203610bc557565b600080fd5b602435906001600160a01b0382168203610bc557565b919082519283825260005b848110610c0c575050826000602080949584010152601f8019910116010190565b602081830181015184830182015201610beb565b90601f801991011681019081106001600160401b03821117610c4157604052565b634e487b7160e01b600052604160045260246000fd5b6001600160401b038111610c415760051b60200190565b81601f82011215610bc557803591610c8583610c57565b92610c936040519485610c20565b808452602092838086019260051b820101928311610bc5578301905b828210610cbd575050505090565b81358152908301908301610caf565b81601f82011215610bc5578035906001600160401b038211610c415760405192610d00601f8401601f191660200185610c20565b82845260208383010111610bc557816000926020809301838601378301015290565b90815180825260208080930193019160005b828110610d42575050505090565b835185529381019392810192600101610d34565b6001600160a01b0316908115610d8357600052600060205260406000209060005260205260406000205490565b60405162461bcd60e51b815260206004820152602a60248201527f455243313135353a2061646472657373207a65726f206973206e6f742061207660448201526930b634b21037bbb732b960b11b6064820152608490fd5b6000198114610dea5760010190565b634e487b7160e01b600052601160045260246000fd5b8051821015610e145760209160051b010190565b634e487b7160e01b600052603260045260246000fd5b15610e3157565b60405162461bcd60e51b815260206004820152602e60248201527f455243313135353a2063616c6c6572206973206e6f7420746f6b656e206f776e60448201526d195c881bdc88185c1c1c9bdd995960921b6064820152608490fd5b15610e9457565b60405162461bcd60e51b815260206004820152602560248201527f455243313135353a207472616e7366657220746f20746865207a65726f206164604482015264647265737360d81b6064820152608490fd5b15610eee57565b60405162461bcd60e51b815260206004820152602a60248201527f455243313135353a20696e73756666696369656e742062616c616e636520666f60448201526939103a3930b739b332b960b11b6064820152608490fd5b91908201809211610dea57565b90816020910312610bc557516001600160e01b031981168103610bc55790565b60009060033d11610f8057565b905060046000803e60005160e01c90565b600060443d10610fee57604051600319913d83016004833e81516001600160401b03918282113d602484011117610ff157818401948551938411610ff9573d85010160208487010111610ff15750610fee92910160200190610c20565b90565b949350505050565b50949350505050565b60405190604082018281106001600160401b03821117610c415760405260018252602082016020368237825115610e1457529056fea264697066735822122085eb22447838a3b6c020de641139541c98b86dbf73916d41d373abd3cebe25bf64736f6c63430008110033",
  "linkReferences": {},
  "deployedLinkReferences": {}
}