{
  "_format": "hh-sol-artifact-1",
  "contractName": "MagicalDungeonCreatures",
  "sourceName": "contracts/MagicalDungeonCreatures.sol",
  "abi": [
    {
      "inputs": [
        {
          "internalType": "string",
          "name": "_metadataURI",
          "type": "string"
        }
      ],
      "stateMutability": "nonpayable",
      "type": "constructor"
    },
    {
      "anonymous": false,
      "inputs": [
        {
          "indexed": true,
          "internalType": "address",
          "name": "account",
          "type": "address"
        },
        {
          "indexed": true,
          "internalType": "address",
          "name": "operator",
          "type": "address"
        },
        {
          "indexed": false,
          "internalType": "bool",
          "name": "approved",
          "type": "bool"
        }
      ],
      "name": "ApprovalForAll",
      "type": "event"
    },
    {
      "anonymous": false,
      "inputs": [
        {
          "indexed": true,
          "internalType": "address",
          "name": "owner",
          "type": "address"
        },
        {
          "indexed": false,
          "internalType": "uint256",
          "name": "id",
          "type": "uint256"
        },
        {
          "indexed": false,
          "internalType": "uint256",
          "name": "attackStrength",
          "type": "uint256"
        },
        {
          "indexed": false,
          "internalType": "uint256",
          "name": "defenseStrength",
          "type": "uint256"
        }
      ],
      "name": "NewGameToken",
      "type": "event"
    },
    {
      "anonymous": false,
      "inputs": [
        {
          "indexed": true,
          "internalType": "address",
          "name": "owner",
          "type": "address"
        },
        {
          "indexed": false,
          "internalType": "string",
          "name": "name",
          "type": "string"
        }
      ],
      "name": "NewPlayer",
      "type": "event"
    },
    {
      "anonymous": false,
      "inputs": [
        {
          "indexed": true,
          "internalType": "address",
          "name": "operator",
          "type": "address"
        },
        {
          "indexed": true,
          "internalType": "address",
          "name": "from",
          "type": "address"
        },
        {
          "indexed": true,
          "internalType": "address",
          "name": "to",
          "type": "address"
        },
        {
          "indexed": false,
          "internalType": "uint256[]",
          "name": "ids",
          "type": "uint256[]"
        },
        {
          "indexed": false,
          "internalType": "uint256[]",
          "name": "values",
          "type": "uint256[]"
        }
      ],
      "name": "TransferBatch",
      "type": "event"
    },
    {
      "anonymous": false,
      "inputs": [
        {
          "indexed": true,
          "internalType": "address",
          "name": "operator",
          "type": "address"
        },
        {
          "indexed": true,
          "internalType": "address",
          "name": "from",
          "type": "address"
        },
        {
          "indexed": true,
          "internalType": "address",
          "name": "to",
          "type": "address"
        },
        {
          "indexed": false,
          "internalType": "uint256",
          "name": "id",
          "type": "uint256"
        },
        {
          "indexed": false,
          "internalType": "uint256",
          "name": "value",
          "type": "uint256"
        }
      ],
      "name": "TransferSingle",
      "type": "event"
    },
    {
      "anonymous": false,
      "inputs": [
        {
          "indexed": false,
          "internalType": "string",
          "name": "value",
          "type": "string"
        },
        {
          "indexed": true,
          "internalType": "uint256",
          "name": "id",
          "type": "uint256"
        }
      ],
      "name": "URI",
      "type": "event"
    },
    {
      "inputs": [],
      "name": "MAX_ATTACK_DEFEND_STRENGTH",
      "outputs": [
        {
          "internalType": "uint256",
          "name": "",
          "type": "uint256"
        }
      ],
      "stateMutability": "view",
      "type": "function"
    },
    {
      "inputs": [
        {
          "internalType": "address",
          "name": "account",
          "type": "address"
        },
        {
          "internalType": "uint256",
          "name": "id",
          "type": "uint256"
        }
      ],
      "name": "balanceOf",
      "outputs": [
        {
          "internalType": "uint256",
          "name": "",
          "type": "uint256"
        }
      ],
      "stateMutability": "view",
      "type": "function"
    },
    {
      "inputs": [
        {
          "internalType": "address[]",
          "name": "accounts",
          "type": "address[]"
        },
        {
          "internalType": "uint256[]",
          "name": "ids",
          "type": "uint256[]"
        }
      ],
      "name": "balanceOfBatch",
      "outputs": [
        {
          "internalType": "uint256[]",
          "name": "",
          "type": "uint256[]"
        }
      ],
      "stateMutability": "view",
      "type": "function"
    },
    {
      "inputs": [],
      "name": "baseURI",
      "outputs": [
        {
          "internalType": "string",
          "name": "",
          "type": "string"
        }
      ],
      "stateMutability": "view",
      "type": "function"
    },
    {
      "inputs": [
        {
          "internalType": "string",
          "name": "_name",
          "type": "string"
        }
      ],
      "name": "createRandomGameToken",
      "outputs": [],
      "stateMutability": "nonpayable",
      "type": "function"
    },
    {
      "inputs": [
        {
          "internalType": "uint256",
          "name": "",
          "type": "uint256"
        }
      ],
      "name": "gameTokens",
      "outputs": [
        {
          "internalType": "string",
          "name": "name",
          "type": "string"
        },
        {
          "internalType": "uint256",
          "name": "id",
          "type": "uint256"
        },
        {
          "internalType": "uint256",
          "name": "attackStrength",
          "type": "uint256"
        },
        {
          "internalType": "uint256",
          "name": "defenseStrength",
          "type": "uint256"
        }
      ],
      "stateMutability": "view",
      "type": "function"
    },
    {
      "inputs": [],
      "name": "getAllPlayers",
      "outputs": [
        {
          "components": [
            {
              "internalType": "address",
              "name": "playerAddress",
              "type": "address"
            },
            {
              "internalType": "string",
              "name": "playerName",
              "type": "string"
            },
            {
              "internalType": "uint256",
              "name": "playerMana",
              "type": "uint256"
            },
            {
              "internalType": "uint256",
              "name": "playerHealth",
              "type": "uint256"
            },
            {
              "internalType": "bool",
              "name": "inBattle",
              "type": "bool"
            }
          ],
          "internalType": "struct MagicalDungeonCreatures.Player[]",
          "name": "",
          "type": "tuple[]"
        }
      ],
      "stateMutability": "view",
      "type": "function"
    },
    {
      "inputs": [
        {
          "internalType": "address",
          "name": "addr",
          "type": "address"
        }
      ],
      "name": "getPlayer",
      "outputs": [
        {
          "components": [
            {
              "internalType": "address",
              "name": "playerAddress",
              "type": "address"
            },
            {
              "internalType": "string",
              "name": "playerName",
              "type": "string"
            },
            {
              "internalType": "uint256",
              "name": "playerMana",
              "type": "uint256"
            },
            {
              "internalType": "uint256",
              "name": "playerHealth",
              "type": "uint256"
            },
            {
              "internalType": "bool",
              "name": "inBattle",
              "type": "bool"
            }
          ],
          "internalType": "struct MagicalDungeonCreatures.Player",
          "name": "",
          "type": "tuple"
        }
      ],
      "stateMutability": "view",
      "type": "function"
    },
    {
      "inputs": [
        {
          "internalType": "address",
          "name": "account",
          "type": "address"
        },
        {
          "internalType": "address",
          "name": "operator",
          "type": "address"
        }
      ],
      "name": "isApprovedForAll",
      "outputs": [
        {
          "internalType": "bool",
          "name": "",
          "type": "bool"
        }
      ],
      "stateMutability": "view",
      "type": "function"
    },
    {
      "inputs": [
        {
          "internalType": "address",
          "name": "addr",
          "type": "address"
        }
      ],
      "name": "isPlayer",
      "outputs": [
        {
          "internalType": "bool",
          "name": "",
          "type": "bool"
        }
      ],
      "stateMutability": "view",
      "type": "function"
    },
    {
      "inputs": [
        {
          "internalType": "address",
          "name": "",
          "type": "address"
        }
      ],
      "name": "playerInfo",
      "outputs": [
        {
          "internalType": "uint256",
          "name": "",
          "type": "uint256"
        }
      ],
      "stateMutability": "view",
      "type": "function"
    },
    {
      "inputs": [
        {
          "internalType": "address",
          "name": "",
          "type": "address"
        }
      ],
      "name": "playerTokenInfo",
      "outputs": [
        {
          "internalType": "uint256",
          "name": "",
          "type": "uint256"
        }
      ],
      "stateMutability": "view",
      "type": "function"
    },
    {
      "inputs": [
        {
          "internalType": "uint256",
          "name": "",
          "type": "uint256"
        }
      ],
      "name": "players",
      "outputs": [
        {
          "internalType": "address",
          "name": "playerAddress",
          "type": "address"
        },
        {
          "internalType": "string",
          "name": "playerName",
          "type": "string"
        },
        {
          "internalType": "uint256",
          "name": "playerMana",
          "type": "uint256"
        },
        {
          "internalType": "uint256",
          "name": "playerHealth",
          "type": "uint256"
        },
        {
          "internalType": "bool",
          "name": "inBattle",
          "type": "bool"
        }
      ],
      "stateMutability": "view",
      "type": "function"
    },
    {
      "inputs": [
        {
          "internalType": "string",
          "name": "_name",
          "type": "string"
        },
        {
          "internalType": "string",
          "name": "_gameTokenName",
          "type": "string"
        }
      ],
      "name": "registerPlayer",
      "outputs": [],
      "stateMutability": "nonpayable",
      "type": "function"
    },
    {
      "inputs": [
        {
          "internalType": "address",
          "name": "from",
          "type": "address"
        },
        {
          "internalType": "address",
          "name": "to",
          "type": "address"
        },
        {
          "internalType": "uint256[]",
          "name": "ids",
          "type": "uint256[]"
        },
        {
          "internalType": "uint256[]",
          "name": "amounts",
          "type": "uint256[]"
        },
        {
          "internalType": "bytes",
          "name": "data",
          "type": "bytes"
        }
      ],
      "name": "safeBatchTransferFrom",
      "outputs": [],
      "stateMutability": "nonpayable",
      "type": "function"
    },
    {
      "inputs": [
        {
          "internalType": "address",
          "name": "from",
          "type": "address"
        },
        {
          "internalType": "address",
          "name": "to",
          "type": "address"
        },
        {
          "internalType": "uint256",
          "name": "id",
          "type": "uint256"
        },
        {
          "internalType": "uint256",
          "name": "amount",
          "type": "uint256"
        },
        {
          "internalType": "bytes",
          "name": "data",
          "type": "bytes"
        }
      ],
      "name": "safeTransferFrom",
      "outputs": [],
      "stateMutability": "nonpayable",
      "type": "function"
    },
    {
      "inputs": [
        {
          "internalType": "address",
          "name": "operator",
          "type": "address"
        },
        {
          "internalType": "bool",
          "name": "approved",
          "type": "bool"
        }
      ],
      "name": "setApprovalForAll",
      "outputs": [],
      "stateMutability": "nonpayable",
      "type": "function"
    },
    {
      "inputs": [
        {
          "internalType": "bytes4",
          "name": "interfaceId",
          "type": "bytes4"
        }
      ],
      "name": "supportsInterface",
      "outputs": [
        {
          "internalType": "bool",
          "name": "",
          "type": "bool"
        }
      ],
      "stateMutability": "view",
      "type": "function"
    },
    {
      "inputs": [],
      "name": "totalSupply",
      "outputs": [
        {
          "internalType": "uint256",
          "name": "",
          "type": "uint256"
        }
      ],
      "stateMutability": "view",
      "type": "function"
    },
    {
      "inputs": [
        {
          "internalType": "uint256",
          "name": "",
          "type": "uint256"
        }
      ],
      "name": "uri",
      "outputs": [
        {
          "internalType": "string",
          "name": "",
          "type": "string"
        }
      ],
      "stateMutability": "view",
      "type": "function"
    }
  ],
  "bytecode": "0x608060405234620007eb5762002ace803803806200001d8162000810565b928339810190602081830312620007eb5780516001600160401b0391828211620007eb570182601f82011215620007eb57805190828211620004ee576200006e601f8301601f191660200162000810565b9382855260208383010111620007eb5760005b828110620007d55750506020600091840101528151818111620004ee57600254600181811c91168015620007ca575b6020821014620004cd57601f811162000771575b50806020601f8211600114620006f957600091620006ed575b508160011b916000199060031b1c1916176002555b8151818111620004ee57600354600181811c91168015620006e2575b6020821014620004cd57601f811162000678575b50602092601f82116001146200060d579281929360009262000601575b50508160011b916000199060031b1c1916176003555b6040516080810181811083821117620004ee5760405262000175620007f0565b6000815281526000602082015260006040820152600060608201526006549068010000000000000000821015620004ee57600182018060065582101562000504576006600052805180517ff652222313e28459528d920b65115c16c04f3efc82aaedc97be59f3f377c0d3f9291858211620004ee578460021b840154600181811c91168015620005f6575b6020821014620004cd57601f8111620005a4575b50602090601f83116001146200052657918060039594926060946000926200051a575b50508160011b9160001990871b1c1916178560021b8401555b602081015160018660021b850101556040810151600286811b8501015501519260021b01015560405160a0810181811083821117620004ee57604052600081526200029a620007f0565b600081526020820190815260006040830152600060608301526000608083015260055468010000000000000000811015620004ee57600181018060055581101562000504576005600081905283517f036b6384b5eca791c62761152d0c79bb0604c104a5fb6f4eb0703f3154bb3db0918302820180546001600160a01b039092166001600160a01b03199092169190911790559151805190948111620004ee5760016005830284010154600181811c91168015620004e3575b6020821014620004cd57601f811162000478575b506020601f8211600114620003f45791816005926004959460809798600092620003e8575b50508160011b916000199060031b1c1916176001838302850101555b60408601516002838302850101556060860151600383830285010155020101910151151560ff801983541691161790556040516122779081620008378239f35b0151905038806200038c565b601f1982169560016005850286010160005260206000209660005b8181106200045f575092608096976004969593600193836005971062000445575b505050811b01600183830285010155620003a8565b015160001960f88460031b161c1916905538808062000430565b838301518955600190980197602093840193016200040f565b6001600584028501016000526020600020601f830160051c81019160208410620004c2575b601f0160051c01905b818110620004b5575062000367565b60008155600101620004a6565b90915081906200049d565b634e487b7160e01b600052602260045260246000fd5b90607f169062000353565b634e487b7160e01b600052604160045260246000fd5b634e487b7160e01b600052603260045260246000fd5b01519050388062000237565b908560021b850160005260206000209160005b601f19851681106200058b575092600395949260019260609583601f1981161062000572575b505050811b018560021b84015562000250565b015160001983891b60f8161c191690553880806200055f565b9192602060018192868501518155019401920162000539565b8560021b85016000526020600020601f840160051c81019160208510620005eb575b601f0160051c01905b818110620005de575062000214565b60008155600101620005cf565b9091508190620005c6565b90607f169062000200565b0151905038806200013f565b601f19821693600360005260206000209160005b8681106200065f575083600195961062000645575b505050811b0160035562000155565b015160001960f88460031b161c1916905538808062000636565b9192602060018192868501518155019401920162000621565b60036000527fc2575a0e9e593c00f959f8c92f12db2869c3395a3b0502d05e2516446f71f85b601f830160051c81019160208410620006d7575b601f0160051c01905b818110620006ca575062000122565b60008155600101620006bb565b9091508190620006b2565b90607f16906200010e565b905083015138620000dd565b6002600090815260008051602062002aae8339815191529250601f198416905b81811062000758575090836001949392106200073e575b5050811b01600255620000f2565b85015160001960f88460031b161c19169055388062000730565b9192602060018192868a01518155019401920162000719565b600260005260008051602062002aae833981519152601f830160051c81019160208410620007bf575b601f0160051c01905b818110620007b25750620000c4565b60008155600101620007a3565b90915081906200079a565b90607f1690620000b0565b8060208092840101518282880101520162000081565b600080fd5b60405190602082016001600160401b03811183821017620004ee57604052565b6040519190601f01601f191682016001600160401b03811183821017620004ee5760405256fe60806040526004361015610013575b600080fd5b60003560e01c8062fdd58e146101a257806301ffc9a71461019957806309c95e10146101905780630daea2cd146101875780630e89341c1461017e57806318160ddd146101755780632711162e1461016c5780632eb2c2d6146101635780634b1146911461015a5780634e1273f4146101515780635c12cd4b146101485780636c0360eb1461013f578063845f433b146101365780639ec40aa31461012d578063a22cb46514610124578063bf034b691461011b578063e985e9c514610112578063efa1c48214610109578063f242432a146101005763f71d96cb146100f857600080fd5b61000e611110565b5061000e610f5d565b5061000e610e90565b5061000e610e32565b5061000e610dc3565b5061000e610c86565b5061000e610c4d565b5061000e610b35565b5061000e610a65565b5061000e610937565b5061000e610835565b5061000e6107b5565b5061000e610605565b5061000e610430565b5061000e6103fa565b5061000e61033b565b5061000e6102ca565b5061000e61029c565b5061000e61022d565b5061000e6101eb565b600435906001600160a01b038216820361000e57565b602435906001600160a01b038216820361000e57565b35906001600160a01b038216820361000e57565b503461000e57604036600319011261000e57602061021361020a6101ab565b60243590611197565b604051908152f35b6001600160e01b031981160361000e57565b503461000e57602036600319011261000e57602060043561024d8161021b565b63ffffffff60e01b16636cdb3d1360e11b811490811561028b575b811561027a575b506040519015158152f35b6301ffc9a760e01b1490503861026f565b6303a24d0760e21b81149150610268565b503461000e57602036600319011261000e5760206102c06102bb6101ab565b61199d565b6040519015158152f35b503461000e57600036600319011261000e576020604051600a8152f35b919082519283825260005b848110610313575050826000602080949584010152601f8019910116010190565b6020818301810151848301820152016102f2565b9060206103389281815201906102e7565b90565b503461000e5760208060031936011261000e5760405160009160025461036081610987565b808452906001908181169081156103da575060011461039a575b6103968461038a818803826104e0565b60405191829182610327565b0390f35b919350600260005283600020916000925b8284106103c757505050816103969361038a928201019361037a565b80548585018701529285019281016103ab565b60ff1916858501525050151560051b820101915061038a8161039661037a565b503461000e57600036600319011261000e576020600454604051908152f35b9060018060a01b0316600052602052604060002090565b503461000e57602036600319011261000e576001600160a01b036104526101ab565b1660005260086020526020604060002054604051908152f35b50634e487b7160e01b600052604160045260246000fd5b60a081019081106001600160401b0382111761049d57604052565b6104a561046b565b604052565b608081019081106001600160401b0382111761049d57604052565b604081019081106001600160401b0382111761049d57604052565b90601f801991011681019081106001600160401b0382111761049d57604052565b6040519061050e82610482565b565b6040519061050e826104aa565b6020906001600160401b038111610536575b60051b0190565b61053e61046b565b61052f565b81601f8201121561000e5780359161055a8361051d565b9261056860405194856104e0565b808452602092838086019260051b82010192831161000e578301905b828210610592575050505090565b81358152908301908301610584565b81601f8201121561000e578035906001600160401b0382116105f8575b604051926105d6601f8401601f1916602001856104e0565b8284526020838301011161000e57816000926020809301838601378301015290565b61060061046b565b6105be565b503461000e5760a036600319011261000e5761061f6101ab565b6106276101c1565b906001600160401b039060443582811161000e57610649903690600401610543565b9160643581811161000e57610662903690600401610543565b9060843590811161000e5761067b9036906004016105a1565b6001600160a01b038381169491903386148015610792575b61069c90611372565b6106a983518551146114b1565b86166106b68115156113d5565b60005b835181101561074c57806106d06107479286611288565b516107406107388b6104196106e5868c611288565b51948c6107278761070483610419866000526000602052604060002090565b546107118282101561142f565b0391610419846000526000602052604060002090565b556000526000602052604060002090565b9182546114a4565b905561126c565b6106b9565b5093869194610790966040517f4a39dc06d4c0dbc64b70af90fd698a233a518aa5d07e595d983b8c0526c8f7fb3391806107878a8a8361150e565b0390a43361190c565b005b50600086815260016020908152604080832033845290915290205460ff16610693565b503461000e57602036600319011261000e576001600160a01b036107d76101ab565b1660005260076020526020604060002054604051908152f35b90815180825260208080930193019160005b828110610810575050505090565b835185529381019392810192600101610802565b9060206103389281815201906107f0565b503461000e57604036600319011261000e576004356001600160401b0380821161000e573660238301121561000e5781600401356108728161051d565b9261088060405194856104e0565b81845260209160248386019160051b8301019136831161000e57602401905b8282106108d8578560243586811161000e57610396916108c66108cc923690600401610543565b906112aa565b60405191829182610824565b8380916108e4846101d7565b81520191019061089f565b9060018060a01b038251168152608080610918602085015160a0602086015260a08501906102e7565b9360408101516040850152606081015160608501520151151591015290565b503461000e57602036600319011261000e5761039661095c6109576101ab565b611ab4565b6040519182916020835260208301906108ef565b50634e487b7160e01b600052600060045260246000fd5b90600182811c921680156109b7575b60208310146109a157565b634e487b7160e01b600052602260045260246000fd5b91607f1691610996565b90604051918260008254926109d584610987565b908184526001948581169081600014610a4257506001146109ff575b505061050e925003836104e0565b9093915060005260209081600020936000915b818310610a2a57505061050e935082010138806109f1565b85548884018501529485019487945091830191610a12565b91505061050e94506020925060ff191682840152151560051b82010138806109f1565b503461000e57600080600319360112610b325760405181600354610a8881610987565b80845290600190818116908115610b0a5750600114610ab1576103968461038a818803826104e0565b60038352602094507fc2575a0e9e593c00f959f8c92f12db2869c3395a3b0502d05e2516446f71f85b5b828410610af757505050816103969361038a928201019361037a565b8054858501870152928501928101610adb565b610396965061038a9450602092508593915060ff191682840152151560051b8201019361037a565b80fd5b503461000e57604036600319011261000e576001600160401b0360043581811161000e57610b679036906004016105a1565b9060243590811161000e57610b809036906004016105a1565b610b893361199d565b610c0c57610bd790600554610bc2610b9f610501565b338152856020820152600a60408201526019606082015260006080820152611bc6565b33600090815260076020526040902055611d55565b7f81ef79d1cda814a60c0fc60792e648a06d9c6bae67176346d1cc8b63030bfccd60405180610c07339482610327565b0390a2005b60405162461bcd60e51b8152602060048201526019602482015278141b185e595c88185b1c9958591e481c9959da5cdd195c9959603a1b6044820152606490fd5b503461000e57602036600319011261000e576004356001600160401b03811161000e57610c816107909136906004016105a1565b611d55565b503461000e57604036600319011261000e57610ca06101ab565b602435801515810361000e576001600160a01b03821691338314610d28573360009081526001602090815260408083206001600160a01b03909416835292905220610cf6908260ff801983541691151516179055565b604051901515815233907f17307eab39ab6107e8899845ad3d59bd9653f200f220920489ca2b5937696c3190602090a3005b60405162461bcd60e51b815260206004820152602960248201527f455243313135353a2073657474696e6720617070726f76616c20737461747573604482015268103337b91039b2b63360b91b6064820152608490fd5b50634e487b7160e01b600052603260045260246000fd5b600654811015610db6575b600660005260206000209060021b0190600090565b610dbe610d7f565b610da1565b503461000e57602036600319011261000e5760043560065481101561000e57610dee610e1e91610d96565b50610df8816109c1565b9060018101549060036002820154910154906040519485946080865260808601906102e7565b926020850152604084015260608301520390f35b503461000e57604036600319011261000e57602060ff610e84610e536101ab565b610e5b6101c1565b6001600160a01b0391821660009081526001865260408082209290931681526020919091522090565b54166040519015158152f35b503461000e57600080600319360112610b32576005908154610eb18161051d565b91610ebf60405193846104e0565b81835260209283810192838684528584208785925b848410610f37575050505050604051938085019181865251809252604082818701971b8601019392955b828710610f0b5785850386f35b909192938280610f27600193603f198a820301865288516108ef565b9601920196019592919092610efe565b9088600192610f49859b98999b611a64565b815201920192019190889097959497610ed4565b503461000e5760a036600319011261000e57610f776101ab565b610f7f6101c1565b608435906064356044356001600160401b03841161000e57610fa86110a49436906004016105a1565b6001600160a01b03868116969194919033881480156110a7575b610fcb90611372565b8216610fd88115156113d5565b610fe184611978565b50610feb85611978565b506000848152602081815260408083206001600160a01b0386168452909152812090989086905461101e8282101561142f565b868b528a602052036110458460408c209060018060a01b0316600052602052604060002090565b5561105e84610419876000526000602052604060002090565b6110698782546114a4565b9055604080518681526020810188905233917fc3d58168c5ae7397731d063d5bbf3d657854427343f4c083240f7aacaa2d0f6291a4336117e6565b80f35b50600088815260016020908152604080832033845290915290205460ff16610fc2565b600554811015611103575b6005600081815291027f036b6384b5eca791c62761152d0c79bb0604c104a5fb6f4eb0703f3154bb3db00191565b61110b610d7f565b6110d5565b503461000e57602036600319011261000e5760043560055481101561000e57611138906110ca565b5080546001600160a01b0316611150600183016109c1565b9160028101549060ff600460038301549201541690611181604051958695865260a0602087015260a08601906102e7565b9260408501526060840152151560808301520390f35b6001600160a01b038116156111cb576000918252602082815260408084206001600160a01b03909316845291905290205490565b60405162461bcd60e51b815260206004820152602a60248201527f455243313135353a2061646472657373207a65726f206973206e6f742061207660448201526930b634b21037bbb732b960b11b6064820152608490fd5b9061122d8261051d565b61123a60405191826104e0565b828152809261124b601f199161051d565b0190602036910137565b50634e487b7160e01b600052601160045260246000fd5b600190600019811461127c570190565b611284611255565b0190565b602091815181101561129d575b60051b010190565b6112a5610d7f565b611295565b919091805183510361131b576112c08151611223565b9060005b815181101561131457806112ff6112ee6112e161130f9486611288565b516001600160a01b031690565b6112f88389611288565b5190611197565b6113098286611288565b5261126c565b6112c4565b5090925050565b60405162461bcd60e51b815260206004820152602960248201527f455243313135353a206163636f756e747320616e6420696473206c656e677468604482015268040dad2e6dac2e8c6d60bb1b6064820152608490fd5b1561137957565b60405162461bcd60e51b815260206004820152602e60248201527f455243313135353a2063616c6c6572206973206e6f7420746f6b656e206f776e60448201526d195c881bdc88185c1c1c9bdd995960921b6064820152608490fd5b156113dc57565b60405162461bcd60e51b815260206004820152602560248201527f455243313135353a207472616e7366657220746f20746865207a65726f206164604482015264647265737360d81b6064820152608490fd5b1561143657565b60405162461bcd60e51b815260206004820152602a60248201527f455243313135353a20696e73756666696369656e742062616c616e636520666f60448201526939103a3930b739b332b960b11b6064820152608490fd5b906001820180921161149c57565b61050e611255565b9190820180921161149c57565b156114b857565b60405162461bcd60e51b815260206004820152602860248201527f455243313135353a2069647320616e6420616d6f756e7473206c656e677468206044820152670dad2e6dac2e8c6d60c31b6064820152608490fd5b9091611525610338936040845260408401906107f0565b9160208184039101526107f0565b9081602091031261000e57516103388161021b565b610338939260a092600180851b031682526000602083015260408201526001606082015281608082015201906102e7565b919261033895949160a094600180871b0380921685521660208401526040830152606082015281608082015201906102e7565b60809060208152602860208201527f455243313135353a204552433131353552656365697665722072656a656374656040820152676420746f6b656e7360c01b60608201520190565b60009060033d1161160257565b905060046000803e60005160e01c90565b600060443d1061033857604051600319913d83016004833e81516001600160401b03918282113d60248401111761167057818401948551938411611678573d850101602084870101116116705750610338929101602001906104e0565b949350505050565b50949350505050565b92919091823b611692575b50505050565b6116b992602092600060405180968195829463f23a6e6160e01b9a8b855260048501611548565b03926001600160a01b03165af1600091816117b6575b5061178e57505060016116e06115f5565b6308c379a01461175f575b6116f9575b3880808061168c565b60405162461bcd60e51b815260206004820152603460248201527f455243313135353a207472616e7366657220746f206e6f6e2d455243313135356044820152732932b1b2b4bb32b91034b6b83632b6b2b73a32b960611b6064820152608490fd5b0390fd5b611767611613565b8061177257506116eb565b60405162461bcd60e51b815290819061175b9060048301610327565b6001600160e01b031916146116f05760405162461bcd60e51b81528061175b600482016115ac565b6117d891925060203d81116117df575b6117d081836104e0565b810190611533565b90386116cf565b503d6117c6565b9493919092813b6117fa575b505050505050565b60006020946118216040519788968795869463f23a6e6160e01b9c8d875260048701611579565b03926001600160a01b03165af16000918161189e575b5061187657505060016118486115f5565b6308c379a014611863575b6116f9575b3880808080806117f2565b61186b611613565b806117725750611853565b6001600160e01b031916146118585760405162461bcd60e51b81528061175b600482016115ac565b6118b791925060203d81116117df576117d081836104e0565b9038611837565b939061033895936118f0916118fe9460018060a01b03809216885216602087015260a0604087015260a08601906107f0565b9084820360608601526107f0565b9160808184039101526102e7565b9493919092813b61191f57505050505050565b60006020946118216040519788968795869463bc197c8160e01b9c8d8752600487016118be565b604051611952816104c5565b60018152600160208201602036823782511561196c575290565b611974610d7f565b5290565b60405190611985826104c5565b6001825260208201602036823782511561196c575290565b6001600160a01b038116600081815260076020526040808220549051611a5594938392611a2a90156119ce846104c5565b600d84526c6973506c617965722066756e6360981b6020850152604051928391611a11602084019663324757b560e21b88526060602486015260848501906102e7565b916044840152606483015203601f1981018352826104e0565b51906a636f6e736f6c652e6c6f675afa506001600160a01b0316600090815260076020526040902090565b54611a5f57600090565b600190565b90604051611a7181610482565b608060ff6004839560018060a01b038154168552611a91600182016109c1565b602086015260028101546040860152600381015460608601520154161515910152565b6080604051611ac281610482565b6000918183809352606060208201528260408201528260608201520152611ae88261199d565b15611b355760056020611b106103389460018060a01b03166000526007602052604060002090565b54928254841015611b28575b82815220910201611a64565b611b30610d7f565b611b1c565b60405162461bcd60e51b8152602060048201526015602482015274506c6179657220646f65736e27742065786973742160581b6044820152606490fd5b90601f8111611b8057505050565b600091825260208220906020601f850160051c83019410611bbc575b601f0160051c01915b828110611bb157505050565b818155600101611ba5565b9092508290611b9c565b60055490600160401b821015611d48575b611be86001928381016005556110ca565b919091611d3b575b805182546001600160a01b0319166001600160a01b039190911617825560208082015180519094808501926001600160401b038311611d2e575b611c3e83611c388654610987565b86611b72565b80601f8411600114611cb0575092828060809460049794611c929761050e9b600094611ca5575b50501b916000199060031b1c19161790555b60408101516002860155606081015160038601550151151590565b91019060ff801983541691151516179055565b015192503880611c65565b9193949596601f198416611cc987600052602060002090565b936000905b828210611d175750509361050e98979360049793611c9297938360809810611cfe575b505050811b019055611c77565b015160001960f88460031b161c19169055388080611cf1565b808886978294978701518155019601940190611cce565b611d3661046b565b611c2a565b611d43610970565b611bf0565b611d5061046b565b611bd7565b6080611d6033611ab4565b0151611dc557611d6f3361199d565b15611d8057611d7d90611fc2565b50565b60405162461bcd60e51b815260206004820152601c60248201527f506c6561736520526567697374657220506c61796572204669727374000000006044820152606490fd5b60405162461bcd60e51b8152602060048201526015602482015274506c6179657220697320696e206120626174746c6560581b6044820152606490fd5b60405190608082018281106001600160401b03821117611e38575b60405260006060838181528260208201528260408201520152565b611e4061046b565b611e1d565b600a0390600a821161149c57565b60ff6001911660ff811461127c570190565b6006549190600160401b831015611f96575b611e88600193848101600655610d96565b919091611f89575b80519384516001600160401b038111611f7c575b611eb281611c388654610987565b60209081601f8211600114611f0b5790806060959493926003979899600092611f00575b505060001982881b1c191690831b1786555b82015190850155604081015160028501550151910155565b015190503880611ed6565b601f19821690611f2087600052602060002090565b9160005b818110611f675750918391600398999a879695606099989510611f4f575b505050811b018655611ee8565b0151600019838a1b60f8161c19169055388080611f42565b8a830151845592860192918501918501611f24565b611f8461046b565b611ea4565b611f91610970565b611e90565b611f9e61046b565b611e77565b60405190611fb0826104c5565b600382526203078360ec1b6020830152565b611fca611e02565b50611fd4336121fa565b611fdd81611e45565b600660ff61203561202f604051602081019061202581612017334286909160349282526001600160601b03199060601b1660208201520190565b03601f1981018352826104e0565b5190206064900690565b60ff1690565b16069060ff8216156120e7575b7fca8ab07e9ed17d119729fc652dd24df9d8430ca862dda4631925b5b4b99da362919261206d610510565b9485526120b460ff851680602088015282604088015283606088015260065461209588611e65565b336000908152600860205260409020556120ad611fa3565b9033612118565b6120c76120c260045461126c565b600455565b6040805160ff95909516855260208501919091528301523391606090a290565b6121117fca8ab07e9ed17d119729fc652dd24df9d8430ca862dda4631925b5b4b99da36292611e53565b9150612042565b6001600160a01b03811692919083156121ab5761050e9361213883611978565b50612141611946565b506000838152602081815260408083206001600160a01b0386168452909152902061216c815461148e565b9055604080518481526001602082015260009133917fc3d58168c5ae7397731d063d5bbf3d657854427343f4c083240f7aacaa2d0f629190a433611681565b60405162461bcd60e51b815260206004820152602160248201527f455243313135353a206d696e7420746f20746865207a65726f206164647265736044820152607360f81b6064820152608490fd5b600a9060405160208101914483524260408301526001600160601b03199060601b1660608201526054815261222e816104aa565b51902006801561223b5790565b5060059056fea2646970667358221220b340b5ebf20c71b47fd4a7cdc25f40ff6026a721775c21440f7501b2f04a160f64736f6c63430008110033405787fa12a823e0f2b7631cc41b3ba8828b3321ca811111fa75cd3aa3bb5ace",
  "linkReferences": {},
  "deployedLinkReferences": {}
}