{
  "_format": "hh-sol-artifact-1",
  "contractName": "MagicalDungeonCreatures",
  "sourceName": "contracts/MagicalDungeonCreatures.sol",
  "abi": [
    {
      "inputs": [
        {
          "internalType": "string",
          "name": "_metadataURI",
          "type": "string"
        }
      ],
      "stateMutability": "nonpayable",
      "type": "constructor"
    },
    {
      "anonymous": false,
      "inputs": [
        {
          "indexed": true,
          "internalType": "address",
          "name": "account",
          "type": "address"
        },
        {
          "indexed": true,
          "internalType": "address",
          "name": "operator",
          "type": "address"
        },
        {
          "indexed": false,
          "internalType": "bool",
          "name": "approved",
          "type": "bool"
        }
      ],
      "name": "ApprovalForAll",
      "type": "event"
    },
    {
      "anonymous": false,
      "inputs": [
        {
          "indexed": true,
          "internalType": "address",
          "name": "owner",
          "type": "address"
        },
        {
          "indexed": false,
          "internalType": "uint256",
          "name": "id",
          "type": "uint256"
        },
        {
          "indexed": false,
          "internalType": "uint256",
          "name": "attackStrength",
          "type": "uint256"
        },
        {
          "indexed": false,
          "internalType": "uint256",
          "name": "defenseStrength",
          "type": "uint256"
        }
      ],
      "name": "NewGameToken",
      "type": "event"
    },
    {
      "anonymous": false,
      "inputs": [
        {
          "indexed": true,
          "internalType": "address",
          "name": "owner",
          "type": "address"
        },
        {
          "indexed": false,
          "internalType": "string",
          "name": "name",
          "type": "string"
        }
      ],
      "name": "NewPlayer",
      "type": "event"
    },
    {
      "anonymous": false,
      "inputs": [
        {
          "indexed": true,
          "internalType": "address",
          "name": "operator",
          "type": "address"
        },
        {
          "indexed": true,
          "internalType": "address",
          "name": "from",
          "type": "address"
        },
        {
          "indexed": true,
          "internalType": "address",
          "name": "to",
          "type": "address"
        },
        {
          "indexed": false,
          "internalType": "uint256[]",
          "name": "ids",
          "type": "uint256[]"
        },
        {
          "indexed": false,
          "internalType": "uint256[]",
          "name": "values",
          "type": "uint256[]"
        }
      ],
      "name": "TransferBatch",
      "type": "event"
    },
    {
      "anonymous": false,
      "inputs": [
        {
          "indexed": true,
          "internalType": "address",
          "name": "operator",
          "type": "address"
        },
        {
          "indexed": true,
          "internalType": "address",
          "name": "from",
          "type": "address"
        },
        {
          "indexed": true,
          "internalType": "address",
          "name": "to",
          "type": "address"
        },
        {
          "indexed": false,
          "internalType": "uint256",
          "name": "id",
          "type": "uint256"
        },
        {
          "indexed": false,
          "internalType": "uint256",
          "name": "value",
          "type": "uint256"
        }
      ],
      "name": "TransferSingle",
      "type": "event"
    },
    {
      "anonymous": false,
      "inputs": [
        {
          "indexed": false,
          "internalType": "string",
          "name": "value",
          "type": "string"
        },
        {
          "indexed": true,
          "internalType": "uint256",
          "name": "id",
          "type": "uint256"
        }
      ],
      "name": "URI",
      "type": "event"
    },
    {
      "inputs": [],
      "name": "MAX_ATTACK_DEFEND_STRENGTH",
      "outputs": [
        {
          "internalType": "uint256",
          "name": "",
          "type": "uint256"
        }
      ],
      "stateMutability": "view",
      "type": "function"
    },
    {
      "inputs": [
        {
          "internalType": "address",
          "name": "account",
          "type": "address"
        },
        {
          "internalType": "uint256",
          "name": "id",
          "type": "uint256"
        }
      ],
      "name": "balanceOf",
      "outputs": [
        {
          "internalType": "uint256",
          "name": "",
          "type": "uint256"
        }
      ],
      "stateMutability": "view",
      "type": "function"
    },
    {
      "inputs": [
        {
          "internalType": "address[]",
          "name": "accounts",
          "type": "address[]"
        },
        {
          "internalType": "uint256[]",
          "name": "ids",
          "type": "uint256[]"
        }
      ],
      "name": "balanceOfBatch",
      "outputs": [
        {
          "internalType": "uint256[]",
          "name": "",
          "type": "uint256[]"
        }
      ],
      "stateMutability": "view",
      "type": "function"
    },
    {
      "inputs": [],
      "name": "baseURI",
      "outputs": [
        {
          "internalType": "string",
          "name": "",
          "type": "string"
        }
      ],
      "stateMutability": "view",
      "type": "function"
    },
    {
      "inputs": [
        {
          "internalType": "string",
          "name": "",
          "type": "string"
        }
      ],
      "name": "battleInfo",
      "outputs": [
        {
          "internalType": "uint256",
          "name": "",
          "type": "uint256"
        }
      ],
      "stateMutability": "view",
      "type": "function"
    },
    {
      "inputs": [
        {
          "internalType": "uint256",
          "name": "",
          "type": "uint256"
        }
      ],
      "name": "battles",
      "outputs": [
        {
          "internalType": "enum MagicalDungeonCreatures.BattleStatus",
          "name": "battleStatus",
          "type": "uint8"
        },
        {
          "internalType": "bytes32",
          "name": "battleHash",
          "type": "bytes32"
        },
        {
          "internalType": "string",
          "name": "name",
          "type": "string"
        },
        {
          "internalType": "address",
          "name": "winner",
          "type": "address"
        }
      ],
      "stateMutability": "view",
      "type": "function"
    },
    {
      "inputs": [
        {
          "internalType": "string",
          "name": "_name",
          "type": "string"
        }
      ],
      "name": "createBattle",
      "outputs": [
        {
          "components": [
            {
              "internalType": "enum MagicalDungeonCreatures.BattleStatus",
              "name": "battleStatus",
              "type": "uint8"
            },
            {
              "internalType": "bytes32",
              "name": "battleHash",
              "type": "bytes32"
            },
            {
              "internalType": "string",
              "name": "name",
              "type": "string"
            },
            {
              "internalType": "address[2]",
              "name": "players",
              "type": "address[2]"
            },
            {
              "internalType": "uint8[2]",
              "name": "moves",
              "type": "uint8[2]"
            },
            {
              "internalType": "address",
              "name": "winner",
              "type": "address"
            }
          ],
          "internalType": "struct MagicalDungeonCreatures.Battle",
          "name": "",
          "type": "tuple"
        }
      ],
      "stateMutability": "nonpayable",
      "type": "function"
    },
    {
      "inputs": [
        {
          "internalType": "string",
          "name": "_name",
          "type": "string"
        }
      ],
      "name": "createRandomGameToken",
      "outputs": [],
      "stateMutability": "nonpayable",
      "type": "function"
    },
    {
      "inputs": [
        {
          "internalType": "uint256",
          "name": "",
          "type": "uint256"
        }
      ],
      "name": "gameTokens",
      "outputs": [
        {
          "internalType": "string",
          "name": "name",
          "type": "string"
        },
        {
          "internalType": "uint256",
          "name": "id",
          "type": "uint256"
        },
        {
          "internalType": "uint256",
          "name": "attackStrength",
          "type": "uint256"
        },
        {
          "internalType": "uint256",
          "name": "defenseStrength",
          "type": "uint256"
        }
      ],
      "stateMutability": "view",
      "type": "function"
    },
    {
      "inputs": [],
      "name": "getAllPlayers",
      "outputs": [
        {
          "components": [
            {
              "internalType": "address",
              "name": "playerAddress",
              "type": "address"
            },
            {
              "internalType": "string",
              "name": "playerName",
              "type": "string"
            },
            {
              "internalType": "uint256",
              "name": "playerMana",
              "type": "uint256"
            },
            {
              "internalType": "uint256",
              "name": "playerHealth",
              "type": "uint256"
            },
            {
              "internalType": "bool",
              "name": "inBattle",
              "type": "bool"
            }
          ],
          "internalType": "struct MagicalDungeonCreatures.Player[]",
          "name": "",
          "type": "tuple[]"
        }
      ],
      "stateMutability": "view",
      "type": "function"
    },
    {
      "inputs": [
        {
          "internalType": "address",
          "name": "addr",
          "type": "address"
        }
      ],
      "name": "getPlayer",
      "outputs": [
        {
          "components": [
            {
              "internalType": "address",
              "name": "playerAddress",
              "type": "address"
            },
            {
              "internalType": "string",
              "name": "playerName",
              "type": "string"
            },
            {
              "internalType": "uint256",
              "name": "playerMana",
              "type": "uint256"
            },
            {
              "internalType": "uint256",
              "name": "playerHealth",
              "type": "uint256"
            },
            {
              "internalType": "bool",
              "name": "inBattle",
              "type": "bool"
            }
          ],
          "internalType": "struct MagicalDungeonCreatures.Player",
          "name": "",
          "type": "tuple"
        }
      ],
      "stateMutability": "view",
      "type": "function"
    },
    {
      "inputs": [
        {
          "internalType": "address",
          "name": "account",
          "type": "address"
        },
        {
          "internalType": "address",
          "name": "operator",
          "type": "address"
        }
      ],
      "name": "isApprovedForAll",
      "outputs": [
        {
          "internalType": "bool",
          "name": "",
          "type": "bool"
        }
      ],
      "stateMutability": "view",
      "type": "function"
    },
    {
      "inputs": [
        {
          "internalType": "string",
          "name": "_name",
          "type": "string"
        }
      ],
      "name": "isBattle",
      "outputs": [
        {
          "internalType": "bool",
          "name": "",
          "type": "bool"
        }
      ],
      "stateMutability": "view",
      "type": "function"
    },
    {
      "inputs": [
        {
          "internalType": "address",
          "name": "addr",
          "type": "address"
        }
      ],
      "name": "isPlayer",
      "outputs": [
        {
          "internalType": "bool",
          "name": "",
          "type": "bool"
        }
      ],
      "stateMutability": "view",
      "type": "function"
    },
    {
      "inputs": [
        {
          "internalType": "address",
          "name": "addr",
          "type": "address"
        }
      ],
      "name": "isPlayerToken",
      "outputs": [
        {
          "internalType": "bool",
          "name": "",
          "type": "bool"
        }
      ],
      "stateMutability": "view",
      "type": "function"
    },
    {
      "inputs": [
        {
          "internalType": "address",
          "name": "",
          "type": "address"
        }
      ],
      "name": "playerInfo",
      "outputs": [
        {
          "internalType": "uint256",
          "name": "",
          "type": "uint256"
        }
      ],
      "stateMutability": "view",
      "type": "function"
    },
    {
      "inputs": [
        {
          "internalType": "address",
          "name": "",
          "type": "address"
        }
      ],
      "name": "playerTokenInfo",
      "outputs": [
        {
          "internalType": "uint256",
          "name": "",
          "type": "uint256"
        }
      ],
      "stateMutability": "view",
      "type": "function"
    },
    {
      "inputs": [
        {
          "internalType": "uint256",
          "name": "",
          "type": "uint256"
        }
      ],
      "name": "players",
      "outputs": [
        {
          "internalType": "address",
          "name": "playerAddress",
          "type": "address"
        },
        {
          "internalType": "string",
          "name": "playerName",
          "type": "string"
        },
        {
          "internalType": "uint256",
          "name": "playerMana",
          "type": "uint256"
        },
        {
          "internalType": "uint256",
          "name": "playerHealth",
          "type": "uint256"
        },
        {
          "internalType": "bool",
          "name": "inBattle",
          "type": "bool"
        }
      ],
      "stateMutability": "view",
      "type": "function"
    },
    {
      "inputs": [
        {
          "internalType": "string",
          "name": "_name",
          "type": "string"
        },
        {
          "internalType": "string",
          "name": "_gameTokenName",
          "type": "string"
        }
      ],
      "name": "registerPlayer",
      "outputs": [],
      "stateMutability": "nonpayable",
      "type": "function"
    },
    {
      "inputs": [
        {
          "internalType": "address",
          "name": "from",
          "type": "address"
        },
        {
          "internalType": "address",
          "name": "to",
          "type": "address"
        },
        {
          "internalType": "uint256[]",
          "name": "ids",
          "type": "uint256[]"
        },
        {
          "internalType": "uint256[]",
          "name": "amounts",
          "type": "uint256[]"
        },
        {
          "internalType": "bytes",
          "name": "data",
          "type": "bytes"
        }
      ],
      "name": "safeBatchTransferFrom",
      "outputs": [],
      "stateMutability": "nonpayable",
      "type": "function"
    },
    {
      "inputs": [
        {
          "internalType": "address",
          "name": "from",
          "type": "address"
        },
        {
          "internalType": "address",
          "name": "to",
          "type": "address"
        },
        {
          "internalType": "uint256",
          "name": "id",
          "type": "uint256"
        },
        {
          "internalType": "uint256",
          "name": "amount",
          "type": "uint256"
        },
        {
          "internalType": "bytes",
          "name": "data",
          "type": "bytes"
        }
      ],
      "name": "safeTransferFrom",
      "outputs": [],
      "stateMutability": "nonpayable",
      "type": "function"
    },
    {
      "inputs": [
        {
          "internalType": "address",
          "name": "operator",
          "type": "address"
        },
        {
          "internalType": "bool",
          "name": "approved",
          "type": "bool"
        }
      ],
      "name": "setApprovalForAll",
      "outputs": [],
      "stateMutability": "nonpayable",
      "type": "function"
    },
    {
      "inputs": [
        {
          "internalType": "bytes4",
          "name": "interfaceId",
          "type": "bytes4"
        }
      ],
      "name": "supportsInterface",
      "outputs": [
        {
          "internalType": "bool",
          "name": "",
          "type": "bool"
        }
      ],
      "stateMutability": "view",
      "type": "function"
    },
    {
      "inputs": [],
      "name": "totalSupply",
      "outputs": [
        {
          "internalType": "uint256",
          "name": "",
          "type": "uint256"
        }
      ],
      "stateMutability": "view",
      "type": "function"
    },
    {
      "inputs": [
        {
          "internalType": "uint256",
          "name": "",
          "type": "uint256"
        }
      ],
      "name": "uri",
      "outputs": [
        {
          "internalType": "string",
          "name": "",
          "type": "string"
        }
      ],
      "stateMutability": "view",
      "type": "function"
    }
  ],
  "bytecode": "0x60806040523462000a865762003464803803806200001d8162000acb565b92833981019060208183031262000a86578051906001600160401b03821162000a86570181601f8201121562000a86578051906001600160401b038211620006f25762000074601f8301601f191660200162000acb565b928284526020838301011162000a865760005b82811062000a7057600083850160200152835184906001600160401b038111620006f257600254600181811c9116801562000a65575b6020821014620006d157601f811162000a23575b50806020601f8211600114620009ab576000916200099f575b508160011b916000199060031b1c1916176002555b80516001600160401b038111620006f257600354600181811c9116801562000994575b6020821014620006d157601f811162000941575b50602091601f8211600114620008d757918192600092620008cb575b50508160011b916000199060031b1c1916176003555b604051608081016001600160401b03811182821017620006f2576040526200018f62000aab565b600081528152602081019060008252604081016000815260608201906000825260065468010000000000000000811015620006f25760018101806006558110156200071e576006600052925180519460029490941b7ff652222313e28459528d920b65115c16c04f3efc82aaedc97be59f3f377c0d3f0193906001600160401b038611620006f2578454600181811c91168015620008c0575b6020821014620006d157601f81116200088a575b50602090601f87116001146200081b57958091600396976000926200080f575b50508160011b9160001990871b1c19161785555b5160018501555160028401555191015560405160a081016001600160401b03811182821017620006f25760405260008152620002ab62000aab565b6000815260208201526000604082015260006060820152600060808201526005549068010000000000000000821015620006f25760018201806005558210156200071e576005600081905281517f036b6384b5eca791c62761152d0c79bb0604c104a5fb6f4eb0703f3154bb3db0918402820180546001600160a01b039092166001600160a01b0319909216919091179055602082015180519093906001600160401b038111620006f25760016005830284010154600181811c9116801562000804575b6020821014620006d157601f8111620007c6575b506020601f821160011462000740579181600592600495946080979860009262000734575b50508160011b916000199060031b1c1916176001838302850101555b60408601516002838302850101556060860151600383830285010155020101910151151560ff80198354169116179055620003fe62000a8b565b60008152600060208201526200041362000a8b565b60008082526020820152604051916001600160401b0360c0840190811190841117620006f25760c0830160405260008352600060208401526200045562000aab565b60008152604084015260608301526080820152600060a08201526007549068010000000000000000821015620006f25760018201806007558210156200071e57600760005280517fa66cc928b5edb82af9bd49922954155ab7b0942694bea4ce44661d9a8736c6889060038110156200070857600784028201805460ff191660ff929092169190911781556020830151600182015560408301518051600290920191906001600160401b038211620006f257825490600182811c92168015620006e7575b6020831014620006d15781601f8493116200068f575b50602090601f8311600114620006245760009262000618575b50508160011b916000199060031b1c19161790555b606082015160005b60028110620005f2575050608082015192600093845b60028110620005ca576007830284016005810187905560a086015160069190910180546001600160a01b0319166001600160a01b0392909216919091179055604051612939908162000b0b8239f35b9094602060019160ff885116908460031b60ff811b9283911b1691191617960191016200057b565b81516001600160a01b031660036007870285018301015560209091019060010162000565565b01519050868062000548565b6000858152602081209350601f198516905b8181106200067657509084600195949392106200065c575b505050811b0190556200055d565b015160001960f88460031b161c191690558680806200064e565b9293602060018192878601518155019501930162000636565b620006bf90856000526020600020601f850160051c81019160208610620006c6575b601f0160051c019062000af1565b876200052f565b9091508190620006b1565b634e487b7160e01b600052602260045260246000fd5b91607f169162000519565b634e487b7160e01b600052604160045260246000fd5b634e487b7160e01b600052602160045260246000fd5b634e487b7160e01b600052603260045260246000fd5b015190508880620003a8565b60016005840285010160005260206000209560005b601f1984168110620007ad575082608096976004969593600193600596601f1981161062000793575b505050811b01600183830285010155620003c4565b015160001960f88460031b161c191690558880806200077e565b8282015188556001909701966020928301920162000755565b620007fd906001600585028601016000526020600020601f840160051c81019160208510620006c657601f0160051c019062000af1565b8562000383565b90607f16906200036f565b0151905087806200025c565b90601f198716918660005260206000209260005b8181106200087157509160019391896003999a941062000858575b505050811b01855562000270565b015160001983891b60f8161c191690558780806200084a565b929360206001819287860151815501950193016200082f565b620008b990866000526020600020601f890160051c81019160208a10620006c657601f0160051c019062000af1565b866200023c565b90607f169062000228565b01519050828062000152565b601f19821692600360005260206000209160005b85811062000928575083600195106200090e575b505050811b0160035562000168565b015160001960f88460031b161c19169055828080620008ff565b91926020600181928685015181550194019201620008eb565b60036000526200098d907fc2575a0e9e593c00f959f8c92f12db2869c3395a3b0502d05e2516446f71f85b601f840160051c81019160208510620006c657601f0160051c019062000af1565b8262000136565b90607f169062000122565b905082015183620000ea565b60026000908152600080516020620034448339815191529250601f198416905b81811062000a0a57509083600194939210620009f0575b5050811b01600255620000ff565b84015160001960f88460031b161c191690558380620009e2565b91926020600181928689015181550194019201620009cb565b600260005262000a5e9060008051602062003444833981519152601f840160051c81019160208510620006c657601f0160051c019062000af1565b82620000d1565b90607f1690620000bd565b8060208092840101518282870101520162000087565b600080fd5b60408051919082016001600160401b03811183821017620006f257604052565b60405190602082016001600160401b03811183821017620006f257604052565b6040519190601f01601f191682016001600160401b03811183821017620006f257604052565b81811062000afd575050565b6000815560010162000af156fe60806040526004361015610013575b600080fd5b60003560e01c8062fdd58e1461020657806301ffc9a7146101fd57806309c95e10146101f45780630daea2cd146101eb5780630e89341c146101e25780631107ae3d146101d957806318160ddd146101d05780632711162e146101c75780632ca04522146101be5780632eb2c2d6146101b55780633835e2b5146101ac5780634b114691146101a35780634e1273f41461019a5780635c12cd4b14610191578063606d2e96146101885780636c0360eb1461017f578063845f433b146101765780639ec40aa31461016d578063a22cb46514610164578063bf034b691461015b578063bf103a4d14610152578063e985e9c514610149578063efa1c48214610140578063f242432a146101375763f71d96cb1461012f57600080fd5b61000e6114e2565b5061000e61132f565b5061000e611262565b5061000e611204565b5061000e6111e0565b5061000e611171565b5061000e61104b565b5061000e611034565b5061000e610f1c565b5061000e610e4c565b5061000e610db3565b5061000e610c3f565b5061000e610b3d565b5061000e610abd565b5061000e610a82565b5061000e6108ac565b5061000e61074b565b5061000e610621565b5061000e6105eb565b5061000e6105d2565b5061000e6103a7565b5061000e61032e565b5061000e610300565b5061000e610291565b5061000e61024f565b600435906001600160a01b038216820361000e57565b602435906001600160a01b038216820361000e57565b35906001600160a01b038216820361000e57565b503461000e57604036600319011261000e57602061027761026e61020f565b60243590611569565b604051908152f35b6001600160e01b031981160361000e57565b503461000e57602036600319011261000e5760206004356102b18161027f565b63ffffffff60e01b16636cdb3d1360e11b81149081156102ef575b81156102de575b506040519015158152f35b6301ffc9a760e01b149050386102d3565b6303a24d0760e21b811491506102cc565b503461000e57602036600319011261000e57602061032461031f61020f565b611d6f565b6040519015158152f35b503461000e57600036600319011261000e576020604051600a8152f35b60005b83811061035e5750506000910152565b818101518382015260200161034e565b906020916103878151809281855285808601910161034b565b601f01601f1916010190565b9060206103a492818152019061036e565b90565b503461000e5760208060031936011261000e576040516000916002546103cc81610cd5565b808452906001908181169081156104465750600114610406575b610402846103f6818803826104db565b60405191829182610393565b0390f35b919350600260005283600020916000925b8284106104335750505081610402936103f692820101936103e6565b8054858501870152928501928101610417565b60ff1916858501525050151560051b82010191506103f6816104026103e6565b50634e487b7160e01b600052604160045260246000fd5b60a081019081106001600160401b0382111761049857604052565b6104a0610466565b604052565b608081019081106001600160401b0382111761049857604052565b604081019081106001600160401b0382111761049857604052565b90601f801991011681019081106001600160401b0382111761049857604052565b6040519060c082018281106001600160401b0382111761049857604052565b604051906105288261047d565b565b60405190610528826104a5565b60405190610528826104c0565b81601f8201121561000e578035906001600160401b03821161059b575b60405192610579601f8401601f1916602001856104db565b8284526020838301011161000e57816000926020809301838601378301015290565b6105a3610466565b610561565b602060031982011261000e57600435906001600160401b03821161000e576103a491600401610544565b503461000e5760206103246105e6366105a8565b611e36565b503461000e57600036600319011261000e576020600454604051908152f35b9060018060a01b0316600052602052604060002090565b503461000e57602036600319011261000e576001600160a01b0361064361020f565b1660005260096020526020604060002054604051908152f35b9060038210156106695752565b634e487b7160e01b600052602160045260246000fd5b6000915b6002831061069057505050565b60019060ff83511681526020809101920192019190610683565b91906020928381526106bf848201835161065c565b83820151604082015260408201516106e56101009182606085015261012084019061036e565b9260608101516080840190966000915b6002831061072c575050506103a4939495508061071c608060a093015160c086019061067f565b01516001600160a01b0316910152565b88516001600160a01b03168152978101976001929092019181016106f5565b503461000e5761040261075d366105a8565b610765612707565b5061077761077233611d6f565b61222c565b61078f61078a61078683611e36565b1590565b612773565b60405160208101906107b3816107a58585610393565b03601f1981018352826104db565b519020906107bf610537565b338152600060208201526107d1610537565b9060008252600060208301526107e56104fc565b9360008552602085015282604085015260608401526080830152600060a083015261081260075491610a5c565b5561081c81612838565b604051918291826106aa565b6020906001600160401b038111610841575b60051b0190565b610849610466565b61083a565b81601f8201121561000e5780359161086583610828565b9261087360405194856104db565b808452602092838086019260051b82010192831161000e578301905b82821061089d575050505090565b8135815290830190830161088f565b503461000e5760a036600319011261000e576108c661020f565b6108ce610225565b906001600160401b039060443582811161000e576108f090369060040161084e565b9160643581811161000e5761090990369060040161084e565b9060843590811161000e57610922903690600401610544565b6001600160a01b038381169491903386148015610a39575b61094390611744565b6109508351855114611883565b861661095d8115156117a7565b60005b83518110156109f357806109776109ee928661165a565b516109e76109df8b61060a61098c868c61165a565b51948c6109ce876109ab8361060a866000526000602052604060002090565b546109b882821015611801565b039161060a846000526000602052604060002090565b556000526000602052604060002090565b918254611876565b905561163e565b610960565b5093869194610a37966040517f4a39dc06d4c0dbc64b70af90fd698a233a518aa5d07e595d983b8c0526c8f7fb339180610a2e8a8a836118e0565b0390a433611cde565b005b50600086815260016020908152604080832033845290915290205460ff1661093a565b6020610a7591816040519382858094519384920161034b565b8101600a81520301902090565b503461000e576020610aaa81610a97366105a8565b816040519382858094519384920161034b565b8101600a81520301902054604051908152f35b503461000e57602036600319011261000e576001600160a01b03610adf61020f565b1660005260086020526020604060002054604051908152f35b90815180825260208080930193019160005b828110610b18575050505090565b835185529381019392810192600101610b0a565b9060206103a4928181520190610af8565b503461000e57604036600319011261000e576004356001600160401b0380821161000e573660238301121561000e578160040135610b7a81610828565b92610b8860405194856104db565b81845260209160248386019160051b8301019136831161000e57602401905b828210610be0578560243586811161000e5761040291610bce610bd492369060040161084e565b9061167c565b60405191829182610b2c565b838091610bec8461023b565b815201910190610ba7565b9060018060a01b038251168152608080610c20602085015160a0602086015260a085019061036e565b9360408101516040850152606081015160608501520151151591015290565b503461000e57602036600319011261000e57610402610c64610c5f61020f565b611e8f565b604051918291602083526020830190610bf7565b50634e487b7160e01b600052603260045260246000fd5b600754811015610cc8575b6007600081815291027fa66cc928b5edb82af9bd49922954155ab7b0942694bea4ce44661d9a8736c6880191565b610cd0610c78565b610c9a565b90600182811c92168015610d05575b6020831014610cef57565b634e487b7160e01b600052602260045260246000fd5b91607f1691610ce4565b9060405191826000825492610d2384610cd5565b908184526001948581169081600014610d905750600114610d4d575b5050610528925003836104db565b9093915060005260209081600020936000915b818310610d7857505061052893508201013880610d3f565b85548884018501529485019487945091830191610d60565b91505061052894506020925060ff191682840152151560051b8201013880610d3f565b503461000e57602036600319011261000e5760043560075481101561000e57610dde610e1591610c8f565b5060ff81541690610e2b600182015491610dfa60028201610d0f565b90600660018060a01b0391015416926040519586809661065c565b602085015260806040850152608084019061036e565b9060608301520390f35b50634e487b7160e01b600052600060045260246000fd5b503461000e57600080600319360112610f195760405181600354610e6f81610cd5565b80845290600190818116908115610ef15750600114610e9857610402846103f6818803826104db565b60038352602094507fc2575a0e9e593c00f959f8c92f12db2869c3395a3b0502d05e2516446f71f85b5b828410610ede5750505081610402936103f692820101936103e6565b8054858501870152928501928101610ec2565b61040296506103f69450602092508593915060ff191682840152151560051b820101936103e6565b80fd5b503461000e57604036600319011261000e576001600160401b0360043581811161000e57610f4e903690600401610544565b9060243590811161000e57610f67903690600401610544565b610f7033611d6f565b610ff357610fbe90600554610fa9610f8661051b565b338152856020820152600a6040820152601960608201526000608082015261209e565b33600090815260086020526040902055612278565b7f81ef79d1cda814a60c0fc60792e648a06d9c6bae67176346d1cc8b63030bfccd60405180610fee339482610393565b0390a2005b60405162461bcd60e51b8152602060048201526019602482015278141b185e595c88185b1c9958591e481c9959da5cdd195c9959603a1b6044820152606490fd5b503461000e57610a37611046366105a8565b612278565b503461000e57604036600319011261000e5761106561020f565b602435801515810361000e576001600160a01b038216913383146110ed573360009081526001602090815260408083206001600160a01b039094168352929052206110bb908260ff801983541691151516179055565b604051901515815233907f17307eab39ab6107e8899845ad3d59bd9653f200f220920489ca2b5937696c3190602090a3005b60405162461bcd60e51b815260206004820152602960248201527f455243313135353a2073657474696e6720617070726f76616c20737461747573604482015268103337b91039b2b63360b91b6064820152608490fd5b600654811015611164575b600660005260206000209060021b0190600090565b61116c610c78565b61114f565b503461000e57602036600319011261000e5760043560065481101561000e5761119c6111cc91611144565b506111a681610d0f565b90600181015490600360028201549101549060405194859460808652608086019061036e565b926020850152604084015260608301520390f35b503461000e57602036600319011261000e5760206103246111ff61020f565b611f4d565b503461000e57604036600319011261000e57602060ff61125661122561020f565b61122d610225565b6001600160a01b0391821660009081526001865260408082209290931681526020919091522090565b54166040519015158152f35b503461000e57600080600319360112610f1957600590815461128381610828565b9161129160405193846104db565b81835260209283810192838684528584208785925b848410611309575050505050604051938085019181865251809252604082818701971b8601019392955b8287106112dd5785850386f35b9091929382806112f9600193603f198a82030186528851610bf7565b96019201960195929190926112d0565b908860019261131b859b98999b611e3f565b8152019201920191908890979594976112a6565b503461000e5760a036600319011261000e5761134961020f565b611351610225565b608435906064356044356001600160401b03841161000e5761137a611476943690600401610544565b6001600160a01b0386811696919491903388148015611479575b61139d90611744565b82166113aa8115156117a7565b6113b384611d4a565b506113bd85611d4a565b506000848152602081815260408083206001600160a01b038616845290915281209098908690546113f082821015611801565b868b528a602052036114178460408c209060018060a01b0316600052602052604060002090565b556114308461060a876000526000602052604060002090565b61143b878254611876565b9055604080518681526020810188905233917fc3d58168c5ae7397731d063d5bbf3d657854427343f4c083240f7aacaa2d0f6291a433611bb8565b80f35b50600088815260016020908152604080832033845290915290205460ff16611394565b6005548110156114d5575b6005600081815291027f036b6384b5eca791c62761152d0c79bb0604c104a5fb6f4eb0703f3154bb3db00191565b6114dd610c78565b6114a7565b503461000e57602036600319011261000e5760043560055481101561000e5761150a9061149c565b5080546001600160a01b031661152260018301610d0f565b9160028101549060ff600460038301549201541690611553604051958695865260a0602087015260a086019061036e565b9260408501526060840152151560808301520390f35b6001600160a01b0381161561159d576000918252602082815260408084206001600160a01b03909316845291905290205490565b60405162461bcd60e51b815260206004820152602a60248201527f455243313135353a2061646472657373207a65726f206973206e6f742061207660448201526930b634b21037bbb732b960b11b6064820152608490fd5b906115ff82610828565b61160c60405191826104db565b828152809261161d601f1991610828565b0190602036910137565b50634e487b7160e01b600052601160045260246000fd5b600190600019811461164e570190565b611656611627565b0190565b602091815181101561166f575b60051b010190565b611677610c78565b611667565b91909180518351036116ed5761169281516115f5565b9060005b81518110156116e657806116d16116c06116b36116e1948661165a565b516001600160a01b031690565b6116ca838961165a565b5190611569565b6116db828661165a565b5261163e565b611696565b5090925050565b60405162461bcd60e51b815260206004820152602960248201527f455243313135353a206163636f756e747320616e6420696473206c656e677468604482015268040dad2e6dac2e8c6d60bb1b6064820152608490fd5b1561174b57565b60405162461bcd60e51b815260206004820152602e60248201527f455243313135353a2063616c6c6572206973206e6f7420746f6b656e206f776e60448201526d195c881bdc88185c1c1c9bdd995960921b6064820152608490fd5b156117ae57565b60405162461bcd60e51b815260206004820152602560248201527f455243313135353a207472616e7366657220746f20746865207a65726f206164604482015264647265737360d81b6064820152608490fd5b1561180857565b60405162461bcd60e51b815260206004820152602a60248201527f455243313135353a20696e73756666696369656e742062616c616e636520666f60448201526939103a3930b739b332b960b11b6064820152608490fd5b906001820180921161186e57565b610528611627565b9190820180921161186e57565b1561188a57565b60405162461bcd60e51b815260206004820152602860248201527f455243313135353a2069647320616e6420616d6f756e7473206c656e677468206044820152670dad2e6dac2e8c6d60c31b6064820152608490fd5b90916118f76103a493604084526040840190610af8565b916020818403910152610af8565b9081602091031261000e57516103a48161027f565b6103a4939260a092600180851b0316825260006020830152604082015260016060820152816080820152019061036e565b91926103a495949160a094600180871b03809216855216602084015260408301526060820152816080820152019061036e565b60809060208152602860208201527f455243313135353a204552433131353552656365697665722072656a656374656040820152676420746f6b656e7360c01b60608201520190565b60009060033d116119d457565b905060046000803e60005160e01c90565b600060443d106103a457604051600319913d83016004833e81516001600160401b03918282113d602484011117611a4257818401948551938411611a4a573d85010160208487010111611a4257506103a4929101602001906104db565b949350505050565b50949350505050565b92919091823b611a64575b50505050565b611a8b92602092600060405180968195829463f23a6e6160e01b9a8b85526004850161191a565b03926001600160a01b03165af160009181611b88575b50611b605750506001611ab26119c7565b6308c379a014611b31575b611acb575b38808080611a5e565b60405162461bcd60e51b815260206004820152603460248201527f455243313135353a207472616e7366657220746f206e6f6e2d455243313135356044820152732932b1b2b4bb32b91034b6b83632b6b2b73a32b960611b6064820152608490fd5b0390fd5b611b396119e5565b80611b445750611abd565b60405162461bcd60e51b8152908190611b2d9060048301610393565b6001600160e01b03191614611ac25760405162461bcd60e51b815280611b2d6004820161197e565b611baa91925060203d8111611bb1575b611ba281836104db565b810190611905565b9038611aa1565b503d611b98565b9493919092813b611bcc575b505050505050565b6000602094611bf36040519788968795869463f23a6e6160e01b9c8d87526004870161194b565b03926001600160a01b03165af160009181611c70575b50611c485750506001611c1a6119c7565b6308c379a014611c35575b611acb575b388080808080611bc4565b611c3d6119e5565b80611b445750611c25565b6001600160e01b03191614611c2a5760405162461bcd60e51b815280611b2d6004820161197e565b611c8991925060203d8111611bb157611ba281836104db565b9038611c09565b93906103a49593611cc291611cd09460018060a01b03809216885216602087015260a0604087015260a0860190610af8565b908482036060860152610af8565b91608081840391015261036e565b9493919092813b611cf157505050505050565b6000602094611bf36040519788968795869463bc197c8160e01b9c8d875260048701611c90565b604051611d24816104c0565b600181526001602082016020368237825115611d3e575290565b611d46610c78565b5290565b60405190611d57826104c0565b60018252602082016020368237825115611d3e575290565b6001600160a01b038116600081815260086020526040808220549051611e2794938392611dfc9015611da0846104c0565b600d84526c6973506c617965722066756e6360981b6020850152604051928391611de3602084019663324757b560e21b885260606024860152608485019061036e565b916044840152606483015203601f1981018352826104db565b51906a636f6e736f6c652e6c6f675afa506001600160a01b0316600090815260086020526040902090565b54611e3157600090565b600190565b611e2790610a5c565b90604051611e4c8161047d565b608060ff6004839560018060a01b038154168552611e6c60018201610d0f565b602086015260028101546040860152600381015460608601520154161515910152565b6080604051611e9d8161047d565b6000918183809352606060208201528260408201528260608201520152611ec382611d6f565b15611f105760056020611eeb6103a49460018060a01b03166000526008602052604060002090565b54928254841015611f03575b82815220910201611e3f565b611f0b610c78565b611ef7565b60405162461bcd60e51b8152602060048201526015602482015274506c6179657220646f65736e27742065786973742160581b6044820152606490fd5b6001600160a01b0316600090815260096020526040902054611e3157600090565b90601f8111611f7c57505050565b600091825260208220906020601f850160051c83019410611fb8575b601f0160051c01915b828110611fad57505050565b818155600101611fa1565b9092508290611f98565b91909182516001600160401b038111612091575b611fea81611fe48454610cd5565b84611f6e565b602080601f831160011461202657508192939460009261201b575b50508160011b916000199060031b1c1916179055565b015190503880612005565b90601f1983169561203c85600052602060002090565b926000905b88821061207957505083600195969710612060575b505050811b019055565b015160001960f88460031b161c19169055388080612056565b80600185968294968601518155019501930190612041565b612099610466565b611fd6565b60055490600160401b82101561221f575b6120c060019283810160055561149c565b919091612212575b805182546001600160a01b0319166001600160a01b0391909116178255828201602080830151948551916001600160401b038311612205575b6121158361210f8654610cd5565b86611f6e565b80601f8411600114612187575092828060809460049794612169976105289b60009461217c575b50501b916000199060031b1c19161790555b60408101516002860155606081015160038601550151151590565b91019060ff801983541691151516179055565b01519250388061213c565b9193949596601f1984166121a087600052602060002090565b936000905b8282106121ee5750509361052898979360049793612169979383608098106121d5575b505050811b01905561214e565b015160001960f88460031b161c191690553880806121c8565b8088869782949787015181550196019401906121a5565b61220d610466565b612101565b61221a610e35565b6120c8565b612227610466565b6120af565b1561223357565b60405162461bcd60e51b815260206004820152601c60248201527f506c6561736520526567697374657220506c61796572204669727374000000006044820152606490fd5b608061228333611e8f565b01516123e15761229561077233611d6f565b61229d61241e565b506122a7336126c0565b6122b081612461565b600660ff6122fa6122f460405160208101906122ea816107a5334286909160349282526001600160601b03199060601b1660208201520190565b5190206064900690565b60ff1690565b16069160ff8316156123ac575b61237a7fca8ab07e9ed17d119729fc652dd24df9d8430ca862dda4631925b5b4b99da362939461233561052a565b90815260ff86169081602082015283604082015284606082015261235b60065491612481565b336000908152600960205260409020556123736125bf565b90336125de565b61238d61238860045461163e565b600455565b6040805160ff95909516855260208501919091528301523391606090a2565b61237a6123d97fca8ab07e9ed17d119729fc652dd24df9d8430ca862dda4631925b5b4b99da3629461246f565b935050612307565b60405162461bcd60e51b8152602060048201526015602482015274506c6179657220697320696e206120626174746c6560581b6044820152606490fd5b60405190608082018281106001600160401b03821117612454575b60405260006060838181528260208201528260408201520152565b61245c610466565b612439565b600a0390600a821161186e57565b60ff6001911660ff811461164e570190565b6006549190600160401b8310156125b2575b6124a4600193848101600655611144565b9190916125a5575b80519384516001600160401b038111612598575b6124ce8161210f8654610cd5565b60209081601f8211600114612527579080606095949392600397989960009261251c575b505060001982881b1c191690831b1786555b82015190850155604081015160028501550151910155565b0151905038806124f2565b601f1982169061253c87600052602060002090565b9160005b8181106125835750918391600398999a87969560609998951061256b575b505050811b018655612504565b0151600019838a1b60f8161c1916905538808061255e565b8a830151845592860192918501918501612540565b6125a0610466565b6124c0565b6125ad610e35565b6124ac565b6125ba610466565b612493565b604051906125cc826104c0565b600382526203078360ec1b6020830152565b6001600160a01b038116929190831561267157610528936125fe83611d4a565b50612607611d18565b506000838152602081815260408083206001600160a01b038616845290915290206126328154611860565b9055604080518481526001602082015260009133917fc3d58168c5ae7397731d063d5bbf3d657854427343f4c083240f7aacaa2d0f629190a433611a53565b60405162461bcd60e51b815260206004820152602160248201527f455243313135353a206d696e7420746f20746865207a65726f206164647265736044820152607360f81b6064820152608490fd5b600a9060405160208101914483524260408301526001600160601b03199060601b166060820152605481526126f4816104a5565b5190200680156127015790565b50600590565b604090600060a0835160c081018181106001600160401b03821117612766575b855280948382528360208301526060818301528051612745816104c0565b81368237606083015280519061275a826104c0565b36823760808201520152565b61276e610466565b612727565b1561277a57565b60405162461bcd60e51b8152602060048201526016602482015275426174746c6520616c7265616479206578697374732160501b6044820152606490fd5b9060038110156106695760ff80198354169116179055565b9060005b600281106127e157505050565b81516001600160a01b0316818401556020909101906001016127d4565b600091825b6002811061281057505055565b9092602060019160ff9081875116918560031b90811b9283911b169119161794019101612803565b60075461285890600160401b8110156128f6575b60018101600755610c8f565b6128e9575b81516003811015610669576128c860a06105289461287d600694866127b8565b60208101516001860155612898604082015160028701611fc2565b6128a96060820151600387016127d0565b6128ba6080820151600587016127fe565b01516001600160a01b031690565b910180546001600160a01b0319166001600160a01b03909216919091179055565b6128f1610e35565b61285d565b6128fe610466565b61284c56fea2646970667358221220e4d2b93d108e449fa519da01def1a9a08adb545c995b6a16954fa80836c673a664736f6c63430008110033405787fa12a823e0f2b7631cc41b3ba8828b3321ca811111fa75cd3aa3bb5ace",
  "linkReferences": {},
  "deployedLinkReferences": {}
}